:020000040800F2
:10000000000002204504000889010008950100084D
:100010009D010008A5010008AD01000800000000D6
:10002000000000000000000000000000B501000812
:10003000C101000800000000CD010008D90100083E
:10004000A1040008A1040008A1040008A1040008FC
:10005000A1040008A1040008A1040008A1040008EC
:10006000A1040008A1040008A1040008A1040008DC
:10007000A1040008A1040008A1040008A1040008CC
:10008000A1040008A1040008A1040008A1040008BC
:10009000A1040008A1040008A1040008A1040008AC
:1000A000A1040008A1040008A1040008A10400089C
:1000B000A1040008A1040008A1040008A10400088C
:1000C000A1040008A1040008A1040008A10400087C
:1000D000A1040008A1040008A1040008A10400086C
:1000E000A1040008A1040008A1040008A10400085C
:1000F000A1040008A1040008A1040008A10400084C
:10010000A1040008A1040008A1040008A10400083B
:10011000A1040008A1040008A1040008A10400082B
:10012000A1040008A1040008A1040008A10400081B
:10013000A1040008A1040008A1040008A10400080B
:10014000A1040008A1040008A1040008A1040008FB
:10015000A1040008A1040008A1040008A1040008EB
:10016000A1040008A1040008A1040008A1040008DB
:10017000A1040008A1040008A1040008A1040008CB
:10018000A1040008A104000880B400AFBD4680BCF3
:10019000704700BF80B400AFFEE700BF80B400AF7F
:1001A000FEE700BF80B400AFFEE700BF80B400AF41
:1001B000FEE700BF80B400AFBD4680BC704700BF03
:1001C00080B400AFBD4680BC704700BF80B400AFB4
:1001D000BD4680BC704700BF80B400AF40F21C0336
:1001E000C2F200031B6803F1010240F21C03C2F2D9
:1001F00000031A60BD4680BC704700BF80B500AFE9
:100200004FF46053C4F202034FF46052C4F202028E
:10021000126842F001021A604FF46053C4F2020304
:100220004FF000029A604FF46053C4F202034FF49F
:100230006052C4F20202126822F0847222F4803208
:100240001A604FF46053C4F2020343F21002C2F288
:1002500000425A604FF46053C4F202034FF46052FC
:10026000C4F20202126822F480221A604FF4605332
:10027000C4F202034FF00002DA6000F009F84FF414
:100280006D43CEF200034FF000629A6080BD00BF64
:1002900080B483B000AF4FF000037B604FF00003E9
:1002A0003B604FF46053C4F202034FF46052C4F257
:1002B0000202126842F480321A604FF46053C4F2B2
:1002C00002031B6803F400333B607B6803F1010306
:1002D0007B603B68002B03D17B68B3F5A06FECD14A
:1002E0004FF46053C4F202031B6803F40033002B85
:1002F00003D04FF001033B6002E04FF000033B608E
:100300003B68012B40F082804FF46053C4F202033B
:100310004FF46052C4F20202126C42F080521A642E
:100320004FF4E043C4F200034FF4E042C4F2000291
:10033000126842F480421A604FF46053C4F2020320
:100340004FF46052C4F2020292689A604FF4605314
:10035000C4F202034FF46052C4F20202926842F403
:1003600000429A604FF46053C4F202034FF46052AB
:10037000C4F20202926842F4A0529A604FF46053B1
:10038000C4F2020345F20842C0F240725A604FF4D0
:100390006053C4F202034FF46052C4F202021268C6
:1003A00042F080721A6000BF4FF46053C4F202033F
:1003B0001B6803F00073002BF6D04FF47053C4F2A7
:1003C000020340F205621A604FF46053C4F2020364
:1003D0004FF46052C4F20202926822F003029A6063
:1003E0004FF46053C4F202034FF46052C4F20202AD
:1003F000926842F002029A6000BF4FF46053C4F268
:1004000002039B6803F00C03082BF6D107F10C07DD
:10041000BD4680BC704700BF80B483B000AF4FF0D2
:1004200000037B607B6803F101037B60FAE700BF98
:10043000A4040008000000201C0000201C00002074
:1004400020000020002100F004B80F4B5B584350FF
:1004500004310E480E4B42189A42FFF4F6AF0D4A93
:1004600000F003B8002342F8043B0B4B9A42FFF420
:10047000F9AF0A48016841F470010160FFF7BEFE60
:10048000FFF7CAFF704700DFA40400080000002047
:100490001C0000201C0000202000002088ED00E04F
:0404A000FFF7FEBFA5
:1004A400007A030A000000000000000001020304B7
:0C04B40006070809371300003813000089
:0400000508000419D2
:00000001FF
