S00F00006F75742F6D61696E2E733139B9
S3180800000000000220BD04000889010008950100089D010026
S3180800001308A5010008AD0100080000000000000000000060
S31808000026000000000000B5010008C101000800000000CD64
S31808000039010008D901000819050008190500081905000849
S3180800004C19050008190500081905000819050008190500DD
S3180800005F08190500081905000819050008190500081905C2
S3180800007200081905000819050008190500081905000819B4
S3180800008505000819050008190500081905000819050008B5
S318080000981905000819050008190500081905000819050091
S318080000AB0819050008190500081905000819050008190576
S318080000BE0008190500081905000819050008190500081968
S318080000D10500081905000819050008190500081905000869
S318080000E41905000819050008190500081905000819050045
S318080000F7081905000819050008190500081905000819052A
S3180800010A000819050008190500081905000819050008191B
S3180800011D050008190500081905000819050008190500081C
S3180800013019050008190500081905000819050008190500F8
S3180800014308190500081905000819050008190500081905DD
S3180800015600081905000819050008190500081905000819CF
S3180800016905000819050008190500081905000819050008D0
S3180800017C19050008190500081905000880B400AFBD46808A
S3180800018FBC704700BF80B400AFFEE700BF80B400AFFEE7CE
S318080001A200BF80B400AFFEE700BF80B400AFFEE700BF80EF
S318080001B5B400AFBD4680BC704700BF80B400AFBD4680BCEF
S318080001C8704700BF80B400AFBD4680BC704700BF80B400D4
S318080001DBAF40F21C03C2F200031B6803F1010240F21C0381
S318080001EEC2F200031A60BD4680BC704700BF80B500AF4FD7
S31808000201F46053C4F202034FF46052C4F20202126842F01F
S3180800021401021A604FF46053C4F202034FF000029A604F11
S31808000227F46053C4F202034FF46052C4F20202126822F019
S3180800023A847222F480321A604FF46053C4F2020343F21075
S3180800024D02C2F200425A604FF46053C4F202034FF4605238
S31808000260C4F20202126822F480221A604FF46053C4F20269
S31808000273034FF00002DA6000F009F84FF46D43CEF2000345
S318080002864FF000629A6080BD00BF80B483B000AF4FF0006B
S31808000299037B604FF000033B604FF46053C4F202034FF495
S318080002AC6052C4F20202126842F480321A604FF46053C42F
S318080002BFF202031B6803F400333B607B6803F101037B6029
S318080002D23B68002B03D17B68B3F5A06FECD14FF46053C458
S318080002E5F202031B6803F40033002B03D04FF001033B6078
S318080002F802E04FF000033B603B68012B40F082804FF46082
S3180800030B53C4F202034FF46052C4F20202126C42F0805292
S3180800031E1A644FF4E043C4F200034FF4E042C4F2000212F2
S318080003316842F480421A604FF46053C4F202034FF460522B
S31808000344C4F2020292689A604FF46053C4F202034FF46096
S3180800035752C4F20202926842F400429A604FF46053C4F261
S3180800036A02034FF46052C4F20202926842F4A0529A604F53
S3180800037DF46053C4F2020345F20842C0F240725A604FF41B
S318080003906053C4F202034FF46052C4F20202126842F08003
S318080003A3721A6000BF4FF46053C4F202031B6803F00073F4
S318080003B6002BF6D04FF47053C4F2020340F205621A604F12
S318080003C9F46053C4F202034FF46052C4F20202926822F0F6
S318080003DC03029A604FF46053C4F202034FF46052C4F202A3
S318080003EF02926842F002029A6000BF4FF46053C4F2020351
S318080004029B6803F00C03082BF6D107F10C07BD4680BC7020
S318080004154700BF80B500AF054800F04DFA43F63000C4F239
S3180800042802004FF0080100F0D1F980BDDC0B000880B5004E
S3180800043BAF4FF44060C4F202004FF001014FF000024FF491
S3180800044E704300F0A1FA80BD00BF80B582B000AFFFF7DB6C
S31808000461FFFFF7E9FF4FF44060C4F202004FF4A04100F0EE
S3180800047477FA4FF44060C4F202004FF4704100F077FA4FB7
S31808000487F000037B6004E000BF7B6803F101037B607A684B
S3180800049A48F67F53C0F25B039A42F3DDE6E7F40B000800A1
S318080004AD0000201C0000201C00002020000020002100F045
S318080004C004B80F4B5B58435004310E480E4B42189A42FFA6
S318080004D3F4F6AF0D4A00F003B8002342F8043B0B4B9A429F
S318080004E6FFF4F9AF0A48016841F470010160FFF782FEFF23
S318080004F9F7AEFF704700DFF40B0008000000201C00002045
S3180800050C1C0000202000002088ED00E0FFF7FEBF04281D01
S3180800051FD8DFE800F003080D1217000D4B196841F480104D
S3180800053212E00A4B186840F400200DE0084B1A6842F48015
S318080005452008E0054B196841F4003003E0034B1A6842F46E
S3180800055880301860704700BF0C38024004281DD8DFE80076
S3180800056BF003080D1217000D4B196841F4805012E00A4B19
S3180800057E186840F400600DE0084B1A6842F4806008E00583
S318080005914B196841F4007003E0034B1A6842F48070186087
S318080005A4704700BF0C38024004281DD8DFE800F003080D4A
S318080005B71217000D4B196821F4805012E00A4B186820F461
S318080005CA00600DE0084B1A6822F4806008E0054B1968211E
S318080005DDF4007003E0034B1A6822F480701860704700BFF2
S318080005F00C38024008B50F4B042818D8DFE800F003070B65
S318080006030F13001868C0F3001008BD1B68C3F3C00008BDEE
S318080006161A68C2F3800008BD1968C1F3400008BD1868008D
S31808000629F0010008BD00F061FA00BF0C380240024B1A689B
S3180800063C42F40000186070470C380240024B1868C0F3C072
S3180800064F10704700BF0C38024004281CD8DFE800F003089C
S318080006620D1217000C4B18688301FBD5704709490A68900B
S3180800067503FBD57047074B18688107FBD5704705490A6839
S318080006889207FBD57047044B18688307FBD5704700380217
S3180800069B40703802407438024001280AD002D3022812D141
S318080006AE0DE009490A6802F00303022BF9D1704706480185
S318080006C16801F00302012AF9D17047024B18688207FBD1EC
S318080006D4704700BF08380240042817D8DFE800F003080D23
S318080006E70F11000A4B1A6842F080700CE0074B196841F4E5
S318080006FA803007E0054B02E0054B00E0054B1A6842F001E1
S3180800070D001860704700BF0038024070380240743802408B
S31808000720042817D8DFE800F003080D0F11000A4B1A6822B5
S31808000733F080700CE0074B196821F4803007E0054B02E028
S31808000746054B00E0054B1A6822F001001860704700BF008F
S318080007593802407038024074380240024B1A6842F4002008
S3180800076C1860704700380240024B1A6822F40020186070D6
S3180800077F4700380240012806D0032809D1054B1A6842F090
S31808000792040003E0044B196841F480201860704700BF705C
S318080007A538024000380240012806D0032809D1054B1A6869
S318080007B822F0040003E0044B196821F48020186070470073
S318080007CBBF703802400038024003681943016070470368A0
S318080007DE23EA010101607047036819430160704703682366
S318080007F1EA010101607047034B1A6822F00301084318603A
S31808000804704700BF08380240034B1A6822F4800141EA80C9
S31808000817501860704704380240034B1A6822F4604141EA11
S3180800082A40301860704708380240034B1A6822F4E0514134
S3180800083DEA80201860704708380240034B1A6822F0F0018C
S3180800085041EA00101860704708380240034B1A6822F4F8BD
S318080008631141EA0040186070470838024040EA8111520831
S3180800087641EA0363501E43EA0041014B1960704700BF04B5
S3180800088938024040F4800040EA8111520841EA0363501E0B
S3180800089C43EA0041014B1960704700BF04380240024B18AF
S318080008AF68C0F38100704700BF0838024010B50446022063
S318080008C2FFF70BFF0220FFF7C6FE0020FFF793FF0120FF71
S318080008D5F702FF0120FFF7BDFEE07B00B1012000F00AF918
S318080008E8207BFFF7ADFF607BFFF7A0FFA07BFFF793FF207F
S318080008FB78227963796188FFF7C3FF0E4B1A6842F080704F
S3180800090E186019688901FCD5A06800F0A8F80220FFF76B59
S31808000921FF0020FFF7BEFE606906492369064A0860022066
S318080009341360BDE81040FFF7F1BE00BF0038024018000044
S318080009472014000020044B1A6842F480301860196821F476
S3180800095A80321A60704770380240816170470904816170B7
S3180800096D470069084070474369594041617047006980B281
S3180800098070474161704741F48033C361C161C361C369C305
S318080009936970472DE9F0410668C568002443FA04F717F0DE
S318080009A6010F11D067004FF0030C0CFA07F86FEA080C0C0C
S318080009B9EA060601FA07F80CEA050502FA07F746EA0806F5
S318080009CC3D430134102CE5D10660C560BDE8F08101294157
S318080009DF680CBF1943994370B541608468002143FA01F586
S318080009F215F0010F08D04D00032606FA05F624EA0604026C
S31808000A05FA05F52C4301311029EED1846070BDF0B5056A1E
S31808000A18446A002342FA03F6F60708D59E000F2707FA0602
S31808000A2BF725EA070501FA06F635430133082BEFD10023DF
S31808000A3E03F1080642FA06F616F0010F08D09E000F270794
S31808000A51FA06F724EA070401FA06F634430133082BECD1E2
S31808000A6405624462F0BD0000034B1A6822F007010843186A
S31808000A7760704700BF003C0240064B07491A6842F0004075
S31808000A8A01F18832186043F80C1C43F80C2C704700BF10CB
S31808000A9D3C024023016745024B1A6842F00040186070477A
S31808000AB0103C0240024B1A6842F04000186070470C3C02DD
S31808000AC340024B1A6842F00100186070470C3C0240024BCA
S31808000AD61A6822F48030186070470C3C0240024B1868C36E
S31808000AE903FBD4704700BF0C3C0240FEE708B5FFF7FCFF87
S31808000AFC20B9064B196841F4804005E0012804D1024B1AEF
S31808000B0F6802F4804018607047007000400C006000020258
S31808000B2200000306000000050401001BB70000366E010C1C
S31808000B3500F00002050000030600000005040180C3C90188
S31808000B48008793030C0050010207000005060000000504F5
S31808000B5B0080DE800200BD01051000600002020000030659
S31808000B6E000000050401001BB70000366E011000F00002E3
S31808000B81050000030600000005040180C3C9010087930311
S31808000B941000500102070000050600000005040080DE80E4
S31808000BA70200BD01050800600002020000030600000005EE
S31808000BBA0401001BB70000366E010800F00002050000039C
S31808000BCD0600000005040180C3C901008793030800500174
S31808000BE002070000050600000005040080DE800200BD0139
S30608000BF305EE
S31808000BF4007A030A0000000000000000010203040607083A
S30E08000C07090024F4000024F4009D
S7050800045995
