:100000004AC6000063C6000061C600005FC600006B
:100010005DC600005BC6000059C6000057C6000060
:1000200055C6000053C6000051C600004FC6000070
:100030004DC600004BC6000049C6000047C6000080
:1000400045C6000043C6000041C600003FC6000090
:100050003DC600003BC6000039C6000037C60000A0
:1000600035C6000033C60000FFE0FFD1AFFF32FF0E
:10007000D0FFFEFFE0FFD1AEFFD0FFFEFFE0FFD1DB
:100080001000FFFEFFD0FFE0FFC1FFD1AED580A87A
:100090003FD300408D142000A1C8DA1281CFD9F1DE
:1000A000DB402EA4A6AFFFD0FFFE000E14FDFB091F
:1000B00001E003DC20FFFD0CFD0AFD00000009004B
:1000C0000101090909030080808080808000808010
:1000D00004040409020690909090050A0A0902FFA0
:1000E000505050F85050F8505050050D0D0902FE78
:1000F0002020788880C0300888F0202020080A0A54
:10010000090000609090730C30CC12120C060808A5
:1001100009010038404040A8909864010404090394
:100120000580808080030C0C0903FE204040808005
:1001300080808080404020030C0C0902FE804040FB
:1001400020202020202040408005060609010320B1
:1001500020F8205088070707090101101010FE1031
:1001600010100304040902FE6060C080060101094A
:100170000104FC020202090300C0C0060B0B0901C6
:10018000FF0408081010202040408080060A0A0959
:10019000010030488484848484844830050A0A0934
:1001A00001002060A0202020202020F8050A0A0954
:1001B0000100708888081020408088F8060A0A0923
:1001C000010038440404180404048478060A0A0967
:1001D000010018282848488888FC081C060A0A09D3
:1001E00001007C404040780404048478060A0A092F
:1001F000010038408080B8C484844438060A0A0963
:100200000100FC840408080810101010050A0A09EF
:10021000020070888888708888888870060A0A09B1
:100220000100708884848C74040408700207070934
:100230000300C0C0000000C0C00309090902FE603D
:10024000600000006060C080070707090001061811
:100250006080601806070303090103FE00FE07071C
:1002600007090101C0300C020C30C0050909090161
:1002700000708808083020002020070A0A0901FFC2
:100280003844849CA4A49E80403809091209FF00C8
:10029000380008001400140022003E004100410014
:1002A000F780070909090000FC4242427C424242B1
:1002B000FC0709090901003A468280808080423C9F
:1002C000080909090000FC42414141414142FC0743
:1002D0000909090100FE42424878484242FE0709E6
:1002E00009090100FE42424878484040F0080909E7
:1002F0000900003A468280808F82423C0809090941
:100300000000E74242427E424242E70509090902F3
:1003100000F820202020202020F8070909090100EA
:100320003E0808080888888870080909090000EE56
:1003300044485070484444E3080909090000F82083
:10034000202020212121FF090912090000E38063F8
:1003500000550055004900490041004100E3800874
:100360000909090000E76252524A4A4646E2080972
:10037000090900003C428181818181423C070909D1
:10038000090100FC424242427C4040F0080B0B094C
:1003900000FE3C428181818181423C315E08090935
:1003A000090000FC42424244784442E1060909093E
:1003B0000100748C8480780484C4B8070909090199
:1003C00000FE929210101010107C0809090900001C
:1003D000E7424242424242423C090912090000E31C
:1003E000804100410022002200140014000800088F
:1003F00000090912090000E3804100490049005545
:10040000005500220022002200080909090000E727
:1004100042242418242442E7070909090000EE4475
:100420004428281010107C060909090100FC848862
:100430001020204484FC030C0C0903FEE080808023
:1004400080808080808080E0060B0B0901FF804067
:10045000402020101008080404030C0C0902FEE0E0
:1004600020202020202020202020E0050505090252
:100470000420505088880901020900FDFF80040211
:1004800002090208C0300707070901007884047CCC
:1004900084847A080A0A090000C040405C62414135
:1004A0004162DC0707070901003A46828080423C2E
:1004B000080A0A0900000602023A46828282463B86
:1004C000070707090100384482FE80423C070A0AF8
:1004D0000901001E2020FC2020202020F8080A0A04
:1004E0000900FD3B46828282463A020478080A0AE5
:1004F000090000C040405C6242424242E7050A0AED
:10050000090200202000E02020202020F8050D0D09
:100510000901FD080800F80808080808080810E0A4
:10052000070A0A090100C040404E4850605048CEBA
:10053000050A0A090200E02020202020202020F8BF
:1005400009070E090000DB006D0049004900490061
:100550004900ED80080707090000DC624242424280
:10056000E70807070900003C42818181423C080AF4
:100570000A0900FDDC62414141625C4040F0080A2A
:100580000A0900FD3B46828282463A02020F0707B3
:1005900007090100CC5260404040F80607070901F6
:1005A000007C8480780484F8070909090000202071
:1005B000FC20202020221C080707090000C6424218
:1005C0004242463B080707090000E742422424183C
:1005D0001809070E090000E3804100490049002A7C
:1005E0000036002200070707090000EE4428102803
:1005F00044EE080A0A0900FDE742422424180810C4
:100600001078050707090200F88810204088F803D1
:100610000C0C0902FE2040404040804040404040D9
:1006200020010B0B0903FE80808080808080808009
:100630008080030C0C0902FE804040404020404076
:10064000404040800602020901036498FFFFFFFF5B
:10065000FFFFFFFFFFFFFFFFFFFFFFFFFFFFFFFFAA
:10066000FFFFFFFFFFFFFFFFFFFFFFFFFF00000097
:100670000900010109090904FE8080008080808052
:100680008080050909090200202078888088702070
:10069000200709090901001824202078202042FCA5
:1006A000060606090101B448848448B4070909090B
:1006B0000100EE4444287C107C1038010B0B090328
:1006C000FE8080808000008080808080060A0A0989
:1006D00001FF3C4440F088443C0888F005010109D2
:1006E0000208D80809090900003C4299A5A1A5996A
:1006F000423C040606090203C020E0B000F00807EF
:1007000007090000112244CC442211070303090108
:1007100003FE0202060101090104FC08090909009F
:10072000003C42B9A5B9A9A5423C0401010902084F
:10073000F0040404090206609090600707070901AD
:10074000011010FE101000FE04060609020460905D
:10075000102040F0040606090204609060109060CA
:1007600004020209020830C0080A0A0900FDC64254
:10077000424242467B404040070A0A0901FF7E94FC
:10078000949474141414143E020202090303C0C0AA
:100790000303030902FD4020E003060609030440A9
:1007A000C0404040E00406060902036090906000EB
:1007B000F0080707090000884422332244880A0A07
:1007C0001409FF004000C100420044004480E98059
:1007D0001280148027C040800A0A1409FF004000DC
:1007E000C100420044004580EA40104010802100D2
:1007F00043C00A0A1409FF0060009100620014005F
:10080000948069801280148027C0408005090909FE
:1008100002FE202000206080808870090C180900EA
:100820000030000C00000038000800140014002202
:10083000003E0041004100F780090C180900000C3F
:100840000030000000380008001400140022003EB0
:100850000041004100F780090C180900000800144D
:10086000000000380008001400140022003E00417F
:10087000004100F780090C180900001A002C000044
:1008800000380008001400140022003E004100411E
:1008900000F780090B160900003600000038000838
:1008A000001400140022003E0041004100F78009BE
:1008B0000C18090000180024001800380008001463
:1008C00000140022003E0041004100F78009091297
:1008D00009FF001F800C801400148027803C804496
:1008E000004480EF80070C0C0901FD3A46828080AD
:1008F0008080423C100838070C0C09010060180089
:10090000FE42424878484242FE070C0C0901000CA6
:100910003000FE42424878484242FE070C0C090172
:1009200000102800FE42424878484242FE070B0B66
:100930000901006C00FE42424878484242FE050C24
:100940000C090200C03000F820202020202020F8D0
:10095000050C0C090200186000F82020202020203F
:1009600020F8050C0C090200205000F8202020205F
:10097000202020F8050B0B090200D800F8202020C9
:1009800020202020F8080909090000FC424141F11B
:10099000414142FC080C0C0900001A2C00E762528D
:1009A000524A4A4646E2080C0C090000300C003C52
:1009B000428181818181423C080C0C0900000C308D
:1009C000003C428181818181423C080C0C0900007D
:1009D0001028003C428181818181423C080C0C0935
:1009E00000001A2C003C428181818181423C080B2D
:1009F0000B09000066003C428181818181423C07F5
:100A000007070901018244281028448209091209B4
:100A1000FF001E802100428044804880508020805A
:100A200061009E00080C0C090000300C00E74242F7
:100A300042424242423C080C0C0900000C3000E7E4
:100A4000424242424242423C080C0C09000010283B
:100A500000E7424242424242423C080B0B0900007E
:100A60006600E7424242424242423C070C0C090106
:100A7000000C3000EE444428281010107C070909AF
:100A8000090000E0407C4242427C40E0070909093D
:100A900000003844445844424252CC070A0A090133
:100AA000006018007884047C848C76070A0A0901A7
:100AB000001860007884047C848C76070A0A090197
:100AC000001028007884047C848C76070A0A0901C7
:100AD000003458007884047C848C76070909090165
:100AE000006C007884047C848C76070A0A09010073
:100AF0003048307884047C848C760807070900002D
:100B00007689097F888976070A0A0901FD3A4682B3
:100B10008080423C100838070A0A0901006018006A
:100B2000384482FE80423C070A0A0901000C30006A
:100B3000384482FE80423C070A0A0901001028005E
:100B4000384482FE80423C0709090901006C0038E4
:100B50004482FE80423C050A0A090200C03000E0DF
:100B60002020202020F8050A0A09020030C000E0F9
:100B70002020202020F8050A0A090200205000E069
:100B80002020202020F8050909090200D800E020D3
:100B900020202020F8080C0C09000002E41828444A
:100BA0003C42818181423C080A0A0900001A2C005B
:100BB000DC6242424242E7080A0A090000300C00A7
:100BC0003C42818181423C080A0A0900000C300045
:100BD0003C42818181423C080A0A09000010280039
:100BE0003C42818181423C080A0A0900001A2C001B
:100BF0003C42818181423C0809090900006C003CAB
:100C000042818181423C080707090001181800FF52
:100C10000018180807070900003D468991A142BC49
:100C2000080A0A090000300C00C642424242463B14
:100C3000080A0A0900000C3000C642424242463B04
:100C4000080A0A090000102800C642424242463BF8
:100C50000809090900006C00C642424242463B08AE
:100C60000D0D0900FD061800E74242242418081063
:100C70001078080C0C0900FDC0405C6241414162E3
:100C80005C4040F0080C0C0900FD3600E7424224AD
:100C900024180810107811241FBECFEFD8E0DEBF53
:100CA000CDBF11E0A0E0B1E0E6E6F8E102C00590BA
:100CB0000D92AE30B107D9F711E0AEE0B1E001C05E
:100CC0001D92A83CB107E1F7BFD0CBC599C990915F
:100CD0001001911104C08093100160930E010895DA
:100CE0001092100110920E01089580930F0110923E
:100CF000B90084FF02C08CE001C088E48093B80092
:100D0000EFCFA2E0B0E0E6E8F6E084C520ED37E002
:100D10003A8329839091BC00982389F429813A81F0
:100D2000232B41F480910F0181FD09C081E0CFDFC9
:100D300080E006C029813A8121503109E9CF81E064
:100D40002296E2E083C5CF93C82F84EA8093BC004B
:100D500061E080E8D6DF8823F9F09091B900987FB0
:100D6000983021F0903111F061E014C0C093BB00C5
:100D700084E88093BC0062E080E8C3DF882361F0F0
:100D800080910F0181FD0AC08091B900887F883170
:100D900029F062E082E09BDF80E001C081E0CF913A
:100DA00008958093BB0084E88093BC0063E080E8F2
:100DB000A8DF882361F080910F0181FD0AC0809136
:100DC000B900887F883229F063E082E080DF80E02C
:100DD000089581E0089584E98093BC0064E080E197
:100DE00090CF40E060E071E081E991E01ED261E0E7
:100DF00081E991E051C2EAE7F0E080818760808379
:100E0000ACE7B0E08C9180648C93808180688083B3
:100E1000808180648083089590917C00907F90937E
:100E20007C0090917C00982B90937C0080917A00BC
:100E3000806480937A0080917A0086FDFCCF809157
:100E4000780090917900089580E880936100D3DF65
:100E5000C8DF6AEA70E081E991E0DAD000E010E0F2
:100E60008EE1E82EF12CCCE3D0E087E0D5DF8930AD
:100E700022E0920710F0219704C08A3E914008F4C6
:100E8000219686E0C9DF893022E0920720F08FEFBB
:100E9000E81AF80A06C08A3E914018F481E0E81A80
:100EA000F10881E991E0D4D10330110571F403E038
:100EB00023E04E2D6C2F81E991E040D381E991E050
:100EC000CBD18111F4CF00E010E00F5F1F4FCDCFE9
:100ED000A0E0B0E0EDE6F7E096C48C01EB01B42EA3
:100EE000690180E1481779F1841760F0EAE04E1358
:100EF00034C042E0C8015BD344E850E0BE01C80101
:100F00009CD32BC0F1E14F1709F185E1481325C0AF
:100F1000EA80FB804CE750E0C8018FD3F7014481A1
:100F2000406BBE01C80177D341E0BE01C80169D35F
:100F3000AE01B801C701A6D28823A9F040E0BE01E6
:100F4000C8013FD30AC043E750E002C048E650E082
:100F5000BE01C80172D381E007C096014B2DBE01CE
:100F6000C8010BD201C080E0CDB7DEB7E9E067C4AD
:100F700080E00895DC0114968D919C91159700975F
:100F800009F43FC057962C915797FC01211108C0D6
:100F90003596E4915896EC935897FC013C9611C015
:100FA000213041F43F96E4915896EC935897FC0118
:100FB000709607C03D96E4915896EC935897FC01C3
:100FC0003E96849159968C93599758968C91589740
:100FD000992787FD909559962C915997821B9109D5
:100FE00027FD93955A962C915A97203441F0829F71
:100FF000C0011124F6E096958795FA95E1F75B9686
:101000008C93089528EB37E0FC01368B258B0895EF
:10101000CF93DF93EC018C819D818617970741F078
:101020007D836C83CE01A6DF88EB97E09E8B8D8B52
:10103000DF91CF9108951F93CF93DF93EC011D8231
:101040001C821F821E82198681E0888782E28A873D
:101050001F861E8680E090E02FEFFE01E80FF91F4B
:1010600023A301968E309105C1F711E018A3CE019C
:10107000C9DF1F8B188E198E80E48A8F1B8E84EB3C
:101080009AE09AAB89ABDF91CF911F910895DB0174
:10109000ED91FC9109950895EF92FF921F93CF93E4
:1010A000DF9300D0CDB7DEB77C01DC01D196ED91A6
:1010B000FC91D29782E069837A83099520E030E041
:1010C0004AE069817A81C701E2DF182FD701D19602
:1010D000ED91FC91D29783E00995D701D196ED91DE
:1010E000FC91D29780E00995812F0F900F90DF91AE
:1010F000CF911F91FF90EF9008950F931F93CF937F
:10110000DF93EC018B01E9A9FAA982E00995E9A92D
:10111000FAA981E0099520E030E044E1B801CE0170
:10112000B6DF9E012D5C3F4F47E1B801CE01AFDF36
:10113000E9A9FAA980E00995DF91CF911F910F915C
:101140000895FF920F931F93CF93DF93EC018B01D0
:10115000E9A9FAA982E00995E9A9FAA981E0099526
:1011600020E030E045E1B801CE0191DFF82E882380
:1011700039F09E012D5C3F4F47E1B801CE0187DF7A
:10118000E9A9FAA980E009958F2DCDB7DEB7E5E092
:101190005AC3A1E0B0E0EEECF8E03CC39E012F5F43
:1011A0003F4F46E474DF89812196E2E04FC3A1E01E
:1011B000B0E0ECEDF8E02EC39E012F5F3F4F47E417
:1011C00066DF89812196E2E041C320E030E048E417
:1011D0005ECFCF93DF93EC016A817B81DADF888376
:1011E0006A817B81CE01E3DF89836A817B81CE01C5
:1011F000ECDF8B879E012D5C3F4F6A817B8147E14D
:10120000CE0145DFDF91CF910895CF93DF93EC01BD
:101210006A817B8141DF882321F0CE01DADF81E022
:1012200001C080E0DF91CF910895A1E0B0E0EAE154
:10123000F9E0ECC27C018B014983FDDEF7011383E9
:101240000283498146A7C701E0DF2196E6E0FAC2A2
:10125000FC016281738151CFCF93DF93EC01EE8566
:10126000FF85309709F009956A817B81CE0169DF9E
:10127000DF91CF9108950F93FC0182819381648F58
:10128000458F278F068F9F01245E3F4F4BE3BC01A4
:10129000CF01FDDE0F910895FC0160A30895DC01EC
:1012A0001696ED91FC91179712968C91481B4770FA
:1012B00081E090E0042E01C0880F0A94EAF7E60F5F
:1012C000F11D3081222311F0832B02C080958323EE
:1012D00080830895FB014181DC0112962C911297C5
:1012E000421760F013962C911397241738F0608101
:1012F00015962C91621710F42481D1CF0895CF92C6
:10130000DF92FF920F931F93CF93DF9300D0CDB75F
:10131000DEB78C016B01FB01F2808381813039F0F3
:1013200070F0823039F0833041F020E001C021E0DC
:1013300030E007C020E03FEF04C02FEFF9CF20E0FE
:1013400031E0F7FE07C0B601C80129833A83C2DF46
:101350003A812981F6018081830F80838181820F08
:101360008183FF0C71F70F900F90DF91CF911F9148
:101370000F91FF90DF90CF9008950F931F93CF931D
:10138000DF938901FB01C281D3814233D9F058F444
:101390004531E1F0473109F1443141F5CE012ED01C
:1013A000CE010BD223C04634E1F04734E1F04B3399
:1013B000E9F4B901CE0157D08823C1F0B801CE01BC
:1013C0009EDF14C0B901CE0185DF10C0CE01FCD173
:1013D000882371F0CE0112D009C0B901CE0133D0FB
:1013E00005C08D8101C08981F801808381E001C041
:1013F00080E0DF91CF911F910F910895DC01169647
:10140000ED91FC91179715968C919F01280F311D36
:10141000C9011192E817F907E1F70895FC0191E07D
:101420008381861708F490E021E0461708F020E059
:10143000322F392B81E05281451708F480E0832355
:101440009223892B0895DC01FB01108212968C9166
:101450001297818315968C911597815082831396EC
:101460008C9183830895FB0141812381213029F0F0
:10147000233031F468EF640F04C0642F485F01C06B
:10148000642FCCCFFC01CB01BA0126813781458185
:10149000CCC0AF92BF92DF92EF92FF920F931F9357
:1014A000CF93DF931F92CDB7DEB75C01E62EF42E0B
:1014B000122F322FD62ED20E6D2D631B383048F0EE
:1014C0000FEF20E04F2DC5013983D5DE398138502B
:1014D000F3CF612F687F6E0D177071F087E0812761
:1014E0008F5F87700FEF10E001C0000F8A95EAF759
:1014F00020E04F2DC501BFDE0F90DF91CF911F91EE
:101500000F91FF90EF90DF90BF90AF900895EF9212
:10151000FF920F931F93CF93DF93EC01F62EE22EF1
:10152000142F040F2E2D412F6F2DCE01B2DF1F5F20
:101530000113F8CFCDB7DEB7E6E084C1A0E0B0E09C
:10154000E3EAFAE062C1EC01162FF42EE22ED02E6F
:101550000CD0882329F02E2D4F2D612FCE01D7DFFF
:10156000CDB7DEB7E7E06DC108950F93FC010150E0
:10157000040F84A996A9941718F0081728F402C03C
:10158000081750F0041740F42150260F83A995A99D
:10159000961720F4281720F480E007C0281720F4BD
:1015A00081E0261710F0F8CF81E00F910895DB015C
:1015B0001496ED91FC91159720E030E061E00995DB
:1015C0000895DB011496ED91FC91159720E030E031
:1015D00063E009950895DB011496ED91FC91159750
:1015E00020E030E040E064E009950895DB011496C6
:1015F000ED91FC91159720E030E041E064E0099521
:101600000895DB011496ED91FC91159720E030E0F0
:1016100062E009950895DB011496ED91FC91159710
:1016200020E030E065E009950895DB011496ED9126
:10163000FC91159766E009950895A1E0B0E0E2E21B
:10164000FBE0E0C05C018B017A0180E0F70144918E
:10165000811108C04F3FA1F1B801C501DCDF811144
:1016600028C033C04F3FC1F34E3F89F1403F08F5DA
:10167000403E28F04F70B801C501C3DF1AC0403D9D
:1016800028F04F70B801C5019CDF13C0403C98F0B2
:10169000B801C50149839FDF49814295407F4E5F74
:1016A000C42ED12CC6017FD0B801C5019FDFC60171
:1016B0007AD080E006C047FDFCCF842F90E0F8CFC1
:1016C00081E0FFEFEF1AFF0AC1CF80E001C081E0A7
:1016D0002196EAE0B3C0CF93DF93EC018BA588237A
:1016E00071F088E730DB882361F08EA1811105C09D
:1016F00058DB882331F01BA602C080E4F9CF81E0DB
:1017000001C080E0DF91CF9108951F93CF93DF93C5
:10171000142FE9016330B1F050F4613079F0623098
:1017200009F03AC0FC0146A321E023A735C066308A
:10173000D9F0673021F1653079F50CC0FC0186A540
:10174000D4DA2AC0FC0116A221E023A7411124C04B
:1017500042DB22C0C0DF811102C03DDB1FC0812FF0
:1017600020DB811119C0F9CFB6DF8823B1F3112333
:1017700099F0899116DB882381F31150F8CFABDF04
:10178000882359F3112341F0FE0184910ADB882359
:1017900029F021961150F6CF81E001C080E0DF9161
:1017A000CF911F9108952EE93FE0009729F0F901AC
:1017B0003197F1F70197F9CF0895FC0112828081EA
:1017C0008150838314820895FC0120818281820FDD
:1017D00082839181891760F484818F5F8483838100
:1017E000820F891710F08FEF890F838381E00895AE
:1017F00080E008952F923F924F925F926F927F9276
:101800008F929F92AF92BF92CF92DF92EF92FF9210
:101810000F931F93CF93DF93CDB7DEB7CA1BDB0BBC
:101820000FB6F894DEBF0FBECDBF09942A88398861
:1018300048885F846E847D848C849B84AA84B98468
:10184000C884DF80EE80FD800C811B81AA81B98174
:10185000CE0FD11D0FB6F894DEBF0FBECDBFED0188
:061860000895F894FFCF8B
:0E18660068070601850B084000000080110194
:00000001FF
