:020000040800F2
:1000000000000220C5370008350900084109000832
:1000100049090008510900085909000800000000BA
:10002000000000000000000000000000610900085E
:100030006D09000800000000790900088509000822
:10004000213800082138000821380008213800082C
:10005000213800082138000821380008213800081C
:10006000213800082138000821380008213800080C
:1000700021380008213800082138000821380008FC
:1000800021380008213800082138000821380008EC
:1000900021380008213800082138000821380008DC
:1000A00021380008213800082138000821380008CC
:1000B000811900082138000821380008213800087B
:1000C00021380008213800082138000821380008AC
:1000D000213800082138000821380008213800089C
:1000E000213800082138000821380008213800088C
:1000F000213800082138000821380008213800087C
:10010000213800082138000821380008213800086B
:10011000213800082138000821380008213800085B
:10012000213800082138000821380008213800084B
:10013000213800082138000821380008213800083B
:10014000213800082138000821380008213800082B
:10015000213800082138000821380008213800081B
:10016000213800082138000821380008213800080B
:1001700021380008213800082138000821380008FB
:080180002138000821380008B5
:1001880080B582B000AF78607A684FF00003C4F29F
:1001980002039A420CD14FF001004FF0010101F027
:1001A80067F84FF001004FF0000101F061F89EE0A0
:1001B8007A684FF48063C4F202039A420CD14FF07C
:1001C80002004FF0010101F053F84FF002004FF028
:1001D800000101F04DF88AE07A684FF40063C4F238
:1001E80002039A420CD14FF004004FF0010101F0D4
:1001F8003FF84FF004004FF0000101F039F876E0C5
:100208007A684FF44063C4F202039A420CD14FF06B
:1002180008004FF0010101F02BF84FF008004FF0F3
:10022800000101F025F862E07A684FF48053C4F2C7
:1002380002039A420CD14FF010004FF0010101F077
:1002480017F84FF010004FF0000101F011F84EE0E0
:100258007A684FF4A053C4F202039A420CD14FF0CB
:1002680020004FF0010101F003F84FF020004FF09B
:10027800000100F0FDFF3AE07A684FF4C053C4F281
:1002880002039A420CD14FF040004FF0010100F0F8
:10029800EFFF4FF040004FF0000100F0E9FF26E0CB
:1002A8007A684FF4E053C4F202039A420CD14FF03B
:1002B80080004FF0010100F0DBFF4FF080004FF0AD
:1002C800000100F0D5FF12E07A684FF40053C4F241
:1002D80002039A420BD14FF480704FF0010100F0F5
:1002E800C7FF4FF480704FF0000100F0C1FF07F125
:1002F8000807BD4680BD00BF80B487B000AF7860F6
:1003080039604FF000037B614FF000033B614FF011
:100318000003FB604FF000037B6186E07B694FF0D0
:10032800010202FA03F33B613B681A683B69134018
:10033800FB60FA683B699A4273D17B681A687B69EB
:100348004FEA43034FF0030101FA03F36FEA030393
:100358001A407B681A607B681A683B681B791946E3
:100368007B694FEA430301FA03F31A437B681A6077
:100378003B681B79012B03D03B681B79022B34D1D6
:100388007B689A687B694FEA43034FF0030101FADF
:1003980003F36FEA03031A407B689A607B689A68E4
:1003A8003B685B7919467B694FEA430301FA03F31B
:1003B8001A437B689A607B685A687B699BB24FF0E6
:1003C800010101FA03F36FEA03031A407B685A60DC
:1003D8007B685A683B689B7919467B699BB201FA2E
:1003E80003F39BB21A437B685A607B68DA687B69BF
:1003F8009BB24FEA43034FF0030101FA03F36FEA9C
:1004080003031A407B68DA607B68DA683B68DB794B
:1004180019467B694FEA430301FA03F31A437B68E1
:10042800DA607B6903F101037B617B690F2B7FF63F
:1004380075AF07F11C07BD4680BC704780B483B018
:1004480000AF78607B684FF6FF721A607B684FF0E8
:1004580000021A717B684FF000025A717B684FF0F6
:1004680000029A717B684FF00002DA7107F10C07FD
:10047800BD4680BC704700BF80B485B000AF7860CF
:100488000B467B804FF48033FB607A88FB6813430C
:10049800FB60FA687B68DA617A887B68DA61FA68F7
:1004A8007B68DA617B68DB69FB607B68DB69FB6022
:1004B80007F11407BD4680BC704700BF80B485B003
:1004C80000AF78600B467B804FF00003FB737B68BE
:1004D8001A697B881340002B03D04FF00103FB738C
:1004E80002E04FF00003FB73FB7B184607F114078B
:1004F800BD4680BC704700BF80B483B000AF786051
:100508007B681B699BB2184607F10C07BD4680BC87
:10051800704700BF80B485B000AF78600B467B8021
:100528004FF00003FB737B685A697B881340002BEC
:1005380003D04FF00103FB7302E04FF00003FB739D
:10054800FB7B184607F11407BD4680BC704700BF07
:1005580080B483B000AF78607B685B699BB2184653
:1005680007F10C07BD4680BC704700BF80B483B05C
:1005780000AF78600B467B807B687A881A8307F126
:100588000C07BD4680BC704780B483B000AF78606C
:100598000B467B807B687A885A8307F10C07BD4637
:1005A80080BC704780B483B000AF786013460A46B9
:1005B8007A807B707B78002B03D07B687A881A83DB
:1005C80002E07B687A885A8307F10C07BD4680BC35
:1005D800704700BF80B483B000AF78600B467B8063
:1005E8007A887B685A6107F10C07BD4680BC704762
:1005F80080B483B000AF78600B467B807B685A6913
:100608007B885A407B685A6107F10C07BD4680BC5D
:10061800704700BF80B485B000AF786013460A46C3
:100628007A807B704FF00003FB604FF00003BB60E3
:100638007A787B8803F007034FEA830302FA03F30F
:10064800FB607B884FEAD3039BB21A467B884FEA4C
:10065800D3039BB219467B6801F1080153F82110B6
:100668007B8803F007034FEA83034FF00F0000FA7B
:1006780003F36FEA030319407B6802F1080243F8A9
:1006880022107B884FEAD3039BB21A467B6802F19B
:10069800080253F82220FB681343BB607B884FEAAB
:1006A800D3039BB21A467B6802F10802B96843F883
:1006B800221007F11407BD4680BC704780B500AF13
:1006C8004FF46053C4F202034FF46052C4F20202C2
:1006D800126842F001021A604FF46053C4F2020338
:1006E8004FF000029A604FF46053C4F202034FF4D3
:1006F8006052C4F20202126822F0847222F480323C
:100708001A604FF46053C4F2020343F21002C2F2BB
:1007180000425A604FF46053C4F202034FF460522F
:10072800C4F20202126822F480221A604FF4605365
:10073800C4F202034FF00002DA6000F00BF800F098
:10074800CFF84FF46D43CEF200034FF000529A6099
:1007580080BD00BF80B483B000AF4FF000037B6062
:100768004FF000033B604FF46053C4F202034FF4B0
:100778006052C4F20202126842F480321A604FF4E6
:100788006053C4F202031B6803F400333B607B68C8
:1007980003F101037B603B68002B03D17B68B3F551
:1007A800A06FECD14FF46053C4F202031B6803F44A
:1007B8000033002B03D04FF001033B6002E04FF001
:1007C80000033B603B68012B40F083804FF460538B
:1007D800C4F202034FF46052C4F20202126C42F0F7
:1007E80080521A644FF4E043C4F200034FF4E0422D
:1007F800C4F20002126842F480421A604FF4605357
:10080800C4F202034FF46052C4F2020292689A6082
:100818004FF46053C4F202034FF46052C4F2020270
:10082800926842F400429A604FF46053C4F20203A3
:100838004FF46052C4F20202926842F4A0529A60E5
:100848004FF46053C4F2020345F20842C0F240720A
:100858005A604FF46053C4F202034FF46052C4F27A
:100868000202126842F080721A6000BF4FF46053AF
:10087800C4F202031B6803F00073002BF6D04FF498
:100888007053C4F2020340F205621A604FF46053D9
:10089800C4F202034FF46052C4F20202926822F0DA
:1008A80003029A604FF46053C4F202034FF460529B
:1008B800C4F20202926842F002029A6000BF4FF44A
:1008C8006053C4F202039B6803F00C03082BF6D1B3
:1008D80000E0FEE707F10C07BD4680BC704700BF8B
:1008E80080B483B000AF40F20003C0F600037B6021
:1008F80040F20003C2F200033B600BE07B681A6819
:100908003B681A603B6803F104033B607B6803F1B2
:1009180004037B603A6840F28813C2F200039A42EB
:10092800ECD307F10C07BD4680BC704780B400AF1C
:10093800BD4680BC704700BF80B400AFFEE700BF73
:1009480080B400AFFEE700BF80B400AFFEE700BF91
:1009580080B400AFFEE700BF80B400AFBD4680BCE6
:10096800704700BF80B400AFBD4680BC704700BF71
:1009780080B400AFBD4680BC704700BF80B400AFF4
:1009880040F2AC13C2F200031B6803F1010240F20B
:10099800AC13C2F200031A60BD4680BC704700BFAA
:1009A80080B400AF4FF46053C4F202034FF46052B6
:1009B800C4F20202126842F001021A604FF4605356
:1009C800C4F202034FF000029A604FF46053C4F27D
:1009D80002034FF46052C4F20202126822F08472D9
:1009E80022F480321A604FF46053C4F2020343F2D7
:1009F8001002C2F200425A604FF46053C4F202037C
:100A08004FF46052C4F20202126822F480221A6083
:100A18004FF46053C4F202034FF00002DA60BD469F
:100A280080BC704780B483B000AF0346FB7143F6C7
:100A38000203C4F202034FF000021A7043F60203E5
:100A4800C4F20203FA791A7007F10C07BD4680BC9C
:100A5800704700BF80B582B000AF4FF000033B6025
:100A68004FF00003FB714FF00003BB714FF03100F2
:100A780000F0D2FD0346BB713B6803F101033B6004
:100A88003B68B3F5A06F02D0BB79002BEED04FF0D6
:100A9800310000F0C1FD0346002B03D04FF00103E5
:100AA800FB7102E04FF00003FB71FB79184607F178
:100AB8000807BD4680BD00BF80B485B000AF0346BF
:100AC800FB714FF00003FB604FF46053C4F2020364
:100AD8001B68FB60FB6823F0F803FB60FB794FEAB7
:100AE800C303FA681343FB604FF46053C4F2020374
:100AF800FA681A6007F11407BD4680BC704700BF4A
:100B080080B483B000AF0346FB714FF00003C4F21A
:100B18004723FA791A6007F10C07BD4680BC704775
:100B280080B483B000AF0346FB7143F67003C4F290
:100B380002034FF000021A7043F67003C4F2020376
:100B48004FF000021A70FB79012B02D0042B08D059
:100B58000FE043F67003C4F202034FF001021A706B
:100B680008E043F67003C4F202034FF005021A705E
:100B780000E000BF07F10C07BD4680BC704700BF0E
:100B880080B483B000AF0346FB714FF46863C4F2CE
:100B98004723FA791A6007F10C07BD4680BC7047F5
:100BA80080B485B000AFF860B9607A603B604FF4FC
:100BB8006053C4F202037A684FEA8211BA6811439B
:100BC8003A684FEA520202F1FF324FEA02421143F9
:100BD800FA681143BA694FEA02620A435A6007F198
:100BE8001407BD4680BC704780B483B000AF03468D
:100BF800FB714FF06003C4F24723FA791A6007F1DA
:100C08000C07BD4680BC704780B483B000AF7860E5
:100C180039604FF46053C4F202037A684FEA8211D4
:100C28003A684FEA02720A43C3F8842007F10C07B6
:100C3800BD4680BC704700BF80B483B000AF034698
:100C4800FB714FF06803C4F24723FA791A6007F181
:100C58000C07BD4680BC704780B483B000AF034624
:100C6800FB714FF04C03C4F24723FA791A6007F17D
:100C78000C07BD4680BC704780B485B000AF786073
:100C880039604FF00003FB604FF46053C4F2020375
:100C98009B68FB60FB6823F0EC63FB607A683B6849
:100CA8001343FA681343FB604FF46053C4F2020322
:100CB800FA689A6007F11407BD4680BC704700BF08
:100CC80080B485B000AF786039604FF00003FB60F6
:100CD8004FF46053C4F202039B68FB60FB6823F087
:100CE8007843FB607A683B681343FA681343FB60F8
:100CF8004FF46053C4F20203FA689A6007F11407CC
:100D0800BD4680BC704700BF80B485B000AF786036
:100D18004FF00003FB604FF46053C4F202039B687A
:100D2800FB60FB6823F00303FB60FA687B681343EE
:100D3800FB604FF46053C4F20203FA689A6007F14B
:100D48001407BD4680BC704780B400AF4FF46053B1
:100D5800C4F202039B68DBB203F00C03DBB2184653
:100D6800BD4680BC704700BF80B485B000AF7860D6
:100D78004FF00003FB604FF46053C4F202039B681A
:100D8800FB60FB6823F0F003FB60FA687B681343A1
:100D9800FB604FF46053C4F20203FA689A6007F1EB
:100DA8001407BD4680BC704780B485B000AF78603A
:100DB8004FF00003FB604FF46053C4F202039B68DA
:100DC800FB60FB6823F4E053FB60FA687B6813431D
:100DD800FB604FF46053C4F20203FA689A6007F1AB
:100DE8001407BD4680BC704780B485B000AF7860FA
:100DF8004FF00003FB604FF46053C4F202039B689A
:100E0800FB60FB6823F46043FB607B684FEAC30325
:100E1800FA681343FB604FF46053C4F20203FA68A4
:100E28009A6007F11407BD4680BC704780B489B04A
:100E380000AF78604FF00003BB614FF000037B61A7
:100E48004FF00003FB614FF002033B614FF00003DA
:100E5800FB604FF00203BB604FF46053C4F202031F
:100E68009B6803F00C03BB61BB69042B0AD0082BF9
:100E78000FD0002B60D17A684FF41053C0F2F403FE
:100E8800136060E07A6847F64003C0F27D13136090
:100E980059E04FF46053C4F202035B6803F4800323
:100EA8004FEA9353FB604FF46053C4F202035B684C
:100EB80003F03F03BB60FB68002B14D047F64003E8
:100EC800C0F27D13BA68B3FBF2F24FF46053C4F278
:100ED8000203596847F6C0730B404FEA931303FBAC
:100EE80002F3FB6113E04FF41053C0F2F403BA6845
:100EF800B3FBF2F24FF46053C4F20203596847F6A9
:100F0800C0730B404FEA931303FB02F3FB614FF4EA
:100F18006053C4F202035B6803F440334FEA13439F
:100F280003F101034FEA43033B61FA693B69B2FBF2
:100F3800F3F27B681A6006E07A684FF41053C0F247
:100F4800F403136000BF4FF46053C4F202039B68BC
:100F580003F0F003BB61BB694FEA1313BB6140F2B6
:100F68009C13C2F20003BA699B181B78DBB27B6141
:100F78007B681A687B6922FA03F27B685A604FF42F
:100F88006053C4F202039B6803F4E053BB61BB697E
:100F98004FEA9323BB6140F29C13C2F20003BA6983
:100FA8009B181B78DBB27B617B685A687B6922FAE5
:100FB80003F27B689A604FF46053C4F202039B68A3
:100FC80003F46043BB61BB694FEA5333BB6140F232
:100FD8009C13C2F20003BA699B181B78DBB27B61D1
:100FE8007B685A687B6922FA03F27B68DA6007F14A
:100FF8002407BD4680BC704780B485B000AF7860D8
:101008004FF00003FB607B6803F44073B3F5407F47
:1010180017D14FF46053C4F202039B68FB60FB686E
:1010280023F4F813FB607B6823F0704323F44073C8
:10103800FA681343FB604FF46053C4F20203FA6882
:101048009A604FF46053C4F202034FF46052C4F242
:101058000202116F7A684FEA02524FEA12520A43AB
:101068001A6707F11407BD4680BC704780B483B087
:1010780000AF0346FB7140F63C63C4F24723FA799C
:101088001A6007F10C07BD4680BC704780B483B076
:1010980000AF0346FB714FF46463C4F24723FA7947
:1010A8001A6007F10C07BD4680BC704780B483B056
:1010B80000AF78604FF4AE73C4F247237A681A60C1
:1010C80007F10C07BD4680BC704700BF80B483B0F1
:1010D80000AF78600B46FB70FB78002B0CD04FF408
:1010E8006053C4F202034FF46052C4F20202116B5F
:1010F8007A680A431A630DE04FF46053C4F202039E
:101108004FF46052C4F20202116B7A686FEA02026D
:101118000A401A6307F10C07BD4680BC704700BF40
:1011280080B483B000AF78600B46FB70FB78002B6F
:101138000CD04FF46053C4F202034FF46052C4F26F
:101148000202516B7A680A435A630DE04FF4605308
:10115800C4F202034FF46052C4F20202516B7A687F
:101168006FEA02020A405A6307F10C07BD4680BCC9
:10117800704700BF80B483B000AF78600B46FB7047
:10118800FB78002B0CD04FF46053C4F202034FF4E9
:101198006052C4F20202916B7A680A439A630DE0C6
:1011A8004FF46053C4F202034FF46052C4F20202D7
:1011B800916B7A686FEA02020A409A6307F10C079A
:1011C800BD4680BC704700BF80B483B000AF786074
:1011D8000B46FB70FB78002B0CD04FF46053C4F225
:1011E80002034FF46052C4F20202116C7A680A4397
:1011F8001A640DE04FF46053C4F202034FF46052D6
:10120800C4F20202116C7A686FEA02020A401A6498
:1012180007F10C07BD4680BC704700BF80B483B09F
:1012280000AF78600B46FB70FB78002B0CD04FF4B6
:101238006053C4F202034FF46052C4F20202516CCC
:101248007A680A435A640DE04FF46053C4F202030B
:101258004FF46052C4F20202516C7A686FEA0202DB
:101268000A405A6407F10C07BD4680BC704700BFAE
:1012780080B483B000AF78600B46FB70FB78002B1E
:101288000CD04FF46053C4F202034FF46052C4F21E
:10129800020211697A680A431A610DE04FF460533B
:1012A800C4F202034FF46052C4F2020211697A6870
:1012B8006FEA02020A401A6107F10C07BD4680BCBA
:1012C800704700BF80B483B000AF78600B46FB70F6
:1012D800FB78002B0CD04FF46053C4F202034FF498
:1012E8006052C4F2020251697A680A435A610DE0F9
:1012F8004FF46053C4F202034FF46052C4F2020286
:1013080051697A686FEA02020A405A6107F10C07CC
:10131800BD4680BC704700BF80B483B000AF786022
:101328000B46FB70FB78002B0CD04FF46053C4F2D3
:1013380002034FF46052C4F2020291697A680A43C8
:101348009A610DE04FF46053C4F202034FF4605207
:10135800C4F2020291697A686FEA02020A409A614D
:1013680007F10C07BD4680BC704700BF80B483B04E
:1013780000AF78600B46FB70FB78002B0CD04FF465
:101388006053C4F202034FF46052C4F20202116ABD
:101398007A680A431A620DE04FF46053C4F20203FC
:1013A8004FF46052C4F20202116A7A686FEA0202CC
:1013B8000A401A6207F10C07BD4680BC704700BF9F
:1013C80080B483B000AF78600B46FB70FB78002BCD
:1013D8000CD04FF46053C4F202034FF46052C4F2CD
:1013E8000202516A7A680A435A620DE04FF4605368
:1013F800C4F202034FF46052C4F20202516A7A68DE
:101408006FEA02020A405A6207F10C07BD4680BC27
:10141800704700BF80B483B000AF78600B46FB70A4
:10142800FB78002B0CD04FF46053C4F202034FF446
:101438006052C4F20202116D7A680A431A650DE01F
:101448004FF46053C4F202034FF46052C4F2020234
:10145800116D7A686FEA02020A401A6507F10C07F3
:10146800BD4680BC704700BF80B483B000AF7860D1
:101478000B46FB70FB78002B0CD04FF46053C4F282
:1014880002034FF46052C4F20202516D7A680A43B3
:101498005A650DE04FF46053C4F202034FF46052F2
:1014A800C4F20202516D7A686FEA02020A405A6574
:1014B80007F10C07BD4680BC704700BF80B483B0FD
:1014C80000AF78600B46FB70FB78002B0CD04FF414
:1014D8006053C4F202034FF46052C4F20202916DE9
:1014E8007A680A439A650DE04FF46053C4F2020328
:1014F8004FF46052C4F20202916D7A686FEA0202F8
:101508000A409A6507F10C07BD4680BC704700BFCA
:1015180080B483B000AF78600B46FB70FB78002B7B
:101528000CD04FF46053C4F202034FF46052C4F27B
:101538000202116E7A680A431A660DE04FF460538E
:10154800C4F202034FF46052C4F20202116E7A68C8
:101558006FEA02020A401A6607F10C07BD4680BC12
:10156800704700BF80B483B000AF78600B46FB7053
:10157800FB78002B0CD04FF46053C4F202034FF4F5
:101588006052C4F20202516E7A680A435A660DE04C
:101598004FF46053C4F202034FF46052C4F20202E3
:1015A800516E7A686FEA02020A405A6607F10C0720
:1015B800BD4680BC704700BF80B483B000AF024610
:1015C8000B46FA71BB71BB79002B0ED043F60D03A5
:1015D800C4F2020343F60D02C4F202021278D1B239
:1015E800FA790A43D2B21A7010E043F60D03C4F236
:1015F800020343F60D02C4F202021278D1B2FA795C
:101608006FEA0202D2B20A40D2B21A7007F10C078E
:10161800BD4680BC704700BF80B487B000AF0346AA
:10162800FB714FF00003FB604FF000037B614FF04C
:101638000003FB74FB794FEA5313DBB2FB60FB68D2
:10164800012B06D14FF46053C4F202031B687B617F
:101658000FE0FB68022B06D14FF46053C4F202037B
:101668001B6F7B6105E04FF46053C4F202035B6FAC
:101678007B61FB7903F01F03FB60FB687A6922FA40
:1016880003F303F00103002B03D04FF00103FB74B5
:1016980002E04FF00003FB74FB7C184607F11C07BF
:1016A800BD4680BC704700BF80B400AF4FF46053A4
:1016B800C4F202034FF46052C4F20202526F42F0C5
:1016C80080725A67BD4680BC704700BF80B485B041
:1016D80000AF0346FB714FF00003FB734FF46053F8
:1016E800C4F20203DA68FB791340002B03D04FF0F1
:1016F8000103FB7302E04FF00003FB73FB7B18460A
:1017080007F11407BD4680BC704700BF80B483B0A2
:1017180000AF0346FB7143F60E03C4F20203FA79E5
:101728001A7007F10C07BD4680BC704780B483B0BF
:1017380000AF78604FF46D43CEF200037A6842F050
:10174800BF6242F40032DA6007F10C07BD4680BC84
:10175800704700BF80B485B000AF78604FF00003D9
:10176800FB734FF00003BB734FF00F037B737B6871
:10177800DB78002B45D04FF46D43CEF20003DB68D5
:101788006FEA030303F4E0634FEA1323FB73FB7B65
:10179800C3F10403BB737A7BFB7B42FA03F37B73CD
:1017A8007B685B781A46BB7B02FA03F3FB737B68A2
:1017B8009A787B7B1340DAB2FB7B1343FB73FB7B8A
:1017C8004FEA0313FB734FF46143CEF200037A68C8
:1017D80012789B18FA7B83F800234FF46143CEF20A
:1017E80000037A6812784FEA5212D2B279680978FF
:1017F80001F01F014FF0010000FA01F143F8221037
:1018080014E04FF46143CEF200037A6812784FEA8D
:101818005212D2B27968097801F01F014FF0010025
:1018280000FA01F102F1200243F8221007F114072F
:10183800BD4680BC704700BF80B483B000AF7860FD
:1018480039604FF46D43CEF200033A6822F06042EB
:1018580022F07F0279680A439A6007F10C07BD46B7
:1018680080BC704780B483B000AF02460B46FA7163
:10187800BB71BB79002B0CD04FF46D43CEF2000343
:101888004FF46D42CEF200021169FA790A431A61E7
:101898000DE04FF46D43CEF200034FF46D42CEF2EB
:1018A80000021169FA796FEA02020A401A6107F127
:1018B8000C07BD4680BC704780B483B000AF786029
:1018C8007B68042B0CD14EF21003CEF200034EF2CB
:1018D8001002CEF20002126842F004021A600BE015
:1018E8004EF21003CEF200034EF21002CEF20002C6
:1018F800126822F004021A6007F10C07BD4680BC8A
:10190800704700BF80B584B000AF4FF00003FB60A4
:101918004FF46053C4F202034FF46052C4F202025F
:10192800126B42F008021A634FF470437B604FF069
:1019380001033B724FF00003BB724FF00003FB72D0
:101948004FF003037B7207F104034FF44060C4F2C5
:1019580002001946FEF7D0FC4FF44060C4F20200C2
:101968004FF42041FEF744FE00F020F8FB6803F135
:101978000103FB60FAE700BF80B500AF4FF080407D
:101988004FF0010101F0A6FB0346002B0DD04FF0EC
:1019980080404FF0010101F0CDFB4FF44060C4F2EC
:1019A80002004FF47041FEF723FE80BD80B584B07D
:1019B80000AF4FF01C033B704FF000037B704FF0FB
:1019C8000103BB704FF00103FB703B461846FFF75D
:1019D800C1FE4FF46053C4F202034FF46052C4F2E4
:1019E8000202126C42F001021A6440F2CF73BB602B
:1019F8004BF67F33BB804FF00003BB814FF00003F1
:101A0800FB8007F104034FF08040194600F02EF9DF
:101A18004FF080404FF001014FF0010201F0F6FA5B
:101A28004FF080404FF0010100F0B6FA07F11007BF
:101A3800BD4680BD80B582B000AF78607A684FF04F
:101A48000003C4F201039A420CD14FF001004FF099
:101A58000101FFF7B5FC4FF001004FF00001FFF75F
:101A6800AFFCFFE07B68B3F1804F0CD14FF0010071
:101A78004FF00101FFF77AFC4FF001004FF0000131
:101A8800FFF774FCEEE07A684FF48063C4F2000359
:101A98009A420CD14FF002004FF00101FFF766FCAB
:101AA8004FF002004FF00001FFF760FCDAE07A68BF
:101AB8004FF40063C4F200039A420CD14FF00400C3
:101AC8004FF00101FFF752FC4FF004004FF0000106
:101AD800FFF74CFCC6E07A684FF44063C4F2000399
:101AE8009A420CD14FF008004FF00101FFF73EFC7D
:101AF8004FF008004FF00001FFF738FCB2E07A68B9
:101B08004FF48053C4F200039A420CD14FF01000F6
:101B18004FF00101FFF72AFC4FF010004FF00001D1
:101B2800FFF724FC9EE07A684FF4A053C4F2000348
:101B38009A420CD14FF020004FF00101FFF716FC3C
:101B48004FF020004FF00001FFF710FC8AE07A68A0
:101B58004FF48063C4F201039A420CD14FF00200A3
:101B68004FF00101FFF72CFC4FF002004FF000018D
:101B7800FFF726FC76E07A684FF48043C4F201034D
:101B88009A420CD14FF480304FF00101FFF718FC56
:101B98004FF480304FF00001FFF712FC62E07A68E2
:101BA8004FF48843C4F201039A420CD14FF4003039
:101BB8004FF00101FFF704FC4FF400304FF0000133
:101BC800FFF7FEFB4EE07A684FF49043C4F201033E
:101BD8009A420CD14FF480204FF00101FFF7F0FB3F
:101BE8004FF480204FF00001FFF7EAFB3AE07A68F3
:101BF8004FF4C053C4F200039A420CD14FF0400096
:101C08004FF00101FFF7B2FB4FF040004FF0000129
:101C1800FFF7ACFB26E07A684FF4E053C4F2000308
:101C28009A420CD14FF080004FF00101FFF79EFB64
:101C38004FF080004FF00001FFF798FB12E07A6840
:101C48004FF40053C4F200039A420BD14FF4807052
:101C58004FF00101FFF78AFB4FF480704FF000014D
:101C6800FFF784FB07F10807BD4680BD80B485B047
:101C780000AF786039604FF00003FB817B681B88F8
:101C8800FB817A684FF00003C4F201039A421FD027
:101C98007A684FF48063C4F201039A4218D07B68D3
:101CA800B3F1804F14D07A684FF48063C4F2000314
:101CB8009A420DD07A684FF40063C4F200039A4246
:101CC80006D07A684FF44063C4F200039A4208D100
:101CD800FB8923F07003FB813B685A88FB89134317
:101CE800FB817A684FF48053C4F200039A420FD004
:101CF8007A684FF4A053C4F200039A4208D0FB89D3
:101D080023F44073FB813B681A89FB891343FB81E9
:101D18007B68FA891A803B685A687B68DA623B6894
:101D28001A887B681A857A684FF00003C4F20103A9
:101D38009A4206D07A684FF48063C4F201039A424B
:101D480004D13B689B7A1A467B681A867B684FF0F9
:101D580001029A8207F11407BD4680BC704700BF94
:101D680080B483B000AF78607B684FF0FF325A6070
:101D78007B684FF000021A807B684FF000021A81DE
:101D88007B684FF000025A807B684FF000029A721D
:101D980007F10C07BD4680BC704700BF80B483B014
:101DA80000AF786013460A467A803B807B687A8861
:101DB8001A857B683A889A8207F10C07BD4680BC71
:101DC800704700BF80B485B000AF78600B467B8059
:101DD8004FF00003FB817B681B88FB81FB8923F0A4
:101DE8007003FB81FA897B881343FB817B68FA893E
:101DF8001A8007F11407BD4680BC704780B483B0D1
:101E080000AF786039607B683A685A6207F10C075E
:101E1800BD4680BC704700BF80B483B000AF786017
:101E280039607B683A68DA6207F10C07BD4680BC06
:101E3800704700BF80B483B000AF78607B685B6A8E
:101E4800184607F10C07BD4680BC704780B483B0C4
:101E580000AF78607B681B8D9BB2184607F10C07B2
:101E6800BD4680BC704700BF80B483B000AF7860C7
:101E78000B46FB70FB78002B08D07B681B889BB255
:101E880043F002039AB27B681A8007E07B681B88DC
:101E98009BB223F002039AB27B681A8007F10C0701
:101EA800BD4680BC704700BF80B483B000AF786087
:101EB8000B467B807B88002B08D07B681B889BB2F5
:101EC80043F004039AB27B681A8007E07B681B889A
:101ED8009BB223F004039AB27B681A8007F10C07BF
:101EE800BD4680BC704700BF80B483B000AF786047
:101EF8000B46FB70FB78002B08D07B681B889BB2D5
:101F080043F080039AB27B681A8007E07B681B88DD
:101F18009BB223F080039AB27B681A8007F10C0702
:101F2800BD4680BC704700BF80B483B000AF786006
:101F38000B467B807B681B889BB223F008039AB210
:101F48007B681A807B681B889AB27B8813439AB295
:101F58007B681A8007F10C07BD4680BC704700BF3C
:101F680080B483B000AF78600B467B807B681B88A9
:101F78009BB223F440739AB27B681A807B681B88F3
:101F88009AB27B8813439AB27B681A8007F10C07D0
:101F9800BD4680BC704700BF80B483B000AF786096
:101FA8000B46FB70FB78002B08D07B681B889BB224
:101FB80043F001039AB27B681A8007E07B681B88AC
:101FC8009BB223F001039AB27B681A8007F10C07D1
:101FD800BD4680BC704700BF80B485B000AF786054
:101FE80039604FF000037B814FF00003FB814FF015
:101FF8000003BB817B681B8C9BB223F001039AB260
:102008007B681A847B681B8CFB817B689B88BB81FF
:102018007B681B8B7B817B8923F070037B817B89A9
:1020280023F003037B813B681A887B8913437B81F8
:10203800FB8923F00203FB813B689A89FB891343E0
:10204800FB813B685A88FB891343FB817A684FF010
:102058000003C4F201039A4206D07A684FF4806301
:10206800C4F201039A4223D1FB8923F00803FB81C0
:102078003B68DA89FB891343FB81FB8923F004035E
:10208800FB813B689A88FB891343FB81BB8923F456
:102098008073BB81BB8923F40073BB813B681A8AB8
:1020A800BB891343BB813B685A8ABB891343BB81F5
:1020B8007B68BA899A807B687A891A833B689A68B0
:1020C8007B685A637B68FA891A8407F11407BD464E
:1020D80080BC704780B485B000AF786039604FF03D
:1020E80000037B814FF00003FB814FF00003BB81AD
:1020F8007B681B8C9BB223F010039AB27B681A840E
:102108007B681B8CFB817B689B88BB817B681B8BF6
:102118007B817B8923F4E0437B817B8923F44073B3
:102128007B813B681B884FEA03239AB27B89134360
:102138007B81FB8923F02003FB813B689B894FEA65
:1021480003139AB2FB891343FB813B685B884FEA10
:1021580003139AB2FB891343FB817A684FF000039B
:10216800C4F201039A4206D07A684FF48063C4F23D
:1021780001039A422FD1FB8923F08003FB813B683E
:10218800DB894FEA03139AB2FB891343FB81FB896E
:1021980023F04003FB813B689B884FEA03139AB204
:1021A800FB891343FB81BB8923F48063BB81BB8913
:1021B80023F40063BB813B681B8A4FEA83039AB20E
:1021C800BB891343BB813B685B8A4FEA83039AB29E
:1021D800BB891343BB817B68BA899A807B687A89FB
:1021E8001A833B689A687B689A637B68FA891A84C1
:1021F80007F11407BD4680BC704700BF80B485B0A6
:1022080000AF786039604FF000037B814FF0000326
:10221800FB814FF00003BB817B681B8C9BB223F4CE
:1022280080739AB27B681A847B681B8CFB817B68FD
:102238009B88BB817B689B8B7B817B8923F07003A8
:102248007B817B8923F003037B813B681A887B8928
:1022580013437B81FB8923F40073FB813B689B89D3
:102268004FEA03239AB2FB891343FB813B685B88DF
:102278004FEA03239AB2FB891343FB817A684FF034
:102288000003C4F201039A4206D07A684FF48063CF
:10229800C4F201039A422FD1FB8923F40063FB8126
:1022A8003B68DB894FEA03239AB2FB891343FB811E
:1022B800FB8923F48063FB813B689B884FEA0323F7
:1022C8009AB2FB891343FB81BB8923F48053BB81FA
:1022D800BB8923F40053BB813B681B8A4FEA031375
:1022E8009AB2BB891343BB813B685B8A4FEA0313ED
:1022F8009AB2BB891343BB817B68BA899A807B6891
:102308007A899A833B689A687B68DA637B68FA897A
:102318001A8407F11407BD4680BC704780B485B0A5
:1023280000AF786039604FF00003BB814FF00003C5
:102338007B814FF00003FB817B681B8C9BB223F4ED
:1023480080539AB27B681A847B681B8C7B817B687C
:102358009B88FB817B689B8BBB81BB8923F4E04313
:10236800BB81BB8923F44073BB813B681B884FEA60
:1023780003239AB2BB891343BB817B8923F400539F
:102388007B813B689B894FEA03339AB27B8913436D
:102398007B813B685B884FEA03339AB27B8913439E
:1023A8007B817A684FF00003C4F201039A4206D099
:1023B8007A684FF48063C4F201039A420BD1FB8917
:1023C80023F48043FB813B681B8A4FEA83139AB24C
:1023D800FB891343FB817B68FA899A807B68BA89F9
:1023E8009A833B689A687B681A647B687A891A843E
:1023F80007F11407BD4680BC704700BF80B483B0A6
:1024080000AF78607B684FF000021A807B684FF05D
:1024180000025A807B684FF000029A807B684FF078
:1024280000029A607B684FF000029A817B684FF047
:102438000002DA817B684FF000021A827B684FF055
:1024480000025A8207F10C07BD4680BC704700BFE6
:1024580080B485B000AF786013460A467A803B8026
:102468004FF00003FB604FF000037B817B68FB604B
:10247800FB6803F11803FB607B884FF0010202FA46
:1024880003F37B817B681B8C9AB27B896FEA030319
:102498009BB213409AB27B681A847B88002B02D0C7
:1024A8007B88082B14D17B884FEA53039BB2FA68C8
:1024B800D318FB60FA68FB6819684FF68F730B40F6
:1024C8001360FB68FA6811683A880A431A6019E0D1
:1024D8007B88A3F104039BB24FEA53039BB2FA68CB
:1024E800D318FB60FA68FB68196848F6FF730B405D
:1024F8001360FB68FA6811683A884FEA022292B2C0
:102508000A431A6007F11407BD4680BC704700BF34
:1025180080B483B000AF786039607B683A685A63EA
:1025280007F10C07BD4680BC704700BF80B483B07C
:1025380000AF786039607B683A689A6307F10C07E6
:10254800BD4680BC704700BF80B483B000AF7860E0
:1025580039607B683A68DA6307F10C07BD4680BCCE
:10256800704700BF80B483B000AF786039607B6883
:102578003A681A6407F10C07BD4680BC704700BF73
:1025880080B485B000AF78600B467B804FF00003C5
:10259800FB817B681B8BFB81FB8923F07003FB812C
:1025A800FA897B881343FB817B68FA891A8307F1D0
:1025B8001407BD4680BC704780B485B000AF786012
:1025C8000B467B804FF00003FB817B681B8BFB81F4
:1025D800FB8923F4E043FB817B884FEA03239AB20B
:1025E800FB891343FB817B68FA891A8307F1140777
:1025F800BD4680BC704700BF80B485B000AF78602E
:102608000B467B804FF00003FB817B689B8BFB8133
:10261800FB8923F07003FB81FA897B881343FB81D4
:102628007B68FA899A8307F11407BD4680BC704716
:1026380080B485B000AF78600B467B804FF0000314
:10264800FB817B689B8BFB81FB8923F4E043FB8147
:102658007B884FEA03239AB2FB891343FB817B688B
:10266800FA899A8307F11407BD4680BC704700BFFA
:1026780080B485B000AF78600B467B804FF00003D4
:10268800FB817B681B8BFB81FB8923F00803FB81A3
:10269800FA897B881343FB817B68FA891A8307F1DF
:1026A8001407BD4680BC704780B485B000AF786021
:1026B8000B467B804FF00003FB817B681B8BFB8103
:1026C800FB8923F40063FB817B884FEA03239AB2DA
:1026D800FB891343FB817B68FA891A8307F1140786
:1026E800BD4680BC704700BF80B485B000AF78603D
:1026F8000B467B804FF00003FB817B689B8BFB8143
:10270800FB8923F00803FB81FA897B881343FB814B
:102718007B68FA899A8307F11407BD4680BC704725
:1027280080B485B000AF78600B467B804FF0000323
:10273800FB817B689B8BFB81FB8923F40063FB8116
:102748007B884FEA03239AB2FB891343FB817B689A
:10275800FA899A8307F11407BD4680BC704700BF09
:1027680080B485B000AF78600B467B804FF00003E3
:10277800FB817B681B8BFB81FB8923F00403FB81B6
:10278800FA897B881343FB817B68FA891A8307F1EE
:102798001407BD4680BC704780B485B000AF786030
:1027A8000B467B804FF00003FB817B681B8BFB8112
:1027B800FB8923F48063FB817B884FEA03239AB269
:1027C800FB891343FB817B68FA891A8307F1140795
:1027D800BD4680BC704700BF80B485B000AF78604C
:1027E8000B467B804FF00003FB817B689B8BFB8152
:1027F800FB8923F00403FB81FA897B881343FB815F
:102808007B68FA899A8307F11407BD4680BC704734
:1028180080B485B000AF78600B467B804FF0000332
:10282800FB817B689B8BFB81FB8923F48063FB81A5
:102838007B884FEA03239AB2FB891343FB817B68A9
:10284800FA899A8307F11407BD4680BC704700BF18
:1028580080B485B000AF78600B467B804FF00003F2
:10286800FB817B681B8BFB81FB8923F08003FB8149
:10287800FA897B881343FB817B68FA891A8307F1FD
:102888001407BD4680BC704780B485B000AF78603F
:102898000B467B804FF00003FB817B681B8BFB8121
:1028A800FB894FEA43434FEA5343FB817B884FEA56
:1028B80003239AB2FB891343FB817B68FA891A8345
:1028C80007F11407BD4680BC704700BF80B485B0CF
:1028D80000AF78600B467B804FF00003FB817B687C
:1028E8009B8BFB81FB8923F08003FB81FA897B8822
:1028F8001343FB817B68FA899A8307F11407BD4665
:1029080080BC704780B485B000AF78600B467B8090
:102918004FF00003FB817B689B8BFB81FB894FEAAF
:1029280043434FEA5343FB817B884FEA03239AB220
:10293800FB891343FB817B68FA899A8307F11407A3
:10294800BD4680BC704700BF80B485B000AF7860DA
:102958000B467B804FF00003FB817B681B8CFB815F
:10296800FB8923F00203FB81FA897B881343FB81EF
:102978007B68FA891A8407F11407BD4680BC704742
:1029880080B485B000AF78600B467B804FF00003C1
:10299800FB817B681B8CFB81FB8923F00803FB818F
:1029A800FA897B881343FB817B68FA891A8407F1CB
:1029B8001407BD4680BC704780B485B000AF78600E
:1029C8000B467B804FF00003FB817B681B8CFB81EF
:1029D800FB8923F02003FB817B884FEA03139AB21B
:1029E800FB891343FB817B68FA891A8407F1140772
:1029F800BD4680BC704700BF80B485B000AF78602A
:102A08000B467B804FF00003FB817B681B8CFB81AE
:102A1800FB8923F08003FB817B884FEA03139AB27A
:102A2800FB891343FB817B68FA891A8407F1140731
:102A3800BD4680BC704700BF80B485B000AF7860E9
:102A48000B467B804FF00003FB817B681B8CFB816E
:102A5800FB8923F40073FB817B884FEA03239AB236
:102A6800FB891343FB817B68FA891A8407F11407F1
:102A7800BD4680BC704700BF80B485B000AF7860A9
:102A88000B467B804FF00003FB817B681B8CFB812E
:102A9800FB8923F40063FB817B884FEA03239AB206
:102AA800FB891343FB817B68FA891A8407F11407B1
:102AB800BD4680BC704700BF80B485B000AF786069
:102AC8000B467B804FF00003FB817B681B8CFB81EE
:102AD800FB8923F40053FB817B884FEA03339AB2C6
:102AE800FB891343FB817B68FA891A8407F1140771
:102AF800BD4680BC704700BF80B485B000AF786029
:102B080013460A467A803B804FF00003FB817B889E
:102B18004FF0010202FA03F3FB817B681B8C9AB227
:102B2800FB896FEA03039BB213409AB27B681A844D
:102B38007B681B8C9AB239887B8801FA03F39BB2B5
:102B480013439AB27B681A8407F11407BD4680BC08
:102B5800704700BF80B485B000AF786013460A465E
:102B68007A803B804FF00003FB817B884FF00402A2
:102B780002FA03F3FB817B681B8C9AB2FB896FEA2C
:102B880003039BB213409AB27B681A847B681B8C40
:102B98009AB239887B8801FA03F39BB213439AB23D
:102BA8007B681A8407F11407BD4680BC704700BFD4
:102BB80080B582B000AF786039603B681B88002B15
:102BC8000FD13B6859883B689A883B681B897868AD
:102BD80000F0C4FC3B68DB887868194600F0ECF824
:102BE80036E03B681B88042B0FD13B6859883B684B
:102BF8009A883B681B89786800F0F0FC3B68DB88A2
:102C08007868194600F0F4F822E03B681B88082B26
:102C18000FD13B6859883B689A883B681B8978685C
:102C280000F02AFD3B68DB887868194600F0FEF85A
:102C38000EE03B6859883B689A883B681B8978682E
:102C480000F060FD3B68DB887868194600F00AF9F7
:102C580007F10807BD4680BD80B483B000AF786037
:102C68007B684FF000021A807B684FF000025A80A0
:102C78007B684FF001029A807B684FF00002DA808F
:102C88007B684FF000021A8107F10C07BD4680BC33
:102C9800704700BF80B584B000AF786039604FF0EE
:102CA8000003FB814FF00103BB813B685B88002B6D
:102CB80003D14FF00203FB8102E04FF00003FB81D8
:102CC8003B689B88012B03D14FF00203BB8102E0D4
:102CD8004FF00103BB813B681B88002B1CD13B686C
:102CE80059883B689A883B681B89786800F036FCED
:102CF8003B68DB887868194600F05EF83B681B89FA
:102D0800F989BA89786800F069FC3B68DB887868DB
:102D1800194600F06DF81BE03B6859883B689A88B3
:102D28003B681B89786800F059FC3B68DB88786849
:102D3800194600F05DF83B681B89F989BA897868FB
:102D480000F00CFC3B68DB887868194600F034F822
:102D580007F11007BD4680BD80B483B000AF78602E
:102D68007B685B6B184607F10C07BD4680BC704753
:102D780080B483B000AF78607B689B6B184607F11E
:102D88000C07BD4680BC704780B483B000AF786044
:102D98007B68DB6B184607F10C07BD4680BC7047A3
:102DA80080B483B000AF78607B681B6C184607F16D
:102DB8000C07BD4680BC704780B483B000AF786014
:102DC8000B467B807B681B8B9BB223F00C039AB26B
:102DD8007B681A837B681B8B9AB27B8813439AB2F1
:102DE8007B681A8307F10C07BD4680BC704700BF9B
:102DF80080B483B000AF78600B467B807B681B8B08
:102E08009BB223F440639AB27B681A837B681B8B5E
:102E18009AB27B884FEA03239BB213439AB27B682A
:102E28001A8307F10C07BD4680BC704780B483B095
:102E380000AF78600B467B807B689B8B9BB223F04E
:102E48000C039AB27B689A837B689B8B9AB27B88C7
:102E580013439AB27B689A8307F10C07BD4680BC7E
:102E6800704700BF80B483B000AF78600B467B80AA
:102E78007B689B8B9BB223F440639AB27B689A83EE
:102E88007B689B8B9AB27B884FEA03239BB21343E0
:102E98009AB27B689A8307F10C07BD4680BC7047DD
:102EA80080B483B000AF786039603B681A883B68AB
:102EB8005B8813439AB23B689B8813439AB23B687A
:102EC800DB8813439AB23B681B8913439AB23B6869
:102ED8005B8913439AB23B689B8913439AB27B6818
:102EE800A3F8442007F10C07BD4680BC704700BF1B
:102EF80080B483B000AF78607B684FF000021A801E
:102F08007B684FF000025A807B684FF000029A807D
:102F18007B684FF00002DA807B684FF000021A816C
:102F28007B684FF000025A817B684FF000029A815B
:102F380007F10C07BD4680BC704700BF80B483B062
:102F480000AF78600B46FB70FB78002B0CD07B68D9
:102F5800B3F844309BB26FEA43436FEA53439AB2E3
:102F68007B68A3F844200BE07B68B3F844309BB23D
:102F78004FEA43434FEA53439AB27B68A3F844208D
:102F880007F10C07BD4680BC704700BF80B483B012
:102F980000AF78600B46FB70FB78002B08D07B688D
:102FA8009B889BB243F004039AB27B689A8007E03F
:102FB8007B689B889BB223F004039AB27B689A8053
:102FC80007F10C07BD4680BC704700BF80B483B0D2
:102FD80000AF78600B46FB70FB78002B08D07B684D
:102FE8009B889BB243F001039AB27B689A8007E002
:102FF8007B689B889BB223F001039AB27B689A8016
:1030080007F10C07BD4680BC704700BF80B483B091
:1030180000AF786013460A467A807B707B78002B75
:1030280008D07B689B899AB27B8813439AB27B68E5
:103038009A810AE07B689B899AB27B886FEA0303CE
:103048009BB213409AB27B689A8107F10C07BD4680
:1030580080BC704780B483B000AF78600B467B803B
:103068007B687A889A8207F10C07BD4680BC704756
:1030780080B485B000AF78600B467B804FF00003CA
:10308800FB737B681B8A9AB27B8813409BB2002B28
:1030980003D04FF00103FB7302E04FF00003FB7312
:1030A800FB7B184607F11407BD4680BC704700BF7C
:1030B80080B483B000AF78600B467B807B886FEA72
:1030C80003039AB27B681A8207F10C07BD4680BCDD
:1030D800704700BF80B485B000AF78600B467B8036
:1030E8004FF00003FB734FF00003BB814FF0000368
:1030F8007B817B681B8A9AB27B881340BB817B6883
:103108009B899AB27B8813407B81BB89002B06D0B0
:103118007B89002B03D04FF00103FB7302E04FF0D3
:103128000003FB73FB7B184607F11407BD4680BC00
:10313800704700BF80B483B000AF78600B467B80D7
:103148007B886FEA03039AB27B681A8207F10C073F
:10315800BD4680BC704700BF80B483B000AF7860C4
:1031680013460A467A803B807A883B8813439AB292
:103178007B68A3F8482007F10C07BD4680BC704760
:1031880080B483B000AF786013460A467A807B70BB
:103198007B78002B08D07B689B899AB27B88134385
:1031A8009AB27B689A810AE07B689B899AB27B888D
:1031B8006FEA03039BB213409AB27B689A8107F1C6
:1031C8000C07BD4680BC704780B483B000AF786000
:1031D8000B46FB70FB78002B08D07B689B889BB262
:1031E80043F008039AB27B689A8007E07B689B8863
:1031F8009BB223F008039AB27B689A8007F10C0708
:10320800BD4680BC704700BF80B483B000AF786013
:103218007B681B899BB223F007039AB27B681A81EB
:1032280007F10C07BD4680BC704700BF80B582B06F
:1032380000AF78600B467B807B887868194600F081
:103248007DF87B681B899BB243F007039AB27B68C1
:103258001A8107F10807BD4680BD00BF80B584B05C
:1032680000AFF86079813A81FB807B89602B08D1B7
:103278003A89FB88F86811464FF0010200F0AEF970
:1032880007E03A89FB88F86811464FF0010200F020
:1032980065F97B89F868194600F050F8FB681B89C6
:1032A8009BB243F007039AB2FB681A8107F1100733
:1032B800BD4680BD80B586B000AFF86079813A819F
:1032C800FB804FF00003FB8279893A89FB88F86814
:1032D80000F0A4F8FB681B89FB82FB8A23F0070334
:1032E800FB82FB8A43F00703FB82FB8A23F070030F
:1032F800FB82FB8A43F07003FB82FB68FA8A1A811F
:1033080007F11807BD4680BD80B584B000AFF860EE
:1033180079813A81FB8079893A89FB88F86800F0DD
:103328007DF8FB681B899BB243F480439AB2FB6823
:103338001A8107F11007BD4680BD00BF80B485B073
:1033480000AF78600B467B804FF00003FB817B6801
:103358001B89FB81FB8923F07003FB81FA897B8839
:103368001343FB817B68FA891A8107F11407BD466C
:1033780080BC704780B483B000AF78600B467B8018
:103388007B689B889BB223F070039AB27B689A8013
:103398007B689B889AB27B8813439AB27B689A8031
:1033A80007F10C07BD4680BC704700BF80B483B0EE
:1033B80000AF78600B467B807B681B899BB223F04B
:1033C80007039AB27B681A817B681B899AB27B884B
:1033D80013439AB27B681A8107F10C07BD4680BC7B
:1033E800704700BF80B483B000AF78600B467B8025
:1033F8007B681B899BB223F080039AB27B681A8191
:103408007B681B899AB27B8813439AB27B681A81BE
:1034180007F10C07BD4680BC704700BF80B487B079
:1034280000AFF86079813A81FB804FF00003FB829E
:10343800FB681B89FB82FB8ADBB2FB82FB884FEAB5
:1034480003239AB23B8913439AB27B8913439AB2F6
:10345800FB8A1343FB82FB68FA8A1A8107F11C076F
:10346800BD4680BC704700BF80B487B000AFF8602D
:1034780079813A81FB804FF00003FB824FF0000313
:10348800BB824FF000037B82FB681B89FB82FB68D1
:103498001B8BBB82FB681B8C7B82FB8A23F0070398
:1034A800FB82FA8A7B891343FB82BB8A23F440732D
:1034B80023F00303BB82BB8A43F4807343F0010308
:1034C800BB827B8A23F022037B82FB884FEA0313AB
:1034D8009AB23B8913439AB27B8A13437B82FB6877
:1034E800FA8A1A81FB68BA8A1A83FB687A8A1A846C
:1034F80007F11C07BD4680BC704700BF80B483B08D
:1035080000AF78600B46FB70FB78002B08D07B6817
:103518009B889BB243F080039AB27B689A8007E04D
:103528007B689B889BB223F080039AB27B689A8061
:1035380007F10C07BD4680BC704700BF80B483B05C
:1035480000AF78600B467B807B687A88A3F85020B0
:1035580007F10C07BD4680BC704700BF80B487B038
:1035680000AFF86079813A81FB804FF00003FB825D
:103578004FF00003BB82FB681B8C9BB223F0010356
:103588009AB2FB681A84FB681B8BFB82FB681B8C56
:10359800BB82FB8A23F0F303FB82FB884FEA031309
:1035A8009AB23B8913439AB2FB8A1343FB82BB8AC4
:1035B80023F00A03BB827A89BB8A13439BB243F088
:1035C8000103BB82FB68FA8A1A83FB68BA8A1A84E9
:1035D80007F11C07BD4680BC704700BF80B487B0A8
:1035E80000AFF86079813A81FB804FF00003FB82DD
:1035F8004FF00003BB824FF000037B82FB681B8CFB
:103608009BB223F010039AB2FB681A84FB681B8BE9
:10361800FB82FB681B8CBB827B894FEA03137B828E
:10362800FB8A23F440734FEA03534FEA1353FB8298
:10363800FB884FEA03339AB2FB8A1343FB823B8928
:103648004FEA03239AB2FB8A1343FB82BB8A23F017
:10365800A003BB827A8ABB8A13439BB243F0100350
:10366800BB82FB68FA8A1A83FB68BA8A1A8407F154
:103678001C07BD4680BC704780B487B000AFF860B7
:1036880079813A81FB804FF00003FB824FF0000301
:10369800BB824FF000037B82FB681B8C9BB223F438
:1036A80080739AB2FB681A84FB689B8BFB82FB6869
:1036B8001B8CBB827B894FEA03237B82FB8A23F026
:1036C800F303FB82FB884FEA03139AB23B89134347
:1036D8009AB2FB8A1343FB82BB8A23F42063BB8222
:1036E8007A8ABB8A13439BB243F48073BB82FB681C
:1036F800FA8A9A83FB68BA8A1A8407F11C07BD46BE
:1037080080BC704780B487B000AFF86079813A8197
:10371800FB804FF00003FB824FF00003BB824FF0A9
:1037280000037B82FB681B8C9BB223F480539AB204
:10373800FB681A84FB689B8BFB82FB681B8CBB8233
:103748007B894FEA03337B82FB8A23F440734FEA79
:1037580003534FEA1353FB823B894FEA03239AB280
:10376800FB8A1343FB82FB884FEA03339AB2FB8A36
:103778001343FB82BB8A23F400534FEA43434FEAC7
:103788005343BB827A8ABB8A13439BB243F4805368
:10379800BB82FB68FA8A9A83FB68BA8A1A8407F1A3
:1037A8001C07BD4680BC70472438000888010020EB
:1037B800AC010020AC010020B0010020002100F085
:1037C80004B80F4B5B58435004310E480E4B421857
:1037D8009A42FFF4F6AF0D4A00F003B8002342F80E
:1037E800043B0B4B9A42FFF4F9AF0A48016841F4D5
:1037F80070010160FCF762FFFEF784F8704700DF94
:103808002438000888010020AC010020AC01002009
:0C381800B001002088ED00E0FFF7FEBFCB
:10382400007A030A00000000000000000102030403
:103834000607080900000000010203040102030452
:043844000607080962
:040000050800190DC9
:00000001FF
