S00F00006F75742F6D61696E2E733139B9
S318080000000000022061200008A9020008B10200084503007E
S31808000013084D03000855030008000000000000000000000C
S318080000260000000000005D03000865030008000000007170
S318080000390300087D030008BD200008BD200008BD20000864
S3180800004CBD200008BD200008BD200008BD200008BD200022
S3180800005F08BD200008BD200008BD200008BD200008BD2007
S318080000720008BD200008BD200008BD200008BD200008BD14
S31808000085200008BD200008BD200008BD200008BD2000089E
S31808000098BD200008BD200008BD200008BD200008BD2000D6
S318080000AB08BD200008BD200008BD200008BD200008BD20BB
S318080000BE0008BD200008BD200008BD200008BD200008BDC8
S318080000D1200008BD200008BD200008BD200008BD20000852
S318080000E4BD200008BD200008BD200008BD200008BD20008A
S318080000F708BD200008BD200008BD200008BD200008BD206F
S3180800010A0008BD200008BD200008BD200008BD200008BD7B
S3180800011D200008BD200008BD200008BD200008BD20000805
S31808000130BD200008BD200008BD200008BD200008BD20003D
S3180800014308BD200008BD200008BD200008BD200008BD2022
S318080001560008BD200008BD200008BD200008BD200008BD2F
S31808000169200008BD200008BD200008BD200008BD200008B9
S3180800017CBD200008BD200008BD20000810B5054C237833CF
S3180800018FB9044810B10448AFF300800121217010BDF4099E
S318080001A20020000000006898000808B5064B1BB1064806E6
S318080001B549AFF300800648016811B1054A02B1904708BDA7
S318080001C80000000068980008F8090020EC090020000000D8
S318080001DB0016202CA1ABBE2B488168C268002900D08D4645
S318080001EE002A01D002F5807A00218B460F462548264A12CE
S318080002011A01F04DFA01F065FC152024A1ABBE2349002049
S3180800021401B40B780131002B15D0202BF9D0222B01D027F6
S318080002272B01D11A4601E02022013902B401300B78013160
S3180800023A002B05D09A42F9D100224B1E1A70E5E76946026B
S3180800024D4692006A446B469A4206D9043A14681D681560EA
S318080002601C600433F6E76C460725AC43A54604460D460098
S318080002732009490022002301F039F901F0C5F9204629460C
S3180800028600F099F901F087F900BF04000020F4090020085C
S318080002990B0020BD15000814000020FF00000080B400AF29
S318080002ACFEE700BF80B491B000AF78607B681B68FB637B52
S318080002BF6803F104031B68BB637B6803F108031B687B63D7
S318080002D27B6803F10C031B683B637B6803F110031B68FB9C
S318080002E5627B6803F114031B68BB627B6803F118031B6893
S318080002F87B627B6803F11C031B683B624EF63853CEF20063
S3180800030B031B68FB614EF62853CEF200031B68BB614EF68A
S3180800031E2C53CEF200031B687B614EF63053CEF200031B78
S31808000331683B614EF63C53CEF200031B68FB60FEE700BF8F
S3180800034480B400AFFEE700BF80B400AFFEE700BF80B40056
S31808000357AFFEE700BF80B400AFFEE700BF80B400AFBD46C5
S3180800036A80BC704700BF80B400AFBD4680BC704700BF80A8
S3180800037DB400AF40F60033C2F200031B6803F1010240F62C
S318080003900033C2F200031A60BD4680BC704700BF80B500FE
S318080003A3AF4FF46053C4F202034FF46052C4F202021268B0
S318080003B642F001021A604FF46053C4F202034FF000029AEB
S318080003C9604FF46053C4F202034FF46052C4F202021268D9
S318080003DC22F0847222F480321A604FF46053C4F2020343C2
S318080003EFF21002C2F200425A604FF46053C4F202034FF445
S318080004026052C4F20202126822F480221A604FF46053C407
S31808000415F202034FF00002DA6000F009F84FF46D43CEF2B0
S3180800042800034FF000629A6080BD00BF80B483B000AF4FB4
S3180800043BF000037B604FF000033B604FF46053C4F2020344
S3180800044E4FF46052C4F20202126842F480321A604FF4605F
S3180800046153C4F202031B6803F400333B607B6803F1010349
S318080004747B603B68002B03D17B68B3F5A06FECD14FF460F0
S3180800048753C4F202031B6803F40033002B03D04FF0010358
S3180800049A3B6002E04FF000033B603B68012B40F082804F97
S318080004ADF46053C4F202034FF46052C4F20202126C42F06D
S318080004C080521A644FF4E043C4F200034FF4E042C4F20091
S318080004D302126842F480421A604FF46053C4F202034FF426
S318080004E66052C4F2020292689A604FF46053C4F202034F95
S318080004F9F46052C4F20202926842F400429A604FF4605320
S3180800050CC4F202034FF46052C4F20202926842F4A0529AA8
S3180800051F604FF46053C4F2020345F20842C0F240725A600B
S318080005324FF46053C4F202034FF46052C4F202021268428C
S31808000545F080721A6000BF4FF46053C4F202031B6803F053
S318080005580073002BF6D04FF47053C4F2020340F205621AAA
S3180800056B604FF46053C4F202034FF46052C4F202029268B5
S3180800057E22F003029A604FF46053C4F202034FF46052C4E1
S31808000591F20202926842F002029A6000BF4FF46053C4F2BE
S318080005A402039B6803F00C03082BF6D107F10C07BD4680A4
S318080005B7BC704700BFB0B59AB000AF4FF000037B6601F07F
S318080005CA84FA3A4649F25063C0F6000314461D460FCD0FC3
S318080005DDC495E80300206004F10404218004F102044FEA67
S318080005F0114323703B4649F26860C0F60000194602F0CAAE
S31808000603F97B6E03F101037B6649F26C60C0F60000796E77
S3180800061602F0BFF9F3E77498000800000020E4090020F40A
S31808000629090020080B002081F0004102E000BF83F000434B
S3180800063C30B54FEA41044FEA430594EA050F08BF90EA02E4
S3180800064F0F1FBF54EA000C55EA020C7FEA645C7FEA655CB3
S3180800066200F0E2804FEA5454D4EB5555B8BF6D420CDD2CA0
S318080006754480EA020281EA030382EA000083EA010180EAFC
S31808000688020281EA0303362D88BF30BD11F0004F4FEA01BB
S3180800069B314FF4801C4CEA113102D0404261EB410113F0D1
S318080006AE004F4FEA03334CEA133302D0524263EB43039463
S318080006C1EA050F00F0A780A4F10104D5F1200E0DDB02FA91
S318080006D40EFC22FA05F2801841F1000103FA0EF280184345
S318080006E7FA05F359410EE0A5F120050EF1200E012A03FA68
S318080006FA0EFC28BF4CF0020C43FA05F3C01851EBE3710106
S3180800070DF0004507D54FF0000EDCF1000C7EEB00006EEBD2
S318080007200101B1F5801F1BD3B1F5001F0CD349085FEA3015
S31808000733004FEA3C0C04F101044FEA445212F5800F80F055
S318080007469A80BCF1004F08BF5FEA500C50F1000041EB049F
S318080007595141EA050130BD5FEA4C0C404141EB010111F4BB
S3180800076C801FA4F10104E9D191F0000F04BF01460020B10E
S3180800077FFA81F308BF2033A3F10B03B3F120020CDA0C3245
S3180800079208DD02F1140CC2F10C0201FA0CF021FA02F10C7C
S318080007A5E002F11402D8BFC2F1200C01FA02F120FA0CFCC4
S318080007B8DCBF41EA0C019040E41AA2BF01EB045129433041
S318080007CBBD6FEA04041F3C1CDA0C340EDC04F11404C4F1B2
S318080007DE200220FA04F001FA02F340EA030021FA04F34556
S318080007F1EA030130BDC4F10C04C4F1200220FA02F001FA69
S3180800080404F340EA0300294630BD21FA04F0294630BD9454
S31808000817F0000F83F4801306BF81F480110134013D4EE744
S3180800082A7FEA645C18BF7FEA655C29D094EA050F08BF90A1
S3180800083DEA020F05D054EA000C04BF1946104630BD91EAA0
S31808000850030F1EBF0021002030BD5FEA545C05D140004912
S318080008634128BF41F0004130BD14F580043CBF01F58011DE
S3180800087630BD01F0004545F0FE4141F470014FF0000030B5
S31808000889BD7FEA645C1ABF194610467FEA655C1CBF0B4684
S3180800089C024650EA013406BF52EA033591EA030F41F40089
S318080008AF2130BD00BF90F0000F04BF0021704730B54FF409
S318080008C2806404F132044FF000054FF0000150E700BF90FC
S318080008D5F0000F04BF0021704730B54FF4806404F1320431
S318080008E810F0004548BF40424FF000013EE700BF42004F6C
S318080008FBEAE2014FEA31014FEA02701FBF12F07F4393F0D4
S3180800090E7F4F81F06051704792F0000F14BF93F07F4F70FC
S318080009214730B54FF4607401F0004521F0004120E700BF24
S3180800093450EA010208BF704730B54FF000050AE050EA0199
S318080009470208BF704730B511F0004502D5404261EB4101FD
S3180800095A4FF4806404F132045FEA915C3FF4DCAE4FF003F5
S3180800096D025FEADC0C18BF03325FEADC0C18BF033202EB00
S31808000980DC02C2F1200300FA03FC20FA02F001FA03FE4061
S31808000993EA0E0021FA02F11444C1E600BF70B54FF0FF0C10
S318080009A64CF4E06C1CEA11541DBF1CEA135594EA0C0F95C1
S318080009B9EA0C0F00F0DEF82C4481EA030621EA4C5123EAB9
S318080009CC4C5350EA013518BF52EA033541F4801143F48033
S318080009DF1338D0A0FB02CE4FF00005E1FB02E506F0004232
S318080009F2E0FB03E54FF00006E1FB03569CF0000F18BF4EE7
S31808000A05F0010EA4F1FF04B6F5007F64F5407404D25FEAE3
S31808000A184E0E6D4146EB060642EAC62141EA55514FEAC594
S31808000A2B2040EA5E504FEACE2EB4F1FD0C88BFBCF5E06F88
S31808000A3E1ED8BEF1004F08BF5FEA500E50F1000041EB04C4
S31808000A515170BD06F0004646EA010140EA020081EA0301FD
S31808000A64B4EB5C04C2BFD4EB0C0541EA045170BD41F480BF
S31808000A77114FF0000E013C00F3AB8014F1360FDEBF00209E
S31808000A8A01F0004170BDC4F10004203C35DA0C341BDC048D
S31808000A9DF11404C4F1200500FA05F320FA04F001FA05F263
S31808000AB040EA020001F0004221F0004110EBD37021FA0417
S31808000AC3F642EB06015EEA430E08BF20EAD37070BDC4F159
S31808000AD60C04C4F1200500FA04F320FA05F001FA04F240E4
S31808000AE9EA020001F0004110EBD37041F100015EEA430EC4
S31808000AFC08BF20EAD37070BDC4F1200500FA05F24EEA0293
S31808000B0F0E20FA04F301FA05F243EA020321FA04F001F082
S31808000B22004121FA04F220EA020000EBD3705EEA430E0885
S31808000B35BF20EAD37070BD94F0000F0FD101F0004640007C
S31808000B4841EB010111F4801F08BF013CF7D041EA06019528
S31808000B5BF0000F18BF704703F00046520043EB030313F426
S31808000B6E801F08BF013DF7D043EA0603704794EA0C0F0C69
S31808000B81EA135518BF95EA0C0F0CD050EA410618BF52EA20
S31808000B944306D1D181EA030101F000414FF0000070BD50F8
S31808000BA7EA410606BF1046194652EA430619D094EA0C0F7B
S31808000BBA02D150EA013613D195EA0C0F05D152EA03361CF1
S31808000BCDBF104619460AD181EA030101F0004141F0FE41A7
S31808000BE041F470014FF0000070BD41F0FE4141F478017054
S31808000BF3BD70B54FF0FF0C4CF4E06C1CEA11541DBF1CEADC
S31808000C06135594EA0C0F95EA0C0F00F0A7F8A4EB0504818A
S31808000C19EA030E52EA03354FEA013100F088804FEA033379
S31808000C2C4FF0805545EA131343EA12634FEA022245EA11FF
S31808000C3F1545EA10654FEA00260EF000419D4208BF9642BF
S31808000C5244F1FD0404F5407402D25B084FEA3202B61A65C5
S31808000C65EB03055B084FEA32024FF480104FF4002CB6EBC8
S31808000C78020E75EB030E22BFB61A754640EA0C005B084F86
S31808000C8BEA3202B6EB020E75EB030E22BFB61A754640EA72
S31808000C9E5C005B084FEA3202B6EB020E75EB030E22BFB650
S31808000CB11A754640EA9C005B084FEA3202B6EB020E75EBA6
S31808000CC4030E22BFB61A754640EADC0055EA060E18D04F02
S31808000CD7EA051545EA16754FEA06164FEAC30343EA5273F8
S31808000CEA4FEAC2025FEA1C1CC0D111F4801F0BD141EA002F
S31808000CFD014FF000004FF0004CB6E711F4801F04BF0143C3
S31808000D100020B4F1FD0C88BFBCF5E06F3FF6AFAEB5EB0378
S31808000D230C04BFB6EB020C5FEA500C50F1000041EB0451CA
S31808000D3670BD0EF0004E4EEA113114EB5C04C2BFD4EB0CFE
S31808000D490541EA045170BD41F480114FF0000E013C90E611
S31808000D5C45EA060E8DE60CEA135594EA0C0F08BF95EA0C77
S31808000D6F0F3FF43BAF94EA0C0F0AD150EA01347FF434AFFE
S31808000D8295EA0C0F7FF425AF104619462CE795EA0C0F0607
S31808000D95D152EA03353FF4FDAE1046194622E750EA4106DB
S31808000DA818BF52EA43067FF4C5AE50EA41047FF40DAF52E8
S31808000DBBEA43057FF4EBAE12E74FF0FF3C06E000BF4FF082
S31808000DCE010C02E000BF4FF0010C4DF804CD4FEA410C7FEF
S31808000DE1EA6C5C4FEA430C18BF7FEA6C5C1BD001B050EAD9
S31808000DF4410C0CBF52EA430C91EA030F02BF90EA020F0062
S31808000E0720704710F1000F91EA030F58BF994208BF9042CB
S31808000E1A2CBFD8176FEAE37040F0010070474FEA410C7F44
S31808000E2DEA6C5C02D150EA013C07D14FEA430C7FEA6C5C17
S31808000E40D6D152EA033CD3D05DF8040B704700BF84461018
S31808000E534662468C461946634600E000BF01B5FFF7B7FFB5
S31808000E66002848BF10F1000F01BD4DF808EDFFF7F4FF0C3F
S31808000E79BF012000205DF808FB00BF4DF808EDFFF7EAFF28
S31808000E8C34BF012000205DF808FB00BF4DF808EDFFF7E0EA
S31808000E9FFF94BF012000205DF808FB00BF4DF808EDFFF758
S31808000EB2CEFF94BF012000205DF808FB00BF4DF808EDFF6E
S31808000EC5F7C4FF34BF012000205DF808FB00BF4FEA41028B
S31808000ED812F5001215D211D56FF47873B3EB625212D94F39
S31808000EEBEAC12343F0004343EA505311F0004F23FA02F073
S31808000EFE18BF404270474FF00000704750EA013005D1117B
S31808000F11F0004008BF6FF0004070474FF00000704700BFBD
S31808000F244BB942B9002908BF002802D04FF0FF3108460006
S31808000F37F037B882B0EC462DE9005000F01BF8DDF804E034
S31808000F4A02B00CBC7047F8B5164604460D461F4600F02733
S31808000F5DF806FB01F300FB0737A6FB0023FB18A21A65EB6A
S31808000F700303069CC4E90023F8BD00BFF8B5164604460D14
S31808000F83461F4600F06FF900FB07F7A0FB062306FB017714
S31808000F96FB18A21A65EB0303069CC4E90023F8BD00BF70BF
S31808000FA94700BF00292DE9F00F1D46C0F29D800024002D60
S31808000FBCC0F2948080460F4694461E46E3BB8A4255D9B2AB
S31808000FCFFA82F747B1C7F1200520FA05F601FA07F1BA40B7
S31808000FE23143B840170CB1FBF7F6030C1FFA82FC07FB1608
S31808000FF5110CFB06F543EA01439D4208D9711E9B1880F0E5
S3180800100813819D4240F21081023E9B18591BB1FBF7F5078B
S3180800101BFB151380B20CFB05FC40EA03418C4507D96B1EAF
S3180800102E8A1880F00081944540F2FD80023D45EA064100D1
S318080010412503E08B420CD9002529460A462B4614B1524226
S3180800105463EB430310461946BDE8F00F7047B3FA83F500B2
S318080010672D40F087808B4201D38242EAD800250121E8E7C7
S3180800107A12B90126B6FBF2F2B2FA82F6002E39D18E1A13B7
S3180800108D0C1FFA82FC0125B6FBF3F703FB17614FEA1049D6
S318080010A00CFB07F849EA0146B04506D9791EB61802D2B0F2
S318080010B34500F2D3800F46C8EB0606B6FBF3F103FB116377
S318080010C680B20CFB01FC40EA03439C4506D94E1E9A180283
S318080010D9D2944500F2C280314641EA0741B1E7E4435242DA
S318080010EC63EB430366E7404261EB41014FF0FF345DE7B28A
S318080010FF40C6F1200921FA09F720FA09F5130C01FA06F16C
S31808001112B7FBF3F845EA01091FFA82FC03FB18774FEA1970
S31808001125410CFB08F541EA0747B040BD420AD9BF1808F149
S31808001138FF3680F08E80BD4240F28B80A8F10208BF1879B4
S3180800114B1BB1FBF3F503FB15171FFA89F90CFB05F649EADA
S3180800115E07418E4206D96F1E891871D28E426FD9023D8928
S31808001171188E1B45EA08458CE7C5F1200122FA01F306FAC6
S3180800118405F61E4327FA01F24FEA164907FA05F720FA012A
S31808001197F1B2FBF9F80F433B0C1FFA86FA09FB18220AFB33
S318080011AA08FB43EA024293450CFA05FC08D9921908F1FF4D
S318080011BD314AD2934548D9A8F102089219CBEB0203B3FB14
S318080011D0F9F109FB1132BFB20AFB01FA47EA02439A450601
S318080011E3D94A1E9B1933D29A4531D902399B1941EA0841A5
S318080011F60F0C1FFA8CF808FB07F68AB24FEA1C4C08FB023E
S31808001209F80CFB026202EB18420CFB07FC964288BF0CF5F0
S3180800121C803CCAEB03030CEB124C63450ED305D000250D55
S3180800122FE70E46EFE61D4601E71FFA88F800FA05F008EBC8
S318080012420245A842F1D201390025FEE63D468FE71146CD37
S31808001255E78846B7E7B04675E7023FB6182AE702393CE755
S318080012682DE9F007144605460E46002B3DD18A4249D9B286
S3180800127BFA82F747B1C7F1200120FA01F206FA07F6BC4008
S3180800128E1643BD40220CB6FBF2F02F0CA1B202FB10660126
S318080012A1FB00F347EA0646B34208D9471E361980F0F8804F
S318080012B4B34240F2F58002383619F61AB6FBF2F302FB133E
S318080012C762ADB201FB03F145EA0242914207D95E1E121988
S318080012DA80F0E580914240F2E280023B43EA00400021BD2F
S318080012EDE8F00770478B4243D8B3FA83F4002C42D18B4232
S3180800130002D3824200F2DF8000210120EEE712B90127B721
S31808001313FBF2F4B4FA84F2002A40F088800A1B230CA7B2A5
S318080013260121B2FBF3F603FB16224FEA154C07FB06F04CDA
S31808001339EA0242904207D9121906F1FF3C02D2904200F2BE
S3180800134CCE806646121AB2FBF3F003FB1023ADB207FB0038
S3180800135FF745EA03439F4207D9421E1B1980F09E809F423D
S3180800137240F29B80023840EA0640B6E700210846B3E7C4F9
S31808001385F1200622FA06F503FA04F32B434FEA134C21FA04
S3180800139806F501FA04F120FA06F6B5FBFCF746EA010A1F36
S318080013ABFA83F80CFB17554FEA1A4108FB07F941EA05452D
S318080013BEA94502FA04F203D97E1EED187FD33746C9EB0529
S318080013D101B1FBFCF60CFB16151FFA8AFA08FB06F84AEA58
S318080013E40541884503D9751EC91873D32E4646EA07463717
S318080013F70C1FFA82FC0CFB07F5120CB3B20CFB03FC02FBA9
S3180800140A035303EB1C4302FB07F29D4288BF02F58032C891
S3180800141DEB010102EB134291424BD342D0304600215DE7A1
S318080014309440C2F1200521FA05F6230C20FA05F701FA0297
S31808001443F1B6FBF3FC39430D0CA7B203FB1C6645EA06460E
S3180800145607FB0CF8B04500FA02F508D936190CF1FF303DF0
S31808001469D2B0453BD9ACF1020C3619C8EB0602B2FBF3F042
S3180800147C03FB10268AB242EA064207FB00F1914206D94680
S3180800148F1E121926D2914224D902381219521A40EA0C41E3
S318080014A241E738460AE733461CE7104663E71FFA8CFC00D5
S318080014B5FA04F00CEB03439842B4D2701E002112E721467C
S318080014C820460FE7A9457FF67DAF023FED187AE78845891B
S318080014DBD9023EC91887E73046DAE78446C4E7023E121971
S318080014EE2FE72DE9F041274C2568D5F8484184B0074600A9
S318080015012C41D066681F2E1CDD234810B94FF0FF301FE0D7
S318080015144FF4C870039102920193AFF300800399029A0124
S318080015279B04460028EFD0D5F84861002060602660C5F83E
S3180800153A4841C4F88801C4F88C01656847B9A81C0135446E
S3180800154DF820106560002004B0BDE8F081D4F888610120D0
S3180800156004EB850800FA05F00643022FC8F88820C4F888D9
S3180800157361C8F80831E6D1D4F88C3143EA0002C4F88C2125
S31808001586DFE705F5A674C5F84841B8E700BF8496000800A4
S3180800159900000008B50021044600F01DF9044B1868C16B08
S318080015AC01B18847204600F039FD00BF8496000870B511FA
S318080015BF4B114C181B811018D004EB81044E1E354654F810
S318080015D2042D06F00106904775B126B154F8043D98470189
S318080015E53D08D054F8040D8047013D54F8041D8847013DF4
S318080015F8F6D1BDE8704008F02DB900BF0000000000000019
S3180800160B00F8B5204F204C381B871017D07A1E236801251C
S3180800161E02F001069847AF420FD02EB154F8041F02258806
S3180800163147AF4208D0606880470235A268261D9047083462
S31808001644AF42F6D1134F144C08F000F93B1B9F1018D07DB0
S318080016571E216805F0010601258847AF4211D02EB154F8DD
S3180800166A040F02258047AF420BD0626890470235A3682689
S3180800167D1D98470834AF42F6D1F8BDF8BDF8BDF8BD00BFC9
S3180800169000000000000000000000000000000000F0B48411
S318080016A307034600F08E80541E002A00F08880E507CEB2D8
S318080016B611D41A46671E02F8016B1346154692070FD000B7
S318080016C92C7AD003F8016B9A073C461D4607D0013CEDE7B5
S318080016DC034603F8016B9A071D46F7D1032C52D9CEB24651
S318080016EFEA06270F2C47EA07432DD9A4F1100217460F2FC5
S31808001702C2F300162B606B60AB60EB6005F1100216D93E1A
S31808001715B1103F136053609360D36010320F2F0DD9203FA2
S3180800172802F11006136053609360D360136153619361D35C
S3180800173B6120320F2FF1D8A4F1100222F00F0204F00F0402
S3180800174E1032032C15441DD9271F3E462A46032E42F80411
S318080017613BC7F380070DD927B1043E032E42F8043B07D961
S318080017741746083E47F8043B53603A1D032EF7D8231F23C4
S31808001787F00302131D04F00304ED18B4B12B46C9B203F8D0
S3180800179A011B2C19ED436219A34202F001050BD01DB10399
S318080017ADF8011BA34206D01A4602F8011B5970531CA342B9
S318080017C0F8D1F0BC7047054614468DE7024B13B102480068
S318080017D3F049B9704700000000BD1500082DE9F04F9F4B33
S318080017E687B01A68049002F5A47003920D4605904FF001CD
S318080017F90A0399DDF81490D1F84841002C43D06268B2F1B2
S3180800180C010838D404F1880B1F320BEB820308F0010C004D
S3180800181F2D00F08C805BF82260AE4200F087801E1F08F18D
S31808001832FF37B8F1000F23D0BCF1000F0BD0002D00F0A25E
S318080018458053F8043CAB4200F09D80013F043E7B1C14D080
S31808001858B846E5B13768AF4219D008F1FF37A6F104080090
S3180800186B2D3FD056F8046CAE423BD0A8F1040607F1FF3895
S3180800187E002FEBD140F20002C0F20002002A40F0DA8007BB
S31808001891B0BDE8F08F6168CBEB0602A0184F1E474550F8E2
S318080018A4783C00F09280002240F8782C002BD6D0D4F8884A
S318080018B71167680AFA08F008423AD0D4F88C21104240F0E5
S318080018CA9780049856F8801C98476368BB428FD1D9F80088
S318080018DD10A1428BD108F1FF37A6F10408002DBFD1636841
S318080018F0CBEB0800591E2218B94252F8783C69D0002642CE
S31808001903F8786C002BB5D0D4F8880166680AFA07F20242D3
S3180800191636D0D4F88C110A4270D058F8800C98476368B37C
S31808001929427FF466AFD9F80000A0429FD060E79847CBE7D9
S3180800193C6268CBEB0300561E2118464551F8782C70D000A2
S3180800194F2041F8780C002A3FF46AAFD4F8880166680AFAFD
S3180800196208F1014237D0D4F88C01014255D153F8801C0474
S31808001975980293CDF804C09047029BDDF804C02FE09847A0
S31808001988CDE76168CBEB06002218481EB84252F8783C4C21
S3180800199BD0002142F8781C002B3FF454AFD4F88801D4F8EA
S318080019AE04800AFA07F2024229D19847636843457FF41C98
S318080019C1AFD9F80000A0423FF442AF15E7C4F804806DE7EF
S318080019D4676096E70293CDF804C09047029BDDF804C06221
S318080019E768B2427FF406AFD9F80010A1423FF41BAFFFE6B5
S318080019FA56F8800C984768E7049858F8801C98478CE7D416
S31808001A0DF88C110A4212D056F8800C9847CEE753F8800CB0
S31808001A200293CDF804C09047029BDDF804C0DAE7C4F804F9
S31808001A33808EE76760B3E7049856F8801C9847BAE761686D
S31808001A4649B9236843B12046C9F80030AFF30080D9F800B4
S31808001A5940D3E62368A1461C46CFE6849600080146002061
S31808001A6C02460346FFF73EBDF8B5044600F022FB002705A7
S31808001A7F46132630463946ABBE06462E602046F8BD0B4B1E
S31808001A92196810B5044609B18A6B4AB1132C0CD808485036
S31808001AA5F83430013307D000EBC40010BD084600F05AFBAA
S31808001AB8132CF2D9002010BD50050020200A0020431C00F8
S31808001ACBD07047FFF7D1BF00BF2DE9F047DFF8988084B0BE
S31808001ADE03270023CDF804800124039701AE0293204631B7
S31808001AF146ABBE81461C4DCDF8048004200397C5F80090A1
S31808001B04029020463146ABBE8246DFF86890CDF804800800
S31808001B17210397C9F800A0029120463146ABBE0446104B13
S31808001B2AD9F8006010481C60621C04BF1E6034464FF0FF1E
S31808001B3D31002303F10802C1501033A02B8150084AF7D12B
S31808001B5029689660002382E80A00D3601461536104B0BD89
S31808001B63E8F08700BF140A0020180A0020200A002088965B
S31808001B760008100A002030B585B001AD0190029103920685
S31808001B892420462946ABBE04462046FFF798FF05B030BDFA
S31808001B9C70B50E461546FFF775FF044658B1314600682A8E
S31808001BAF46FFF7E4FF411C03D06368281A1918616070BD9A
S31808001BC200F07DFA092202604FF0FF3070BDF0B583B00C8F
S31808001BD5461646FFF75AFF0546002834D0022E2BD8012E25
S31808001BE826D0022E11D06E462B680A278DE8180038463121
S31808001BFB46ABBE06463046FFF761FF002813DB6C602046BA
S31808001C0E03B0F0BD036802AE0C2746F8083D38463146ABE4
S31808001C21BE07463846FFF74FFF431C18BF2418DED14FF075
S31808001C34FF34E9E740682418D7D500F03FFA162101604FEC
S31808001C47F0FF34DFE700F038FA092202604FF0FF34D8E7B3
S31808001C5A00BFFFF7B8BF30B585B001AD01900291039205B7
S31808001C6D2420462946ABBE04462046FFF726FF05B030BD87
S31808001C8070B50E461546FFF703FF0446A8B1006831462ACB
S31808001C9346FFF7E4FF031E0BDB6268E81A11189D42616075
S31808001CA600D070BD0020BDE87040FFF7E0BE4FF0FF30F6B3
S31808001CB9E700F001FA092303604FF0FF3070BD30B583B0F6
S31808001CCC02AC022544F8040D28462146ABBE04462046FFE8
S31808001CDFF7F3FE03B030BD00BF38B50546FFF7D0FE044657
S31808001CF2A0B1013D012D07D92068FFF7E4FF10B94FF0FFCC
S31808001D0531216038BD084B9A6818698242F2D14FF0FF3348
S31808001D182360002038BD00F0CFF9092202604FF0FF303827
S31808001D2BBD200A0020012070470A4A08B5136873B11818D8
S31808001D3E6946884202D81060184608BD00F0B9F90C224F7F
S31808001D51F0FF330260184608BD024B1360EDE71C0A0020F0
S31808001D64080B002070B50C46FFF790FE054698B163684F82
S31808001D77F4806143F400506060E1620C2630462946ABBE6C
S31808001D8A05462846FFF79BFE421C1CBF2061002070BD00E9
S31808001D9DF090F9092202604FF0FF3070BD00BF38B50C4686
S31808001DB00546002120463C22FFF772FC28462146BDE838CC
S31808001DC340FFF7D0BF38B50C46054600213C222046FFF7D5
S31808001DD664FC2846002100F012F8411C05460CD063684371
S31808001DE9F4014161602146FFF7BAFF04462846FFF776FFA9
S31808001DFC204638BD0446FBE72DE9F0432E4D93B081460F62
S31808001E0F46002455F83430E600013312D00134E60055F833
S31808001E223400431C0CD00134142CF1D100F047F91821018F
S31808001E35604FF0FF34204613B0BDE8F08307F42062B2F555
S31808001E48206F2ED0BB0740F20163C7F3004803EA07034853
S31808001E5BBF48F002080BB148F00408380748BF28F00408FB
S31808001E6E484648BF48F00808CDF8009000F0FFFD0127CD40
S31808001E81F804800290E84638464146ABBE0746002F05DB3A
S31808001E94AE19002045F834707060CCE73846FFF7E7FD0486
S31808001EA746C7E7484603A9FFF78BFF0130CAD000F003F9B5
S31808001EBA112404604FF0FF34BAE7200A00200EB400B50199
S31808001ECD99FFF799FF5DF804EB03B0704700BF08B500F0B3
S31808001EE0EFF8582303604FF0FF3008BD30B583B00E24009F
S31808001EF39000F0C2FD01906D4620462946ABBE0446621C45
S31808001F0602D0002003B030BD2046FFF7B0FDF9E700BFF090
S31808001F19B505460C4638B10026112738463146ABBE074663
S31808001F2C2F606E6014B10023236063600020F0BD30B50057
S31808001F3F25102420462946ABBE0446204630BD00BF70B569
S31808001F5204460025102630462946ABBE06461CB126606577
S31808001F6560A560E560304670BD00BF70B5FFF78DFD044660
S31808001F78A0B1092528462146ABBE0446012C0BD000F09AAF
S31808001F8BF800240546132630462146ABBE06462E6020460F
S31808001F9E70BD204670BD00F08CF809230360204670BD309C
S31808001FB1B583B0C8B1009000F060FD122401906D462046F1
S31808001FC42946ABBE04462046FFF77CFDFF2808D838B10114
S31808001FD7464900C1F3072201D09042F9D1084603B030BD22
S31808001FEA0120FBE700BF30B585B00C46009000F040FD01EA
S31808001FFD902046029400F03BFD0F2403906D4620462946C1
S31808002010ABBE04462046FFF757FD002814BF4FF0FF3000E3
S318080020232005B030BD4FF0FF3100F000B8062930B509D0D6
S318080020362624C0F20204182528462146ABBE04462046302C
S31808002049BD2324C0F20204182528462146ABBE044620468F
S3180800205C30BD00BF002100F004B80F4B5B58435004310E07
S3180800206F480E4B42189A42FFF4F6AF0D4A00F003B80023BC
S3180800208242F8043B0B4B9A42FFF4F9AF0A48016841F47097
S31808002095010160FEF782F9FEF78EFA704700DF7498000831
S318080020A800000020E4090020F4090020080B002088ED0025
S318080020BBE0FFF7FEBF40F25053C2F200031868704700208E
S318080020CE70470020704745F63571C0F6000100F0DEB80045
S318080020E12310B504468181C2810360436083604366036171
S318080020F4436183611946082200F15C00FFF7CEFA42F6E592
S318080021071042F60D2142F6512242F67523C0F60000C0F65A
S3180800211A0001C0F60002C0F60003E46120626162A262E3C1
S3180800212D6210BD70B5682505FB01F50E4605F10C0100F073
S3180800214069F9044640B100F10C00002184E84200A0602AEB
S3180800215346FFF7A4FA204670BD49F28463C0F600031868A3
S31808002166FFF7B5BF00BF836B70B5044603B170BD0F4AC4D4
S31808002179F8E032E26301251A4604F53B7603230421C4F8BF
S3180800218CE4324068A563C4F8E862FFF7A3FFA06809212A72
S3180800219F46FFF79EFFE06812210222BDE87040FFF797BF06
S318080021B200BFD5200008274B70B51D68A96B064600293972
S318080021C5D005F538756868AC68431E16D4B4F90C20BAB10F
S318080021D8DA070DD56834013BB4F90C1041B90FE0B4F90CE0
S318080021EB3063B16834431EB4F90C203AB16834581E002B91
S318080021FEF3D12868F0B10546E0E700254FF6FF710120E1DD
S3180800221181A08165662560A560656025616561A56104F1A9
S318080022245C0029460822FFF739FA256365636564A5642039
S318080022374670BD2846FFF796FFC1E730460421FFF773FF6F
S3180800224A28600028D9D10C2434600446EEE78496000870A4
S3180800225D4700BF704700BF704700BF704700BF40F2505323
S31808002270C2F2000342F2CD011868C0F6000100F00DB800A8
S31808002283BF40F25053C2F2000342F2D1011868C0F60001B2
S3180800229600F001B800BF2DE9F04780468946FFF7DAFF18F6
S318080022A9F538784FD04FF0000AD8F80450D8F80840013D8D
S318080022BC3DD4B4F90C3005F001063BB1B4F90E00431C0302
S318080022CFD02046C8474AEA000A68346F1E6DB376B1B4F94E
S318080022E20C1039B1B4F90E20531C03D02046C8474AEA000F
S318080022F50A013F68347B1C1DD0B4F90C6004F168053EB1F4
S31808002308B4F90E300133204602D0C8474AEA000AB5F90C56
S3180800231B407E1E3CB1B5F90E707B1C284602D0C8474AEA92
S3180800232E000A05F16804771E002EE1D1D8F80080B8F100B4
S318080023410FB6D1FFF78CFF5046BDE8F087C246F8E700BF0C
S318080023542DE9F84F80468946FFF77EFF18F5387A53D04FD2
S31808002367F0000BDAF80450DAF80840013D41D4B4F90C30DE
S3180800237A05F0010643B1B4F90E00431C04D040462146C8AF
S3180800238D474BEA000B68346F1E85B37EB1B4F90C1041B15D
S318080023A0B4F90E20531C04D040462146C8474BEA000B01C1
S318080023B33F68347A1C1FD0B4F90C6004F1680546B1B4F98A
S318080023C60E3001332146404602D0C8474BEA000BB5F90CBC
S318080023D9407E1E44B1B5F90E707B1C4046294602D0C84779
S318080023EC4BEA000B05F16804771E002EDFD1DAF800A0BA8F
S318080023FFF1000FB2D1FFF72CFF5846BDE8F88FD346F8E757
S3180800241200BF2DE9F04F01F10B05162D83B0064627D9359C
S31808002425F0070527D4A94225D8304600F09EFAB5F5FC7F94
S3180800243823D2BA4F4FEAD50C07EBCC02D468944200F0DECB
S3180800244B816368E268A16823F003002318CA6058689160A5
S3180800245E40F001025A60304600F085FA0834204603B0BD79
S31808002471E8F08F1025A942D9D90C2434600024F4E75FEA05
S31808002484552C00F08B80BCF1040F00F255814FEA95170747
S31808002497F1380E4FEA4E01A14F07EB8101CC68A14205D114
S318080024AA0CE0002A7CDAE468A14207D0636823F00300427C
S318080024BD1B0F2AF4DD0EF1FF3E0EF1010C964B3C6903F117
S318080024D0080E744500F07581616821F003014A1B0F2A00BA
S318080024E3F35B81002AC3F814E0C3F810E069DAB1F5007F1D
S318080024F680F02F81CA0803EBC2014FF00109921009FA0232
S31808002509F95A688868E16049EA0209A060C3F804908C604C
S3180800251CC46001204FEAAC0400FA04F0484556D819EA00C4
S3180800252F0F07D12CF0030C400019EA000F0CF1040CF9D051
S3180800254207EBCC094C46E046E3689C4207D13AE1002A8033
S31808002555F26281DB689C4200F03481596821F003014A1B8F
S318080025680F2AF2DD1C465919D86854F808CF8A5045F00103
S3180800257B0542F00102CCF80C00C0F808C05D607961396184
S3180800258EC1F80CE0C1F808E04A60304600F0EBF965E74F57
S318080025A1EAD50E4FEA4E0179E72218E3685068A16840F0EE
S318080025B401005060CB609960304600F0D9F9083452E76123
S318080025C71830464B6843F001024A6000F0CFF9083448E7AF
S318080025DABC68606820F00309A94504D3C5EB09030F2B001D
S318080025EDF38D804D4A4E4B11681868013104EB090B05EB7F
S31808002600000300F05A8103F580500F3020F47F6121F00FD0
S318080026130C614630468DE8041000F0D0F9B0F1FF3F804696
S318080026269DE8041000F05281834500F20F81DFF800A1DA9B
S31808002639F80030C3456344CAF8003000F04A81126801324F
S3180800264C00F05781CBEB080B5B44CAF8003018F00701003B
S3180800265FF00B81C1F10800C1F58053804403F1080208EBE6
S318080026720C010805030DC3EB020B3046594600F09EF94383
S318080026851C00F04681C8EB00020BEB020141F00100DAF8AF
S318080026980030C7F808805B44BC42CAF80030C8F804001542
S318080026ABD0B9F10F0F40F2F2806168A9F10C0222F0070246
S318080026BEA01801F0010C42EA0C0E05210F2AC4F804E041BF
S318080026D160816000F21781154ABC681068834288BF1360A3
S318080026E4134A11688B4288BF1360636823F00300A842C5E8
S318080026F7EB000301D30F2B04DC304600F037F90024B0E696
S3180800270A621943F0010145F00105656030465160BA6000BD
S3180800271DF02AF90834A3E65405002060090020C80A0020CF
S31808002730C40A0020C00A0020CC0A0020BCF1140F7BD9BCDA
S31808002743F1540F00F28D804FEA153404F16E0E4FEA4E01A7
S31808002756A2E6480A042872D9142800F2AE8000F15B094F11
S31808002769EA490207EB8200DFF8F0818368834200F08180BD
S3180800277C5A6822F00302914202D29B689842F7D1DA68D7FE
S3180800278FF80490E260A360DC609460C0E6611942F00100D5
S318080027A245F001056560596119614860C1F80CE0C1F808D4
S318080027B5E08A50304600F0DBF8083454E6D3F80490AAE6AB
S318080027C808F10108083418F0030F7FF4BAAE49461CF0031F
S318080027DB0FA1F108040CF1FF3C00F0B0800968A142F4D0C0
S318080027EE7C684000A0423FF6F1AE00283FF4EEAE044200B3
S31808002801F0A780C4469CE604F108036469A34208BF0CF19D
S31808002814020C3FF458AE17E659181C464868DB6854F80845
S318080028272F40F001004860D3609A60304600F09EF818E661
S3180800283A0CF15B0E4FEA4E012CE64FEA911808F138094F12
S3180800284DEA49028CE7BC423FF4EEAE424CA468626822F07F
S31808002860030047E7BCF5AA7F1CD84FEAD53202F1770E4F51
S31808002873EA4E0112E64FF48052F8E6D8F804004FEAA90268
S31808002886012101FA02F242EA0009C8F804901A467CE701D3
S3180800289922C8F804204446002027E740F254539C4524D8AA
S318080028AC4FEA954000F17C0E4FEA4E01F1E503F1100CA96B
S318080028BFE654282CD84FEA113202F16E094FEA49024CE7F5
S318080028D2BC68616821F003000BE74FEA0B50010D00297FA8
S318080028E5F4B0AEB8680CEB090141F001044460F0E6FC2192
S318080028F84FF07E0ECFE51A48C0F80080A9E604F108011801
S3180800290B4C304603F02BFC2368E0E601204FF0000BBBE672
S3180800291EB0F5AA7F06D84FEAD13303F177094FEA49021C9B
S31808002931E740F2545398420FD84FEA914000F17C094FEA4B
S31808002944490211E77C6824EA00047C604EE7400008F104EB
S318080029570851E7FC224FF07E0904E700BF540500206009AF
S3180800296A0020CC0A0020704700BF704700BF0EB410B58340
S3180800297DB005AC816854F8042B2346019400F0A7F803B034
S31808002990BDE8104003B070470FB400B540F2505283B0C286
S318080029A3F2000204AB106853F8042B8168019300F093F886
S318080029B603B05DF804EB04B0704738B5074C0023054608E8
S318080029C9462360FFF7B2F9431C00D038BD21680029FBD0E2
S318080029DC296038BD040B002010B50C46B1F90E1004F0BE9C
S318080029EFFD002803DB226D1318236510BDA38923F48051A1
S31808002A02A18110BD00BF002070472DE9F0410C4689890182
S31808002A15F4807C0FFA8CFC074616461D46BCF1000F06D081
S31808002A28B4F90E100022022303F0B0FCA18921F48050B419
S31808002A3BF90E10A081324638462B46BDE8F04101F0FBBE5B
S31808002A4E00BF10B50C46B1F90E1003F09CFC421CA38904B0
S31808002A61D043F480512065A18110BD23F48052A28110BD2F
S31808002A74B1F90E1001F05ABF20F0030110F00300C0F100A7
S31808002A870051F8043B00F1040C4FEACC0C6FF000021CBF58
S31808002A9A22FA0CF213434FF0010C4CEA0C2C4CEA0C4CA3C0
S31808002AADEB0C0222EA030212EACC1204BF51F8043B0430A5
S31808002AC0F4D013F0FF0F1FBF013013F47F4F013013F47F85
S31808002AD30F18BF0130704700BF2DE9F04FC1B01D46069195
S31808002AE61446079003F03BFC00681090FFF7C3FF002112C1
S31808002AF9900020CDE9140107990C9519B18B6B002B00F025
S31808002B0C0981069A938903F4005001B239B90698426E43E5
S31808002B1FF4005322F400518381416603F0080002B2002A63
S31808002B3200F0BE8006990869002800F0B98003F01A020ADA
S31808002B452A00F0C080002130ABDFF874950D91049323934E
S31808002B5825912491169117910A91A3469A469BF80040006B
S31808002B6B2C00F0DC80252C00F0D9800BF1010501E0252A05
S31808002B7E04D02C4601352278002AF8D1CBEB04058DB1240C
S31808002B919B2598CAF800B05A1C4119072ACAF8045025918C
S31808002BA424920AF1080A00F3AF800A9841190A91237800F9
S31808002BB72B00F0948000264FF0FF3E94F8018009968DF8FB
S31808002BCA6B60059604F1010B20212B2276460BF1010BA889
S31808002BDDF12003582B00F2DD82DFE813F0ED02DB02DB027C
S31808002BF0F702DB02DB02DB02DB02DB02DB022403A100DBFA
S31808002C03025D00A600DB02C100300330033003300330030E
S31808002C163003300330033003DB02DB02DB02DB02DB02DBA5
S31808002C2902DB02DB02DB02DB028801C800DB02C800DB0241
S31808002C3CDB02DB02DB028101DB02DB02CD01DB02DB02DB41
S31808002C4F02DB02DB02E701DB02DB02FD01DB02DB02DB0271
S31808002C62DB02DB02DB02DB02DB02DB02DB02C602AA02C80A
S31808002C7500C800C800BF02AA02DB02DB025802DB026F02DF
S31808002C887D0291022202DB022902DB02FE02DB02DB021046
S31808002C9B0309980C9340420990059B43F0040005909BF8BB
S31808002CAE008092E70798069901F0D9FD00BB069B9B890384
S31808002CC1F01A020A2A7FF440AF0699B1F90E000028FFF6DC
S31808002CD43AAF079822462B4601F068FD0A900FE0259820C2
S31808002CE7B10798069923AA04F005FE06998A8902F0400332
S31808002CFA18B210B14FF0FF310A910A9841B0BDE8F08F0766
S31808002D0D98069923AA04F0F3FD0028EBD10DF1C00A46E7E4
S31808002D200846FFF723FAF2E65C4643E78DF86B209BF800EA
S31808002D338050E7584610F8018BB8F12A0F01F0FB84A8F1AB
S31808002D4630030026092B01F2838410F8018B06EB860603D1
S31808002D59EB4606A8F13003092B8346F4D946EAE67637E7E2
S31808002D6C059840F0800305939BF800802EE70C9DCDF83C8C
S31808002D7F80EA1D22F0070404F108010C91256864682A462B
S31808002D922346B6462846214643EC102BCDE91401CDF80CE0
S31808002DA5E004F083FC0128DDF80CC041F0AE8028462146BC
S31808002DB800220023FEF762F8002841F086839DF86B30BA1A
S31808002DCB4C059DBA4E0F980322002108920E914728CCBFD1
S31808002DDEB046A04625F080020321002405920B911194132E
S31808002DF1B10898441C0894059911F0020502D0089A901CAE
S31808002E040890059C14F0840640F0D282099F089BFF1A00FE
S31808002E172F40F3CC82102F41F3B4822598A54A249BCAF814
S31808002E2A0020102413920219581CA7F1110C0728CAF80455
S31808002E3D40CCF3001C259224900AF1080A00F3D285103F48
S31808002E50102F40F31D82BCF1000F12D0013049F28C611049
S31808002E6332C0F6000107288AE81200259224900AF1080A3A
S31808002E7600F3CE85103F102F40F3078218951996079D06A5
S31808002E899E12E0481C49F28C611032C0F6000107288AE872
S31808002E9C12000AF1080A2592249000F3E181103F102F4068
S31808002EAFF3ED81411C49F28C601032C0F6000007298AE883
S31808002EC21100A7F110070AF1080A25922491DCDD2846315E
S31808002ED54623AA04F010FD00287FF408AF259A24990DF1FC
S31808002EE8C00ACFE7059B43F0080005909BF800806EE6056D
S31808002EFB9BCDF83C80B64643F0100605960598860640F160
S31808002F0E1E810C9AD41D24F00700D0E9002308300C90148D
S31808002F21461D46002A73F10000C0F2E6870123BEF1000F57
S31808002F3403DB059E26F08002059254EA050240F03B83BEDB
S31808002F47F1000F40F03783002B40F03985059DE90740F1A3
S31808002F5A358540AC302004F8410D049B191B0B91A0460BB6
S31808002F6D9D9DF86B30CDF838E07545B8BF754600260895EA
S31808002F80119635E7059ACDF83C8042F010040594059B13BB
S31808002F93F02003B64600F0AC800C9BDC1D24F00701D1E97C
S31808002FA6004501F108060C96002300208DF86B00BBE70549
S31808002FB99CCDF83C8044F01005059505988506B64640F1A2
S31808002FCC13810C9DE81D20F0070101F108060C96D1E9002E
S31808002FDF450123E5E7059D3648CDF83C80A906B6461690AA
S31808002FF240F113810C9CE31D23F0070505F10800D5E90076
S31808003005450C900599CE0740F1E18454EA050300F0DD8429
S318080030180F9A41F00203302605938DF86C608DF86D200265
S3180800302B23C0E7059B43F0200005909BF80080CDE50C9DC4
S3180800303ECDF83C80B44600268DF86B60D5F800802C1DB832
S31808003051F1000F01F02982BCF1000F4046C1F25E81624646
S318080030643146CDF80CC003F01BFADDF80CC0002801F0DDA4
S3180800307782C8EB000363450B930E9641F3DA802CEAEC7016
S3180800308A08909DF86B300C94CDF82CC01196AAE69BF80042
S3180800309D80B8F16C0F5B4601F02281059840F010030593C1
S318080030B092E500BF9C960008A09600088C960008AC9600E5
S318080030C308E0960008059CA10640F1D4870C9A0A980C9CA2
S318080030D61368C117221D186059600C9240E5059BCDF83CB2
S318080030E98013F02003B6467FF454AF059D15F0100000F007
S318080030FCAF870C980568021D2C460C92002551E70C9C0C2C
S3180800310F9A05992568B646161DA44A0C964FF0780841F02B
S31808003122020330202C4605938DF86D8000258DF86C00168F
S31808003135920223CDF83C8038E70598CDF83C80B64686067C
S318080031483FF5E2AE059DED0640F1A2870C9805682C460C24
S3180800315B99E5170E1D22462B460C96DDE6059B43F0400042
S3180800316E05909BF8008030E50C9D0C9A2E68CDF83C80011C
S31808003181240021131D8DF86B1008940C938DF898600B9461
S318080031940DF1980800230E9311932BE64046CDF83C8000FC
S318080031A7283FF49CAD0125002401268DF8988008958DF833
S318080031BA6B400B960DF19808E9E79DF86B30002B40F0852A
S318080031CD878DF86B109BF80080FFE4059B43F001000590FB
S318080031E09BF80080F8E40598CDF83C808506B6463FF5ED19
S318080031F3AE0599CC0640F162870C9A131D0C93146800256D
S318080032060123D2E6059D674CCDF83C80A906B64616943F61
S31808003219F5EDAE059EF20640F143870C9E3168321D0C468A
S3180800322C00250C92EAE60C980C9B0068043300280990FF44
S3180800323FF62DAD9BF800800C93C6E458460023A8F13005B3
S3180800325210F8018BA8F1300403EB8303092C05EB43038398
S3180800326546F2D90993B7E42846314623AA04F043FB0028F4
S318080032787FF43BAD103F102F259A24980DF1C00A3FF713C0
S3180800328BAE189D199ED419431C139A072B8AE8840025942E
S3180800329E24930AF1080A40F387800798069923AA04F025ED
S318080032B1FB00287FF41DAD9DF86B10259C0DF1C00A0029DA
S318080032C47BD17DB1249A501C023402211BAB0728CAF80035
S318080032D730CAF80410259424900AF1080A00F33383802EFF
S318080032EA00F028820E9D0B982D1A002D40F3A880102D408F
S318080032FDF3F086249ACAF8009010270132A5F11103E41926
S31808003310072ACAF80470264E25942492C3F300130AF10886
S318080033230A00F3F782103D102D76DD7BB101321034072A62
S31808003336CAF80090CAF80470259424920AF1080A00F3F58A
S3180800334982103D102D65DD53462146C2463446DDF8188026
S3180800335C079E0CE0421CC3F800905F6010310833072A2486
S3180800336F92259141DC103D102D4CDD501CC3F800905F60AF
S3180800338210310833072825912490A5F11005E6DD304641F0
S318080033954623AA04F0B0FA00287FF4A8AC2599249830AB22
S318080033A8DAE700BFC0960008E0960008259C9DF86B1000D7
S318080033BB2983D0249A501C013401210DF16B030728CAF897
S318080033CE0030CAF80410259424900AF1080A7FF773AF07BF
S318080033E198069923AA04F089FA00287FF481AC259C0DF1C9
S318080033F4C00A66E73046414623AA04F07DFA00287FF4755C
S31808003407AC103D102D2599249A30ABB2DCD04626469A4627
S3180800341A0C46501C64190728CAF80060CAF8045025942412
S3180800342D900AF1080A0ADD0798069923AA04F05FFA00287A
S318080034407FF457AC259C0DF1C00A0599CA0500F1DE80248C
S31808003453990B9A0B98CAF80080A4184B1CCAF80400072B1A
S31808003466259424930AF1080A00F33C82059B5B077ED509B9
S318080034799D089AAD1A002D79DD102D62DD249910274B1CD2
S3180800348C49F28C66C0F60006A5F1110EE419072BCAF80090
S3180800349F60CAF80470CEF30018259424930AF1080A00F32D
S318080034B2C483103D102D4ADDB8F1000F11D0013349F28C6D
S318080034C5601034C0F60000072B8AE88100259424930AF1FC
S318080034D8080A00F3BC83103D102D35DD2246DDF81C8034E6
S318080034EB46069E10E0013349F28C611032C0F60001072B5F
S318080034FE8AE882000AF1080A2493259245DC103D102D5142
S31808003511DD013349F28C601032C0F60000072B8AE8810044
S31808003524A5F110050AF1080A25922493DEDD404631462385
S31808003537AA04F0E0F900287FF4D8AB259A249B0DF1C00A98
S3180800354AD1E7249BAC4E581C2C190728CAF80060CAF8041F
S3180800355D502594249008DD0798069923AA04F0C7F90028C4
S318080035707FF4BFAB259C0A99089A099B9A42ACBF8918C902
S31808003583180A91002C40F0BB81002424940DF1C00AFFF742
S31808003596E7BA4046314623AA04F0ADF900287FF4A5AB1014
S318080035A93D102D259A249B0DF1C00AADDC26461446C9E742
S318080035BC012B00F0F381022B00F0CF810DF1BF060722E71E
S318080035CF0804EA020047EA4577EB0830303C461D46C0B24C
S318080035E254EA0501B046307006F1FF36EED1059CE4074532
S318080035F54605D5302803D03021B04605F8011C049AC8EBB8
S3180800360802030B93AEE40F9A652A40F32381DDE914010082
S3180800361B220023FDF727FC002800F005822498764A431CB8
S3180800362E01340121072BCAF80020CAF80410259424930AC0
S31808003641F1080A00F352851C980D9B984203DB059AD3070E
S318080036547FF50DAF249B12981099CAF804005A1C24180794
S318080036672ACAF80010259424920AF1080A00F344860D9D63
S3180800367A013D002D7FF7F8AE102D40F3D08224990D9FCAB3
S3180800368DF8009010260131123FA4190729CAF80460DFF8F1
S318080036A0688125942491C7F300170AF1080A00F3B6861095
S318080036B33D102D40F3BA8287B1013110340729CAF80090DD
S318080036C6CAF80460259424910AF1080A00F3B286103D10BA
S318080036D92D40F3A8822246079F069C10E0411C10320729D7
S318080036ECCAF80090CAF804600AF1080A2491259200F36C6D
S318080036FF81103D102D40F3F084481C10320728CAF80090D1
S31808003712CAF80460A5F110050AF1080A25922490E0DD3858
S3180800372546214623AA04F0E7F800287FF4DFAA259A249897
S318080037380DF1C00AD3E7099D089AAD1A002D7FF7D2AD10AD
S3180800374B2D40F34F87249B2D4ECAF8009001331396102688
S3180800375EA5F11107A419072BCAF80460C7F30017259424D9
S31808003771930AF1080A00F36483103D102D55DD7FB101339D
S318080037841034072BCAF80090CAF80460259424930AF108C3
S318080037970A00F38083103D102D44DD2246079F069C0EE0C8
S318080037AA4B1C1032072BCAF80090CAF804600AF1080A247A
S318080037BD93259224DC103D102D30DD591C10320729CAF861
S318080037D00090CAF80460A5F110050AF1080A25922491E21C
S318080037E3DD3846214623AA04F087F800287FF47FAA259A40
S318080037F624990DF1C00AD5E700BF8C960008DC960008E02E
S318080038099600083846214623AA04F073F800287FF46BAA3F
S3180800381C103D102D259A249B0DF1C00ACEDC1446591C132F
S3180800382F98641907298AE82100259424910AF1080A7FF7AF
S3180800384255AD0798069923AA04F057F800287FF44FAA255C
S318080038559C0DF1C00A48E50D9D012D40F3FC82249ACAF8B8
S318080038680080551C01340123072DCAF804300AF1080A2599
S3180800387B94249500F31A83129B10980135E418072D8AE822
S3180800388E09000AF1080A2594249500F31A83DDE914010026
S318080038A1220023FDF7E4FA002840F04B810D9808F101022A
S318080038B4431E8AE80C00E4180135072D259424950AF10839
S318080038C70A00F3DB821799013564181FAA072DCAF8002045
S318080038DACAF804100AF1080A259424957FF7C4AD079806EC
S318080038ED9923AA04F004F800287FF4FCA90DF1C00A259C9B
S31808003900B7E50798069923AA03F0F8FF00283FF43DAEFFD0
S31808003913F7EEB907980699039323AA03F0EDFF039B0028AF
S318080039267FF4E4A9259C249A0DF1C00AF9E40798069923FB
S31808003939AA03F0DFFF00287FF4D7A9259C249A0DF1C00A90
S3180800394CFDE40798069923AA03F0D2FF00287FF4CAA92577
S3180800395F9C0DF1C00AC0E41698CDF820E00DF1BF010F26D9
S31808003972002704EA06028318240944EA057C2A098846643B
S31808003985461978154654EA050288F8001008F1FF31EDD133
S31808003998049DDDF820E0C8EB05060B96FFF7E2BA002D0872
S318080039ABBF0A2C80F05F8140AB303403F8414D049AD11A55
S318080039BE0B919846FFF7D3BACDF82CE00DF1C008FFF7CD91
S318080039D1BA0223FFF7ECBA3846214623AA03F08DFF002801
S318080039E47FF485A9259A24990DF1C00A86E607980699CD66
S318080039F7F80CC023AA03F07EFFDDF80CC000287FF474A955
S31808003A0A259A24980DF1C00AFFF71CBA0798069923AA037E
S31808003A1DF06EFF00287FF466A9259A24980DF1C00AFFF748
S31808003A3024BA1C9E002E40F366830D9D119B0D989D42A811
S31808003A43BF1D4608EB0001002D0B910DDD249ACAF8008099
S31808003A56531C6419072BCAF80450259424930AF1080A009E
S31808003A69F3CC84119825EAE575451B002D40F33681102D33
S31808003A7C40F31A81249B8B4FCAF8009010260133A5F1115F
S31808003A8F02A419072BCAF804600E9725942493C2F300171E
S31808003AA20AF1080A00F39F84103D102D40F3048187B10165
S31808003AB5331034072BCAF80090CAF80460259424930AF164
S31808003AC8080A00F3C484103D102D40F3F28021465246075B
S31808003ADB9F069C0DE0431CC2F80090566010310832072B90
S31808003AEE249325911BDC103D102D40F35B84581CC2F80089
S31808003B0190566010310832072825912490A5F11005E5DDDC
S31808003B143846214623AA03F0EFFE00287FF4E7A8259924F2
S31808003B279830AAD9E73846214623AA03F0E3FE00287FF42A
S31808003B3ADBA82599249B30AAD7E70D9E013E002E7FF7BF85
S31808003B4DAE102E40F3CB810D99564ACAF8009010270135E7
S31808003B60A1F11208E419072DCAF804700B9225942495C85A
S31808003B73F300180AF1080A00F30C84103E102E40F3B481A2
S31808003B86B8F1000F10D001351034072DCAF80090CAF804C0
S31808003B9970259424950AF1080A00F31384103E102E40F3D3
S31808003BACA0812346DDF81C80069C0FE001351033072DCAF5
S31808003BBFF80090CAF804700AF1080A259324951EDC103E61
S31808003BD2102E40F3A18301351033072DCAF80090CAF80478
S31808003BE570A6F110060AF1080A25932495E1DD4046214679
S31808003BF823AA03F07FFE00287FF477A8259B249D0DF1C076
S31808003C0B0AD4E74046214623AA03F072FE00287FF46AA809
S31808003C1E259B249D0DF1C00AD3E72499DFF8848064194B22
S31808003C311CCAF80080CAF8045013E40798069923AA03F009
S31808003C445BFE00287FF453A8259C249B0DF1C00A2EE4070F
S31808003C5798069923AA03F04EFE00287FF446A8259C249B00
S31808003C6A0DF1C00A36E40DF1BF067746204629460A2200D6
S31808003C7D23FDF751F930323270204629460A220023FDF7A9
S31808003C9049F904460D4654EA0501B04606F1FF36E9D10410
S31808003CA398C8EB0004BE460B94FFF75EB9E09600089549A5
S31808003CB6249B0E91591C0E98641907298AE8210025942457
S31808003CC9910AF1080A0ADD0798069923AA03F011FE002820
S31808003CDC7FF409A8259C0DF1C00A1C9B0D98119F83424702
S31808003CEF447CDB059AD10779D40B9E0D9AF61BD21AB24214
S31808003D02B8BF1646002E0DDD2499CAF80070481CA419079E
S31808003D1528CAF80460259424900AF1080A00F3A68326EA99
S31808003D28E671551A002D7FF7A0AB102D7FF778AF2498CA66
S31808003D3BF800901026411CA5F11107A4190729CAF804608B
S31808003D4EDFF8BC8125942491C7F300170AF1080A00F3976A
S31808003D6183103D102D7FF762AF87B1013110340729CAF80D
S31808003D740090CAF80460259424910AF1080A00F3B38310C4
S31808003D873D102D7FF750AF2246079F069C0FE0591C1032D6
S31808003D9A0729CAF80090CAF804600AF1080A249125923CAB
S31808003DADDC103D102D40F399814B1C1032072BCAF8009015
S31808003DC0CAF80460A5F110050AF1080A25922493E1DD38A0
S31808003DD346214623AA03F090FD00287EF488AF259A249B86
S31808003DE60DF1C00AD4E7249A10991298CAF80010241851C9
S31808003DF91C12980729CAF80400259424910AF1080A7FF7FC
S31808003E0C75AF0798069923AA03F072FD00287EF46AAF1C35
S31808003E1F9B259C0DF1C00A67E73846214623AA03F065FD09
S31808003E3200287EF45DAF259A24990DF1C00AB5E707980644
S31808003E459923AA03F058FD00287EF450AF259C249B0DF197
S31808003E58C00A8EE4059BDA073FF500AD2498CAF800804568
S31808003E6B1C01340121072DCAF804100AF1080A259424953A
S31808003E7E7FF725AD0798069923AA03F038FD00287EF430DE
S31808003E91AF0DF1C00A259C249D17E50798069923AA03F01D
S31808003EA42BFD00287EF423AF259C249B0DF1C00A72E407C4
S31808003EB798069923AA03F01EFD00287EF416AF259C249DF7
S31808003ECA0DF1C00AD8E40798069923AA03F011FD00287EA1
S31808003EDDF409AF259C249D0DF1C00AD8E408480B900B9B81
S31808003EF0A41901358AE84800E1E42D21644265EB45058D24
S31808003F03F86B100123FFF712B8E09600082A46234643ECC0
S31808003F16102BCDF80CC003F0C8FBDDF80C80002800F0721D
S31808003F2981B8F1FF3F00F0BC830F9F672F00F08883472F2B
S31808003F3C00F08583059A002C42F480711391C0F29683000B
S31808003F4F260E960F9F662F00F04F83462F00F04C83652FBA
S31808003F6200F09F83452F00F09C8347462A4623461DA81E60
S31808003F75A943EC102B009001913A4602210798CDF80C8063
S31808003F881CAB00F059FE0F9ADDF80CC0672A804601D04751
S31808003F9B2A03D1059EF00740F185830F9B462B08EB070619
S31808003FAE00F039832846214600220023CDF80CC0FCF75751
S31808003FC1FFDDF80CC0E8B91E9DAE4240F2E4832B46302495
S31808003FD403F8014BEA43B018B3421E9300F001010DD021FA
S31808003FE7B10133B3426C701E9307D01D4605F8014B5C7003
S31808003FFA6B1CB3421E93F7D11E460F9CC8EB0606672C0D43
S3180800400D9600F07A82472C00F077820F9A662A40F0BE830A
S318080040201C9A002A40F39783BCF1000F40F07C83059EF5CF
S318080040330700F1788322EAE27408940B9211920E9D002D63
S3180800404600F03E8213992D2400208DF86B4005910E90FE2A
S31808004059F7CBBE059911F0400300F015810C990C9C0E1DE6
S3180800406C24880C9603460025FEF79CBF0599CA0600F100C8
S3180800407F81059B5B0640F12A820C980A9A0368041D0C944D
S318080040921A80FEF767BD059A540640F1E7800C9BB3F90076
S318080040A540FFF758B805994B0640F1D7800C98051D0C95D6
S318080040B804880025FEF7A4BF059E700640F1C3800C990E9E
S318080040CB1D0C880C9601230025FEF76CBF9BF80080FEF710
S318080040DE7CBD249AB54EFFF79AB91446A0E507980699233E
S318080040F1AA03F003FC00287EF4FBAD259C0DF1C00AFFF751
S31808004104A1BA2498AC4A431C01340121072BCAF80020CAF9
S31808004117F80410259424930AF1080A00F3C680002E00F0A7
S3180800412ABA8024981299109ACAF80410431C6418072BCA7C
S3180800413DF800200AF1080A2594249300F389827642002EE8
S3180800415040F30B81102E40F3EF80102701339649CAF800A3
S3180800416390A6F11105E419072BCAF804700B91259424938D
S31808004176C5F300150AF1080A00F39982103E102E40F3D9A8
S318080041898085B101331034072BCAF80090CAF80470259474
S3180800419C24930AF1080A00F39482103E102E40F3C780200F
S318080041AF46079D069C10E001331030072BCAF80090CAF8B9
S318080041C204700AF1080A2590249300F38180103E102E402F
S318080041D5F3568201331030072BCAF80090CAF80470A6F139
S318080041E810060AF1080A25902493E0DD2846214623AA03C5
S318080041FBF07FFB00287EF477AD2598249B0DF1C00AD3E77D
S3180800420E6C4D6C4A0F990E9005989DF86B3003264729CCA8
S31808004221BF9046A8460E9D089620F08004032605940B96B9
S318080042341195FEF7DBBD0B9D9DF86B300C9425EAE5720850
S31808004247921196FEF7D1BD0C9A1368101D1C4600250C9029
S3180800425A0123FEF7A8BE0C9A131D14680C930025FEF7CDEC
S3180800426DBE0C990C680E1DE51722462B460C96FEF752BEB2
S318080042800C990A9C0B68081D0C901C60FEF76BBC0C9E322A
S3180800429368301D144600250C90FEF788BE0D9800287FF4BF
S318080042A642AF059BD8077FF5E1A83CE70798069923AA0359
S318080042B9F020FB00287EF418AD1C9E259C0DF1C00A002E09
S318080042CC7FF42EAFE6E72846214623AA03F010FB00287E6E
S318080042DFF408AD2598249B0DF1C00A71E7059893F80180D0
S318080042F240F020000BF1010B0590FEF76CBC079806992340
S31808004305AA03F0F9FA00287EF4F1AC259C0DF1C00AFFF751
S31808004318AFB91C46E7E5FEF7ADFB0B9020EAE0700E9608B0
S3180800432B909DF86B300C941196FEF75CBD1F4A0B92013322
S3180800433E0B9AA419072B8AE84400259424930AF1080A0B8C
S31808004351DD0798069923AA03F0D0FA00287EF4C8AC259CD7
S31808004364249B0DF1C00A0D9ACAF80080591CA4180729CA9D
S31808004377F804200AF1080A259424917FF776A8FFF7B0BA9A
S3180800438A0F49259A24981391FEF77DBF0798069923AA035C
S3180800439DF0AEFA00287EF4A6AC259C249D0DF1C00AFFF73B
S318080043B0E6BB92460C4680E4E0960008DC960008A496008B
S318080043C308A89600088C9600080798069923AA03F093FAD6
S318080043D600287EF48BAC259C249D0DF1C00AFFF7DFBB0714
S318080043E998069923AA03F085FA00287EF47DAC259C249BFA
S318080043FC0DF1C00AFFF753BB0798069923AA03F077FA0065
S3180800440F287EF46FAC259C0DF1C00AFFF727BB0798069938
S3180800442223AA03F06AFA00287EF462AC259C24990DF1C071
S318080044350AFFF73CB90798069923AA03F05CFA00287EF483
S3180800444854AC259C24990DF1C00AFFF740B90798069923BD
S3180800445BAA03F04EFA00287EF446AC259C249B0DF1C00A87
S3180800446EFFF72EBB0798069923AA03F040FA00287EF43844
S31808004481AC1C9D0D9B259C5A1B0DF1C00A4AE407980699A3
S3180800449423AA03F031FA00287EF429AC259C24990DF1C071
S318080044A70A5BE4BCF1060F34BF6646062626EAE6710B9616
S318080044BA08910C94DFF8EC82FEF769BE139A9DF86B300565
S318080044CD92FEF78FBC2D238DF86B30FEF777BC0C980A991D
S318080044E00468021D0C922160FEF73DBB0798069923AA0316
S318080044F3F003FA00287EF4FBAB259C24990DF1C00A3FE412
S318080045061C9AD11C134601DB94455FDA0F9A951E0F9501A9
S318080045193B0F9E1C93002B8DF87C60C0F233812B248DF824
S3180800452C7D40092B40F3DA8046F267660DF18A01C6F26644
S3180800453F6686FB0325DA17C2EBA50404EB84000A46A3EBB4
S31808004552400303F130011170511E092C2346EEDC30330D18
S31808004565F18B05D8B28D4202F8010C40F21681AC1AE607D8
S318080045780DF17D0113460DD513468DF87E000DF17E01137F
S3180800458BF8010B05E013F8014B747013F8010B711C4E1CDD
S3180800459EAB424870F5D140ADC2EB4506F63E1FAA0D9B0DFA
S318080045B198B41A1919012817940B9140F3D5800B9B591C3E
S318080045C421EAE17000260B910890119637E50D9DAA425770
S318080045D7DB059BD80700F19C8022EAE275672608950B9232
S318080045EA0F9628E56E48249B1390FFF71AB92A4623461D27
S318080045FDAF1EA843EC102B0097019042460798CDF80C801E
S3180800461003211CAB00F014FBDDF80CC0804600EB0C0667D4
S318080046234698F80010302965D01C9FF619BFE42CEAEC7122
S318080046360E9008919DF86B300C94CDF82CC01190FEF7D342
S31808004649BBB8F1000F08BF4FF0010874E483460026FEF792
S3180800465CBFBA0798069923AA03F04AF900287EF442AB1CE0
S3180800466F9E259C249B0DF1C00A68E52D2304F100440E93CD
S3180800468266E4044659E6002A0D9ED4BFC2F1020301239C64
S318080046951924EAE47067210B9408900F91CDE408F1010778
S318080046A861E44FF0060847E41E9EA7E40798069923AA03DF
S318080046BBF01FF900287EF417AB259C249B0DF1C00A59E5F4
S318080046CE0798069923AA03F012F900287EF40AAB259C248E
S318080046E19B0DF1C00A5EE5303330218DF87E108DF87F3017
S318080046F420AE59E72846214600220023CDF80CC0FCF7B445
S31808004707FBDDF80CC000288DD1C7F101071C978AE7541C1B
S3180800471A24EAE47067210B9408900F918BE40CF1010E0240
S3180800472DEB0E0020EAE0710B90089182E40C9B9BF80180C2
S318080047401E680433002E0C938346BEF645AA4FF0FF36FEF0
S31808004753F741BABCF1000F11D10598C4070ED401210891B0
S318080047660B916AE4059E16F001057FF426AF0B9A119522E4
S31808004779EAE274089460E40CF1020323EAE3750B9308955D
S3180800478C58E42D205B428DF87D00CAE62E4633E41C9BBB37
S3180800479FE60DF17E0602E700BFE0960008D49600082DE9E3
S318080047B2F0430C46ADF26C4DE769B1F80C90496EB4F80E03
S318080047C5C007971AAD676A19914FF480660095049529F0C3
S318080047D802090025694606958046ADF80C90ADF80EC009C3
S318080047EB9702960596FEF774F9051E07DB4046694601F056
S318080047FEA2FB002818BF4FF0FF35BDF80C3003F040000265
S31808004811B21AB1A18941F04003A38128461BB00DF5806D1F
S31808004824BDE8F08370B440F25054C2F2000406460D4620EA
S3180800483768134631462A4670BCFEF74CB938B5084C054606
S3180800484A084611461A4600232360FDF714FA431C00D03839
S3180800485DBD21680029FBD0296038BD040B002038B52F4BEC
S318080048701B6805460C4613B19A6B002A3DD0A38903F008E0
S318080048830002B219466AB12269CAB113F0010122D103F0F5
S31808004896020003B203B96169A16012B3002038BD03F010E6
S318080048A90002B212B301F0040108B228BB226943F0080319
S318080048BCA381002AE5D103F42070B0F5007FE0D0284621ED
S318080048CF4601F074FDA3892269D9E7606900214342A16039
S318080048E2A361002ADCD1A28902F0800003B2002BD6D04F68
S318080048F5F0FF3038BD1846FDF736FCBDE7216B49B104F1EB
S318080049084002914203D0284601F02AFCA38900212163232D
S3180800491BF02403226918040021030C61602260C5E7500549
S3180800492E002038B5074C0023054608462360FDF7D4F943C5
S318080049411C00D038BD21680029FBD0296038BD040B00204A
S318080049542DE9F04F03690C699C4283B0064600F36B81E0F0
S318080049671C82008F18B5187B6868685A1CB0FBF2F501F170
S3180800497A14030193013C043706F11408002D00F0BE804A41
S3180800498D69D8F80030DDF8049090B24FEA124C05FB00F06E
S318080049A005FB0CF202EB104C1FFA8CFE9AB280B2121ACE94
S318080049B3EB134303EB224E92B2C9EB070006F1180342EA07
S318080049C60E4901F11802974243F8049CC0F380004FEA1C31
S318080049D94C4FEA2E4E70D328B310681B6882B2000C05FB63
S318080049EC02CC05FB00F000EB1C401EFA83F21FFA8CFC1F58
S318080049FFFA80FECCEB0202CEEB134303EB224E1FFA82FC60
S31808004A1206F11C0301F11C024CEA0E4C974243F804CC4F9A
S31808004A25EA2E4E4FEA104C49D31046D3F8009050F804BBA1
S31808004A381FFA8BFA4FEA1B4B05FB0ACC05FB0BFA0AEB1C34
S31808004A4B4B1FFA8BFA1EFA89FE1FFA8CFCCCEB0E0ECAEB99
S31808004A5E194C0CEB2E4A99461FFA8EFE4EEA0A4C49F8040C
S31808004A71CB52685B681FFA82FE05FB0EFE4FEA124C0EEBA7
S31808004A841B4B05FB0CF202EB1B4C9AB21FFA8CFE02EB2A53
S31808004A97421FFA8BFBCBEB0202CEEB134303EB224E92B2B2
S31808004AAA4B4642EA0E49021D974243F8049B4FEA1C4C4F15
S31808004ABDEA2E4EB5D2201D06EB80035A68EAB9181D9845C3
S31808004AD019D250F8042CB2B9043BC8EB0300C21C50070DC0
S31808004AE3D5013C98450DD21A68043B3AB109E01868043B90
S31808004AF630B91A68013C043B12B9013C9845F5D334613046
S31808004B094602F025FA0028C0F28380019AD8F8003052F872
S31808004B1C040B1FFA83F981B2000CC1EB0901C0EB1343DD01
S31808004B2FF8049003EB2140434689B241EA0041C9EB070C93
S31808004B4201350014974243F8041BCCF380014BD3B9B152BB
S31808004B55F804EB19681FFA8EF91FFA81FAC9EB0A094FEAA3
S31808004B681E4C4844CCEB114101EB204180B240EA01404300
S31808004B7BF8040B0814974232D382461146D3F800E051F805
S31808004B8E040B1FFA8EFB1FFA80F94FEA104CC9EB0B0B0B59
S31808004BA1EB0A00CCEB1E4A0AEB20499E4680B240EA0940F8
S31808004BB44EF8040B50685B6882B21FFA83FC000CC2EB0C7F
S31808004BC70202EB2942C0EB134303EB224092B242EA004A68
S31808004BDA73460A1D974243F804AB4FEA204ACDD2211D0691
S31808004BEDEB8103586890B91A1D98450ED252F8041C59B9BF
S31808004C00043BC8EB0300C21C520713D5013C984502D21879
S31808004C1368043B68B13461284603B0BDE8F08F1A68043B25
S31808004C26002AF6D11968013C043B0029F1D1013C9845F387
S31808004C39D3EDE70020EDE72DE9F04F9DB081460291016C56
S31808004C4C269C059208935BEC10AB51B1436C012202FA037E
S31808004C5FF24B608A6001F086FD0020C9F84000BBF1000864
S31808004C723BDB0021216000231A46C7F6F073C7F6F072089F
S31808004C85EA0300904218D0002200235046594654465D46B0
S31808004C98FCF7EAF800282BD00898279D01230360002D00EB
S31808004CABF0D180A4494A1E2960049204981DB0BDE8F08FA6
S31808004CBE089D42F20F732B60BAF1000F00F0A8809D480434
S31808004CD190279D002DEED0049DEB78002B00F00E82294665
S31808004CE40831279D2960E4E728F0004801252560C346BF8B
S31808004CF7E7484645EC104B1BA91AAA02F0E9FAC8F30A5623
S31808004D0A0A90002E40F090801A9F1B9C6FF482613E198EE5
S31808004D1D42C0F239834FF60E42CFF6FF72901B06F2124401
S31808004D3008FA00F12AFA04F541EA0500FBF7BAFD01250152
S31808004D433EA1F1F8710B9500230022C3F6F873FBF771FCAE
S31808004D5674A3D3E90023FBF720FE73A3D3E90023FBF769E6
S31808004D69FC044630460D46FBF7B0FD70A3D3E90023FBF797
S31808004D7C11FE02460B4620462946FBF759FC04460D46FCB9
S31808004D8FF7A1F829460690002220460023FCF772F800283E
S31808004DA240F0C782069A162A00F2C082664C04EBC205D526
S31808004DB5E9000152465B46FCF780F8002800F0EF82069828
S31808004DC80022411E06911092BE1B013E00F1C88200240792
S31808004DDB960C94069D002DC0F2B582DDF81C800F9508EBC0
S31808004DEE050C0024CDF81CC00E94029D092D2BD8052D41E1
S31808004E01F34480281F0290002502998A1E032A23D8DFE8A9
S31808004E1412F0440530054A03410549494A4AC8F31308B8B6
S31808004E27F1000F18BF0A4604924FE72BF07F4323F4700211
S31808004E3A42F07F540025504644F44011A6F2FF361A9F0B7D
S31808004E4D957CE73F4D04952FE7002402940024C9F84440EE
S31808004E604846214601F060FC01254FF0FF3204900992C961
S31808004E73F84000119205940D951B9B002BC0F24081069915
S31808004E860E2900F33C812E4D05EBC10090ED007B05990062
S31808004E99298DED027BC0F20185DDE9022350465946FBF78E
S31808004EACA3FEFCF711F80646FBF70EFDDDE90223FBF770B2
S31808004EBFFD02460B4650465946FBF7B6FB099ADDF810805C
S31808004ED206F13003012A04460D4608F8013B00F09280008F
S31808004EE5230022C4F22403FBF758FD0022002304460D4661
S31808004EF8FBF7BAFF002840F0C180049F049E099802370630
S31808004F0BEB000BC7EB0B01C90700F1C880CDF814B0DDE979
S31808004F1E02AB4CE000BFAFF3008061436F63A787D23FB350
S31808004F31C8608B288AC63FFB799F501344D33FDD960008AE
S31808004F44FC96000818970008F0960008DC960008FBF724DD
S31808004F57FD0022002304460D46FBF786FF52465B46002882
S31808004F6A40F08B8020462946FBF73FFEFBF7ADFF0646FB02
S31808004F7DF7AAFC52465B46FBF70CFD02460B4620462946D4
S31808004F90FBF752FB303600230022C4F2240307F8016CFBD2
S31808004FA3F7FDFC00220023B84604460D4607F10107FBF72B
S31808004FB65CFF002863D152465B4620462946FBF716FEFB14
S31808004FC9F784FF0646FBF781FC52465B46FBF7E3FC024640
S31808004FDC0B4620462946FBF729FBDDF814C0002306F13085
S31808004FEF080022674507F8018C0446B8460D46C4F22403C7
S3180800500207F10107A5D122462B4620462946FBF714FB0464
S31808005015460D462246DDE902012B46FBF730FF40B9DDE95F
S31808005028020122462B46FBF71FFF38B3F50725D518F80189
S3180800503BBC049AD34308EB0300C00700F105851546BBF1A5
S3180800504E390F08F1FF3112D18D4200F03F8511F801BCBBE9
S31808005061F1390F884601F1FF3107D111F801BC8846BBF1ED
S31808005074390F08F1FF31ECD00BF10102D3B20B7048460A57
S318080050879901F074FB0698089D411C002288F80020296024
S3180800509A279D002D3FF40AAEC5F8008006E6DDE9022320E5
S318080050AD462946FBF7A0FDFBF70EFF0646FBF70BFCDDE994
S318080050C00223FBF76DFC02460B4620462946FBF7B3FA3012
S318080050D33600230022C4F2240307F8016CFBF75EFCB846AE
S318080050E6049F0022002304460D460337FBF7BDFE00283FD6
S318080050F9F40EAFC2E70498C11CF0E50D9F002F00F033816F
S3180800510C029C012C40F3F883099A0E9B571EBB42C0F2E8B1
S3180800511F84DD1B099C002CC0F237860C9C099FDDF830E07E
S31808005132079A0EEB07084846D7190121CDF83080079701FF
S31808005145F088FC0B9064B10799002909DD0C9B0846A0429F
S31808005158A8BF20461A1A0F1A0C92241A07970E9900291AA8
S3180800516BDD0D98002800F0AB84002D10DD0B992A4648469E
S3180800517E01F0DDFD0B900B990A9A484601F06FFC0A9906CF
S3180800519146484601F0EEFA0A960E9B5A1B40F0AB83012112
S318080051A4484601F057FC0F9D002D074605DD394648462AD9
S318080051B74601F0C0FD0746029A012A40F3598100250F9BF3
S318080051CA002B40F01A840121079BC91811F01F0000F0CF47
S318080051DD80C0F12002042A40F35586DDF83080079AC0F14B
S318080051F01C0308EB030CD118CDF830C0E41807910C9800A7
S318080052032805DD48460A990C9A01F0E0FD0A90079A002A76
S3180800521604DD3946484601F0D8FD0746109B002B40F0D29E
S3180800522983099B002B40F3F3830D99002940F0B780099892
S3180800523C0D9DC20740F1A28382460A9EDDF8108010E001C2
S3180800524FF09BFA39460646FFF77DFB303008F804003146A5
S3180800526248460A22002301F08EFA651C064639463046FF14
S31808005275F76EFB6C1C00F1300B0A220023A24531464846C9
S3180800528808F805B0DFDC0A96DDF81080099A0025012AACF1
S3180800529BBF904408F1010801220A99484601F092FD39460A
S318080052AE0A9001F052FE002840F34F8418F8012C0499C834
S318080052C14308EB0003DB0707D5392A08F1FF3018D110F859
S318080052D4012C04998046392A08F1FF3010D1814200F06C9E
S318080052E78310F8012C392A804600F1FF3006D110F8012C99
S318080052FA8046392A08F1FF30EED0013202704846394601D1
S3180800530DF032FA0B9B002B3FF4B6AE002D00F0E7829D4296
S3180800532000F0E4824846294601F024FADEE2012310934D36
S31808005333E50698FBF7CDFA22462B46FBF797FD00287FF423
S318080053462FAD0698411E06912AE50C98DDF818E00023CE65
S31808005359EB0001CEF100020C910E920F9347E576420023A0
S3180800536C0C96079335E50D980E9D0C9C0B90E6E61C230C20
S3180800537F99DDF81CC0C8180CEB030E0C90E418CDF81CE082
S3180800539235E74FF6EE35CFF6FF75AB1B0AFA03F0CBE410C1
S318080053A59013E5002C05DD48460B99224601F00DFD0B9021
S318080053B8002D40F005840B9E099D049A049B51190AF001FD
S318080053CB000B9DDDF828A007915C1C099039465046FFF7C8
S318080053DEBAFA29468046504601F0B7FD3946324683464882
S318080053F14601F0DFFDC168631E0246059308F1300C0029A0
S3180800540400F0878248461146CDF800C001F0B0F9DDF800B5
S31808005417C00120BBF1000FC0F27B8305D1029A1AB9099941
S3180800542A002900F07483002800F3E083079804F801CC84E7
S3180800543D42A04600F0E88351460A220023484601F09CF9D1
S31808005450B542824600F08E8229460A220023484601F092AD
S31808005463F9314605460A224846002301F08BF9013406469A
S31808005476AFE7BAF1000F7FF4A3AECBF31300594600284029
S31808005489F092840025C7F6F0750D40002D3FF497AE0C9B1C
S3180800549C07995A1C481C0C92079001258EE601230D9305DD
S318080054AF99002940F32C830C46119109910021172CC9F885
S318080054C244100AD9012204235B0003F1140011460132A0BB
S318080054D542F8D9C9F84410484601F023F90E2C0490C9F864
S318080054E840003FF6C7AC002D3FF4C4AC069F002FCDE9124F
S318080054FBAB40F34083994C07F00F0604EBC6003E11F10603
S3180800550ED0E9004540F1F882954F50465946D7E90823FBD4
S31808005521F768FB06F00F0682468B46032786B1DFF8388279
S3180800553420462946F20704D5D8E90023FBF72EFA01377603
S318080055471008F10808F4D104460D465046594622462B46BA
S3180800555AFBF74BFB82468B46109951B1002350465946005C
S3180800556D22C3F6F073FBF787FC002840F022843846FBF7FC
S31808005580A9F952465B46FBF70BFA00230022C4F21C03FB23
S31808005593F753F8099A0446A1F15075002A00F07682069EBB
S318080055A61996099E0D98002800F037836D4A002102EBC68C
S318080055B90353E902230020C3F6E071FBF716FB22462B4667
S318080055CCFBF734F8CDE9160159465046FBF77CFC0446FBEF
S318080055DFF779F902460B4650465946FBF725F83034DDF82C
S318080055F21080CDE914015FFA84FB08F801BBDDE91601DDEF
S31808005605E91423FBF75AFC002840F02F810021DDE91423F6
S318080056180020C3F6F071FBF70BF802460B46DDE91601FBD1
S3180800562BF749FC002840F00D84012E40F39F82049C6FEABD
S3180800563E0807A619BD19002305F001070022C4F22403DDAB
S31808005651E9160118961697FBF7A2F900230022C4F224032E
S3180800566404460D46DDE91401FBF798F90F460646FBF72E69
S31808005677FC8346FBF72BF902460B4630463946FAF7D7FFE2
S3180800568AC2460BF130025FFA82FB0AF801BB22462B460656
S3180800569D460F46D046FBF7EFFB002840F0E280002132460C
S318080056B03B460020C3F6F071FAF7BEFF22462B46FBF7E0C5
S318080056C3FB002840F0C28318998A4500F053821698002813
S318080056D642D000230022C4F2240320462946FBF75CF90063
S318080056E9230022C4F2240304460D4630463946FBF752F9AF
S318080056FC0F460646FBF7E8FB8046FBF7E5F802460B4630B9
S3180800570F463946FAF791FF08F130035FFA83FB0AF801BB72
S3180800572222462B4606460F46D046FBF7AAFB002840F09D4A
S3180800573580002132463B460020C3F6F071FAF779FF2246AE
S318080057482B46FBF79BFB002840F07D83DDF860E0F24500A3
S3180800575BF00D82CDF85090DDF8609050E018970008E097E6
S3180800576E000800210020C3F6F071FAF75EFF22462B46FB95
S31808005781F780FB00230022C4F22403002840F05C832046D6
S318080057942946FBF703F900230022C4F2240304460D4630A8
S318080057A7463946FBF7F9F80F460646FBF78FFB8046FBF764
S318080057BA8CF802460B4630463946FAF738FF08F130035F09
S318080057CDFA83FB0AF801BB22462B4606460F46FBF752FBCC
S318080057E0D04632463B46002840D100210020C3F6F071FA0B
S318080057F3F721FF22462B46FBF743FB002840F02383CA4568
S3180800580600F0B5810023204629460022C4F22403FBF7C3AF
S31808005819F800230022C4F2240304460D4630463946FBF7D0
S3180800582CB9F80F460646FBF74FFB8346FBF74CF802460B7B
S3180800583F4630463946FAF7F8FED0460BF130025FFA82FB0C
S3180800585208F801BB22462B4606460F46FBF711FBC24632C7
S31808005865463B46002881D0DDF850901998069006E40024D8
S318080058780D94059BDDF818E003EB0E0411940134002C09F2
S3180800588B943FF716AE0021C9F8441021E601220D92EDE79B
S3180800589E00200D9004E6099A002A3FF7FBAA40F0E98200FF
S318080058B1230022C4F21403DDE90201FBF770F852465B4668
S318080058C4FBF7F2FA099F0B97002800F0B880059ADDF810C7
S318080058D780D54306954846394600F048FF0B9B002B3FF435
S318080058EACCAB48460B9900F040FFFFF7C6BB48460A99011C
S318080058FDF01EFA0A904EE40B9D002D00F04B8203F23347B5
S318080059100E9D0C9C0BE411465046CDF800C0019201F01A24
S31808005923FB019A034611464846019300F021FF0198DDF88D
S3180800593600C000287FF46EAD029900297FF46AAD099B00E8
S318080059492B7FF466ADBCF1390FCDF828A0DA46E34600F0D1
S3180800595CF580BAF1000F01DD08F1310BDDF814800B9608D6
S3180800596FF801BBC9E4294648460A22002300F004FF013442
