:10000000FFC4000018C5000016C5000014C500009C
:1000100012C5000010C500000EC500000CC5000090
:100020000AC5000008C5000006C5000004C50000A0
:1000300002C5000000C50000FEC40000FCC40000B2
:10004000FAC40000F8C40000F6C40000F4C40000C4
:10005000F2C40000F0C40000EEC40000ECC40000D4
:10006000EAC40000E8C400000000250028002B00BE
:100070000000240027002A00FFE0FFD1AFFF32FF7D
:10008000D0FFFEFFE0FFD1AEFFD0FFFEFFE0FFD1CB
:100090001000FFFEFFD0FFE0FFC1FFD1AED580A86A
:1000A0003FD300408D142000A1C8DA1281CFD9F1CE
:1000B000DB402EA4A6AFFFD0FFFE01070E00FE0A14
:1000C000018A031E20FFFE0CFE0BFE0E0070321A8A
:1000D0007A80808080808080008080293474A0A015
:1000E000A0A0125A7A505050F85050F85050500179
:1000F0006B7B1078949450381494947810026A7A38
:100100006494987010203864A498026A7A30484841
:100110004830649488986439147480808080204DBD
:100120007D10204040808080808040402010104D15
:100130007D80402020101010101020204080135788
:100140007720A8702070A820135777202020F8204F
:100150002020202474C0404080165171F821337350
:1001600040E040006D7D040408081010102020407D
:10017000408080026A7A3048848484848484483051
:10018000125A7A2060A0202020202020F8026A7ACB
:10019000788484040808102040FC026A7AFC040871
:1001A00010380404848478026A7A08182828484899
:1001B00088FC0808026A7AFC8080F884040484843D
:1001C00078026A7A38408080B8C484848478026A6D
:1001D0007AFC040808101020204040026A7A7884D3
:1001E0008448304884848478026A7A788484848C51
:1001F000740484887022387840E040000040E04079
:10020000212878C0C00000C04040801259790810F1
:1002100020408040201008056474FC0000FC125946
:1002200079804020100810204080026A7A78848407
:1002300008101010001010026A7A38449CA4A4A47C
:10024000A49C403C026A7A3048848484FC84848480
:1002500084026A7AF0888488F088848488F0026A4C
:100260007A78848480808080848478026A7AF088B6
:1002700084848484848488F0026A7AFC808080F09C
:1002800080808080FC026A7AFC808080F0808080A0
:100290008080026A7A78848480809C84848C740252
:1002A0006A7A84848484FC8484848484125A7AF8EC
:1002B0002020202020202020F8026A7A1C0808082C
:1002C000080808888870026A7A848890A0C0A09084
:1002D000888484026A7A808080808080808080FC2C
:1002E000026A7A84CCCCB4B48484848484026A7A2A
:1002F0008484C4C4A4948C8C8484026A7A788484B0
:1003000084848484848478026A7AF884848484F877
:1003100080808080006C7C788484848484E4948CE5
:10032000780804026A7AF884848484F89088848443
:10033000026A7A78848480601804848478027A7AE5
:10034000FE101010101010101010026A7A848484AD
:1003500084848484848478026A7A84848484484887
:1003600048303030125A7A888888888888A8A8A8A7
:1003700050026A7A84844848303048488484125A4B
:100380007A88888850502020202020026A7AFC0435
:1003900008101020404080FC204D7DF0808080803F
:1003A00080808080808080F0006D7D808040402053
:1003B0002020101008080404104D7DF010101010BB
:1003C00010101010101010F00A6373304884006190
:1003D00071FC2A33738040200267777884047C8420
:1003E000847C026A7A808080B8C4848484C4B80221
:1003F000677778848080808478026A7A0404047441
:100400008C8484848C74026777788484FC808478FC
:10041000026A7A18242020F8202020202000697900
:10042000748888887040B88478026A7A808080B83E
:10043000C48484848484125A7A202000602020207E
:100440002020F8105C7C08080018080808080888B4
:100450008870026A7A8080808890A0E090888412F8
:100460005A7A602020202020202020F8125777D0B0
:10047000A8A8A8A8A888026777B8C48484848484BC
:1004800002677778848484848478006979B8C48426
:100490008484C4B88080006979748C8484848C746A
:1004A0000404026777B8C48480808080026777780C
:1004B000844030088478026A7A202020F8202020A6
:1004C00020241802677784848484848C741257777C
:1004D000888888505020201257778888A8A8A8A814
:1004E0005002677784844830488484006979848422
:1004F00084848C74048478026777FC081020204080
:10050000FC204D7D304040404040804040404040D5
:1005100030301D7D808080808080808080808080E1
:1005200080104D7DC0202020202010202020202061
:10053000C009647440A49408FFFFFFFFFFFFFFFFA2
:10054000FFFFFFFFFFFFFFFFFFFFFFFFFFFFFFFFBB
:10055000FFFFFFFFFFFFFFFFFF0E0070321A7A80E0
:100560008000808080808080800169792078A4A0CC
:10057000A0A0A4782012597930484040F04040F0C3
:1005800048046676847848487884125A7A885050AD
:1005900020F820F8202020321A7A80808080000005
:1005A00080808080026B7B788440304884483008AB
:1005B00084781B42729090026B7B7884B4CCC4C464
:1005C000C4CCB4847815587870887888986800F816
:1005D000026777142850A0502814125474F80808A1
:1005E00008164171F0026B7B7884F4CCCCF4CCCC4F
:1005F000CC84781B5171F819447460909060125645
:10060000762020F82020F816477760901020408050
:10061000F0164777609010601090602A3373204086
:100620008010587888888888D8A88080105C7C786A
:10063000A8A8A8A868282828282838371171802059
:10064000237340408026377740C040404040E0164A
:1006500046766090906000F0026777A050281428DA
:1006600050A0026A7A40C4484850242C549C84020A
:100670006A7A40C4484850283444889C026A7AC444
:10068000244830D0244C549C04006B7B2020002054
:1006900020202040848478026C7C20100030488424
:1006A00084FC84848484026C7C1020003048848420
:1006B000FC84848484026C7C30480030488484FC50
:1006C00084848484026C7C64980030488484FC8434
:1006D000848484026B7B480030488484FC84848456
:1006E00084026B7B304830488484FC848484840298
:1006F0006A7A3C509090FC909090909C006C7C7832
:100700008484808080808484781020026C7C201017
:1007100000FC808080F8808080FC026C7C102000CF
:10072000FC808080F8808080FC026C7C304800FC7B
:10073000808080F8808080FC026B7B4800FC808099
:1007400080F8808080FC125C7C402000F820202013
:1007500020202020F8125C7C102000F8202020208F
:10076000202020F8125C7C205000F820202020203F
:100770002020F8125B7B5000F82020202020202031
:10078000F8027A7A78444242F24242424478026C59
:100790007C649800C4C4A4A49494948C8C026C7C53
:1007A000201000788484848484848478026C7C1093
:1007B0002000788484848484848478026C7C30482B
:1007C00000788484848484848478026C7C649800B7
:1007D000788484848484848478026B7B4800788461
:1007E000848484848484780277778244281028441F
:1007F00082006E7E0404788C949494A4A4A4C4789B
:100800008080026C7C2010008484848484848484AE
:1008100078026C7C102000848484848484848478AE
:10082000026C7C30480084848484848484847802CC
:100830006B7B4800848484848484848478125C7C08
:10084000102000888850502020202020026A7A80C2
:1008500080F884848484F88080026A7A304848482A
:100860007048444444F8026A7A2010007884047C7A
:1008700084847C026A7A0810007884047C84847CF6
:10088000026A7A3048007884047C84847C026A7A24
:100890006498007884047C84847C026979480078B8
:1008A00084047C84847C026B7B3048300078840430
:1008B0007C84847C0277777C92325E90927C0069A3
:1008C00079788480808084781020026A7A201000F1
:1008D000788484FC808478026A7A1020007884848A
:1008E000FC808478026A7A304800788484FC8084B2
:1008F000780269794800788484FC808478125A7A76
:10090000402000602020202020F8125A7A10200079
:10091000602020202020F8125A7A60900060202069
:10092000202020F81259795000602020202020F843
:10093000125B7B5020500878888888888870026A0B
:100940007A649800B8C48484848484026A7A20100B
:100950000078848484848478026A7A102000788401
:100960008484848478026A7A304800788484848419
:100970008478026A7A649800788484848484780213
:1009800069794800788484848484780265753000AD
:10099000FC0030006B7B0408789494A4A4C4788095
:1009A00080026A7A20100084848484848C74026AB1
:1009B0007A10200084848484848C74026A7A30489B
:1009C0000084848484848C740269794800848484DB
:1009D00084848C74006C7C10200084844448283803
:1009E000109060006C7C808080B8C4848484C4B81B
:1009F0008080006B7B4800848444482838109060D5
:100A000011241FBECFEFD8E0DEBFCDBF11E0A0E0C4
:100A1000B1E0E0EDF7E102C005900D92A831B10719
:100A2000D9F711E0A8E1B1E001C01D92A23DB107E4
:100A3000E1F7A0D0CBC6E4CA90911A01911104C08D
:100A400080931A0160931801089510921A01109270
:100A500018010895809319011092B90084FF02C013
:100A60008CE001C088E48093B800EFCFA2E0B0E052
:100A7000EBE3F5E07BC620ED37E03A8329839091E4
:100A8000BC00982389F429813A81232B41F4809179
:100A9000190181FD09C081E0CFDF80E006C0298116
:100AA0003A8121503109E9CF81E02296E2E07AC60D
:100AB000CF93C82F84EA8093BC0061E080E8D6DF42
:100AC0008823F9F09091B900987F983021F0903107
:100AD00011F061E014C0C093BB0084E88093BC00B7
:100AE00062E080E8C3DF882361F08091190181FD15
:100AF0000AC08091B900887F883129F062E082E0E5
:100B00009BDF80E001C081E0CF9108958093BB001E
:100B100084E88093BC0063E080E8A8DF882361F06C
:100B20008091190181FD0AC08091B900887F8832C7
:100B300029F063E082E080DF80E0089581E008959D
:100B400084E98093BC0064E080E190CF61E080E0C4
:100B500057D080E03FD061E081E052D081E03AD0D0
:100B600040E060E071E08BE991E080D361E08BE9E7
:100B700091E0B3C380E880936100E8DF6AEB70E046
:100B80008BE991E066D28BE991E083D32EE031E0EE
:100B90004AE060E08BE991E0D8D18BE991E07DD328
:100BA0008111F4CF84E690E055D0E8CFA2E0B0E028
:100BB000EBEDF5E0DBC5860F911D860F911D42E040
:100BC00050E0BC01CE010196F8D589819A81229628
:100BD000E2E0E8C5CF93C82F682F669566956695C5
:100BE00080E790E0E3DFFC019081C77021E030E016
:100BF00001C0220FCA95EAF7922B9083CF910895F6
:100C0000CF93DF93C82FD62F682F6695669566958C
:100C100088E690E0CBDFFC01C7708FB7D1110CC024
:100C2000F894908121E030E00C2E01C0220F0A944C
:100C3000EAF72095922309C0F894908121E030E0F2
:100C400001C0220FCA95EAF7922B90838FBFDF91E4
:100C5000CF9108952EE93FE0009729F0F9013197EF
:100C6000F1F70197F9CF0895A0E0B0E0E9E3F6E0ED
:100C700076C58C01EB01B42E690180E1481779F14A
:100C8000841760F0EAE04E1334C042E0C80145D456
:100C900044E950E0BE01C80186D42BC0F1E14F17F2
:100CA00009F185E1481325C0EA80FB804CE850E05B
:100CB000C80179D4F7014481406BBE01C80161D4F9
:100CC00041E0BE01C80153D4AE01B801C701FBD356
:100CD0008823A9F040E0BE01C80129D40AC043E836
:100CE00050E002C048E750E0BE01C8015CD481E09A
:100CF00007C096014B2DBE01C80160D301C080E042
:100D0000CDB7DEB7E9E047C5FC01E60FF11D8491E0
:100D100090E0982F88273196E4918E0F911D0895C9
:100D2000FC0184910895FCDF882311F0823011F4D6
:100D300086E0089583E0089580E0089566E0E4CFBA
:100D400068E0E2CF0A96FC01849108950B96FC01BD
:100D500084910895A0E0B0E0EFEAF6E0FFC4EC0172
:100D6000D62E0C811D81C801DBDFE82EC801DBDF38
:100D7000A82E21E0E21619F0CC24CA9402C06FE03C
:100D8000C62EC801DFDFF82EC801E0DFB82EC8018B
:100D9000D7DFE0E6ED1540F4009731F09801280F19
:100DA000391F51E6F52E0FC0C801C8DFF0E49801E5
:100DB000FD1538F4009729F0280F391F41E4F42E6F
:100DC00002C02F5E3F4FBD1440F4188A1B8A1C8A54
:100DD000198A1A8A80E090E04CC0BF14B0F34A2D03
:100DE00050E0F90184918F3F19F42F5F3F4F3CC0D1
:100DF000FD1032C0A9014F5F5F4FEE2019F0F2E005
:100E0000EF1213C0F90184918B8BFA0144914C8B42
:100E1000F9013396E491E88BF9013496E491E98B7A
:100E2000F9013596E491EA8B15C0982F9F70925086
:100E30009A8B82958F70898BFA014491842F8F70E1
:100E40008C8B42954F704B8BF9013296E491E29571
:100E5000EF70E88BC9010DC0F9013296E491EC21E5
:100E60002E0F311D240F351FFB1409F4AECFF39460
:100E7000B8CFCDB7DEB7EAE08DC44F925F927F92D4
:100E80008F929F92AF92BF92CF92DF92EF92FF929A
:100E90000F931F93CF93DF931F92CDB7DEB72C0133
:100EA000162F742E622F56DF6C01009709F43BC099
:100EB000F2018481958137DFF82EF201838804895D
:100EC0009188910E8289781A172D101B282D412F99
:100ED000692DC20100D3882319F1CF0CD11CF7E092
:100EE0008F0E869486948694A82CB12C1715C1F089
:100EF000392D76018E2D8C19881570F4F701049127
:100F000020E0412F632FC2013983D6D1FFEFEF1AC2
:100F1000FF0A3981385FEECFCA0CDB1C1F5FE6CFBA
:100F2000F201808901C080E00F90DF91CF911F9185
:100F30000F91FF90EF90DF90CF90BF90AF909F9078
:100F40008F907F905F904F900895AF92BF92DF9205
:100F5000EF92FF920F931F93CF93DF9300D0CDB703
:100F6000DEB78C01E62EF42EDC015596ED91FC9156
:100F7000569729833A830995F80E2981A22E3A8142
:100F8000B32ED12CF50121915F01222339F04F2D91
:100F90006E2DC80172DFE80ED80EF4CF8D2D0F90A4
:100FA0000F90DF91CF911F910F91FF90EF90DF9005
:100FB000BF90AF900895DC0114968D919C91159788
:100FC000009709F43FC057962C915797FC012111C7
:100FD00008C03596E4915896EC935897FC013C96DE
:100FE00011C0213041F43F96E4915896EC93589704
:100FF000FC01709607C03D96E4915896EC93589783
:10100000FC013E96849159968C93599758968C91F1
:101010005897992787FD909559962C915997821B3F
:10102000910927FD93955A962C915A97203441F0B7
:10103000829FC0011124F6E096958795FA95E1F715
:101040005B968C9308952CE936E0FC01368B258B5A
:101050000895CF93DF93EC018C819D8186179707CC
:1010600041F07D836C83CE01A6DF8CE996E09E8BF8
:101070008D8BDF91CF9108951F93CF93DF93EC0178
:101080001D821C821F821E82198681E0888782E26F
:101090008A871F861E8680E090E02FEFFE01E80F12
:1010A000F91F23A301968E309105C1F711E018A313
:1010B000CE01C9DF1F8B188E198E80E48A8F1B8E9C
:1010C0008AE69AE09AAB89ABDF91CF911F910895A0
:1010D000DB01ED91FC9109950895EF92FF921F932A
:1010E000CF93DF9300D0CDB7DEB77C01DC01D19682
:1010F000ED91FC91D29782E069837A83099520E093
:1011000030E04AE069817A81C701E2DF182FD70118
:10111000D196ED91FC91D29783E00995D701D196B4
:10112000ED91FC91D29780E00995812F0F900F905F
:10113000DF91CF911F91FF90EF9008950F931F9330
:10114000CF93DF93EC018B01E9A9FAA982E009951D
:10115000E9A9FAA981E0099520E030E044E1B8016D
:10116000CE01B6DF9E012D5C3F4F47E1B801CE01B5
:10117000AFDFE9A9FAA980E00995DF91CF911F912E
:101180000F910895FF920F931F93CF93DF93EC017C
:101190008B01E9A9FAA982E00995E9A9FAA981E0F8
:1011A000099520E030E045E1B801CE0191DFF82E4D
:1011B000882339F09E012D5C3F4F47E1B801CE01F5
:1011C00087DFE9A9FAA980E009958F2DCDB7DEB7B1
:1011D000E5E0E5C2A1E0B0E0EFEEF8E0C7C29E01B5
:1011E0002F5F3F4F46E474DF89812196E2E0DAC247
:1011F000A1E0B0E0EDEFF8E0B9C29E012F5F3F4FF4
:1012000047E466DF89812196E2E0CCC220E030E04D
:1012100048E45ECFCF93DF93EC016A817B81DADF14
:1012200088836A817B81CE01E3DF89836A817B8148
:10123000CE01ECDF8B879E012D5C3F4F6A817B8165
:1012400047E1CE0145DFDF91CF910895CF93DF9342
:10125000EC016A817B8141DF882321F0CE01DADF56
:1012600081E001C080E0DF91CF910895A1E0B0E07E
:10127000EBE3F9E077C27C018B014983FDDEF701E6
:1012800013830283498146A7C701E0DF2196E6E088
:1012900085C2FC016281738151CFCF93DF93EC0152
:1012A000EE85FF85309709F009956A817B81CE0133
:1012B00069DFDF91CF9108950F93FC0182819381C3
:1012C000648F458F278F068F9F01245E3F4F4BE32E
:1012D000BC01CF01FDDE0F910895FC0160A30895CC
:1012E000DC011696ED91FC91179712968C91481B94
:1012F000477081E090E0042E01C0880F0A94EAF75D
:10130000E60FF11D3081222311F0832B02C080955E
:10131000832380830895FB014181DC0112962C9187
:101320001297421760F013962C911397241738F0F8
:10133000608115962C91621710F42481D1CF089505
:10134000CF92DF92FF920F931F93CF93DF9300D042
:10135000CDB7DEB78C016B01FB01F2808381813058
:1013600039F070F0823039F0833041F020E001C074
:1013700021E030E007C020E03FEF04C02FEFF9CFBD
:1013800020E031E0F7FE07C0B601C80129833A83A7
:10139000C2DF3A812981F6018081830F80838181B8
:1013A000820F8183FF0C71F70F900F90DF91CF9127
:1013B0001F910F91FF90DF90CF9008950F931F938F
:1013C000CF93DF938901FB01C281D3814233D9F0EE
:1013D00058F44531E1F0473109F1443141F5CE018E
:1013E0002ED0CE0196D123C04634E1F04734E1F04F
:1013F0004B33E9F4B901CE0157D08823C1F0B801CD
:10140000CE019EDF14C0B901CE0185DF10C0CE0130
:1014100087D1882371F0CE0112D009C0B901CE0165
:1014200033D005C08D8101C08981F801808381E0BE
:1014300001C080E0DF91CF911F910F910895DC01F1
:101440001696ED91FC91179715968C919F01280F98
:10145000311DC9011192E817F907E1F70895FC0160
:1014600091E08381861708F490E021E0461708F0A8
:1014700020E0322F392B81E05281451708F480E0BB
:1014800083239223892B0895DC01FB01108212969D
:101490008C911297818315968C9115978150828338
:1014A00013968C9183830895FB0141812381213020
:1014B00029F0233031F468EF640F04C0642F485FD3
:1014C00001C0642FCCCFFC01CB01BA01268137814A
:1014D000458161C008950F93FC010150040F84A958
:1014E00096A9941718F0081728F402C0081750F0AE
:1014F000041740F42150260F83A995A9961720F4CC
:10150000281720F480E007C0281720F481E0261770
:1015100010F0F8CF81E00F910895DB011496ED9162
:10152000FC91159720E030E061E009950895DB011A
:101530001496ED91FC91159720E030E063E0099559
:101540000895DB011496ED91FC91159720E030E0B1
:1015500040E064E009950895DB011496ED91FC915B
:10156000159720E030E041E064E009950895DB0143
:101570001496ED91FC91159720E030E062E009951A
:101580000895DB011496ED91FC91159720E030E071
:1015900065E009950895DB011496ED91FC9115978E
:1015A00066E009950895A1E0B0E0E8EDFAE0D6C064
:1015B0005C018B017A0180E0F7014491811108C040
:1015C0004F3FA1F1B801C501DCDF811128C033C054
:1015D0004F3FC1F34E3F89F1403F08F5403E28F0B0
:1015E0004F70B801C501C3DF1AC0403D28F04F70ED
:1015F000B801C5019CDF13C0403C98F0B801C5019B
:1016000049839FDF49814295407F4E5FC42ED12C94
:10161000C60120DBB801C5019FDFC6011BDB80E0EE
:1016200006C047FDFCCF842F90E0F8CF81E0FFEFAC
:10163000EF1AFF0AC1CF80E001C081E02196EAE005
:10164000A9C0CF93DF93EC018BA5882371F088E7C5
:101650002FDA882361F08EA1811105C057DA882323
:1016600031F01BA602C080E4F9CF81E001C080E028
:10167000DF91CF9108951F93CF93DF93142FE9014A
:101680006330B1F050F4613079F0623009F03AC063
:10169000FC0146A321E023A735C06630D9F06730AE
:1016A00021F1653079F50CC0FC0186A5D3D92AC09B
:1016B000FC0116A221E023A7411124C041DA22C077
:1016C000C0DF811102C03CDA1FC0812F1FDA8111F7
:1016D00019C0F9CFB6DF8823B1F3112399F08991AE
:1016E00015DA882381F31150F8CFABDF882359F343
:1016F000112341F0FE01849109DA882329F0219613
:101700001150F6CF81E001C080E0DF91CF911F91B1
:101710000895FC0112828081815083831482089590
:10172000FC0120818281820F82839181891760F47C
:1017300084818F5F84838381820F891710F08FEFFC
:10174000890F838381E0089580E008952F923F926E
:101750004F925F926F927F928F929F92AF92BF92C1
:10176000CF92DF92EF92FF920F931F93CF93DF936D
:10177000CDB7DEB7CA1BDB0B0FB6F894DEBF0FBECA
:10178000CDBF09942A88398848885F846E847D8417
:101790008C849B84AA84B984C884DF80EE80FD8019
:1017A0000C811B81AA81B981CE0FD11D0FB6F8948F
:1017B000DEBF0FBECDBFED010895FB01DC0102C00D
:1017C00005900D9241505040D8F70895F894FFCFFE
:1017D000340606013B0B0840000000801B014C69E9
:0817E00065736A65203C3300CB
:00000001FF
