S00F00006F75742F6D61696E2E733139B9
S3180800000000000220310C00084D020008590200086102005B
S3180800001308690200087102000800000000000000000000D6
S318080000260000000000007902000885020008000000009116
S318080000390200089D0200088D0C00088D0C00088D0C000812
S3180800004C8D0C00088D0C00088D0C00088D0C00088D0C0076
S3180800005F088D0C00088D0C00088D0C00088D0C00088D0C5B
S3180800007200088D0C00088D0C00088D0C00088D0C00088D54
S318080000850C00088D0C00088D0C00088D0C00088D0C0008C2
S318080000988D0C00088D0C00088D0C00088D0C00088D0C002A
S318080000AB088D0C00088D0C00088D0C00088D0C00088D0C0F
S318080000BE00088D0C00088D0C00088D0C00088D0C00088D08
S318080000D10C00088D0C00088D0C00088D0C00088D0C000876
S318080000E48D0C00088D0C00088D0C00088D0C00088D0C00DE
S318080000F7088D0C00088D0C00088D0C00088D0C00088D0CC3
S3180800010A00088D0C00088D0C00088D0C00088D0C00088DBB
S3180800011D0C00088D0C00088D0C00088D0C00088D0C000829
S318080001308D0C00088D0C00088D0C00088D0C00088D0C0091
S31808000143088D0C00088D0C00088D0C00088D0C00088D0C76
S3180800015600088D0C00088D0C00088D0C00088D0C00088D6F
S318080001690C00088D0C00088D0C00088D0C00088D0C0008DD
S3180800017C8D0C00088D0C00088D0C000810B5054C2378339B
S3180800018FB9044810B10448AFF300800121217010BD540443
S318080001A2002000000000FC04002008B5064B1BB1064806CE
S318080001B549AFF300800648016811B1054A02B1904708BDA7
S318080001C800000000FC040020580400204C0400200000000A
S318080001DB00154B002B08BF134B9D46A3F5803A00218B462C
S318080001EE0F461348144A121A00F02FFB0F4B002B00D098AF
S31808000201470E4B002B00D098470020002104460D46002064
S318080002140C490022002300F045FA00F0D1FA204629460070
S31808000227F081F900F093FA00BF0000080000000000000008
S3180800023A000000000000540400207404002075070008808F
S3180800024DB400AFBD4680BC704700BF80B400AFFEE700BFF1
S3180800026080B400AFFEE700BF80B400AFFEE700BF80B4003B
S31808000273AFFEE700BF80B400AFBD4680BC704700BF80B44B
S3180800028600AFBD4680BC704700BF80B400AFBD4680BC7061
S318080002994700BF80B400AF40F27043C2F200031B6803F148
S318080002AC010240F27043C2F200031A60BD4680BC70470022
S318080002BFBF80B500AF4FF46053C4F202034FF46052C4F21F
S318080002D20202126842F001021A604FF46053C4F202034FDE
S318080002E5F000029A604FF46053C4F202034FF46052C4F2B0
S318080002F80202126822F0847222F480321A604FF46053C463
S3180800030BF2020343F21002C2F200425A604FF46053C4F237
S3180800031E02034FF46052C4F20202126822F480221A604F0F
S31808000331F46053C4F202034FF00002DA6000F00BF84FF498
S318080003446D43CEF200034FF000629A6000F0C6F880BD009F
S31808000357BF80B483B000AF4FF000037B604FF000033B60B6
S3180800036A4FF46053C4F202034FF46052C4F2020212684256
S3180800037DF480321A604FF46053C4F202031B6803F40033E1
S318080003903B607B6803F101037B603B68002B03D17B68B3C3
S318080003A3F5A06FECD14FF46053C4F202031B6803F400331A
S318080003B6002B03D04FF001033B6002E04FF000033B603B50
S318080003C968012B40F082804FF46053C4F202034FF46052A7
S318080003DCC4F20202126C42F080521A644FF4E043C4F2002A
S318080003EF034FF4E042C4F20002126842F480421A604FF49E
S318080004026053C4F202034FF46052C4F2020292689A604F79
S31808000415F46053C4F202034FF46052C4F20202926842F485
S3180800042800429A604FF46053C4F202034FF46052C4F20219
S3180800043B02926842F4A0529A604FF46053C4F2020345F29A
S3180800044E0842C0F240725A604FF46053C4F202034FF460D1
S3180800046152C4F20202126842F080721A6000BF4FF46053A1
S31808000474C4F202031B6803F00073002BF6D04FF47053C408
S31808000487F2020340F205621A604FF46053C4F202034FF456
S3180800049A6052C4F20202926822F003029A604FF46053C410
S318080004ADF202034FF46052C4F20202926842F002029A605E
S318080004C000BF4FF46053C4F202039B6803F00C03082BF67D
S318080004D3D107F10C07BD4680BC704700BF80B483B000AF61
S318080004E641F22413C0F600037B6040F27443C2F200033B1C
S318080004F9600BE07B681A683B681A603B6803F104033B60DC
S3180800050C7B6803F104037B603A6840F2FC43C2F200039AB1
S3180800051F42ECD307F10C07BD4680BC704780B586B000AF9F
S318080005324FF46053C4F202034FF46052C4F20202126B4289
S31808000545F008021A634FF44063C4F202034FF44062C4F2E2
S318080005580202126842F080421A604FF44063C4F202034FA6
S3180800056BF44062C4F20202526822F400425A604FF440636D
S3180800057EC4F202034FF44062C4F20202926842F040429ABA
S31808000591604FF44063C4F202034FF44062C4F20202D2686F
S318080005A422F04042DA604FF44063C4F202034FF44062C41E
S318080005B7F20202126842F080721A604FF44063C4F2020374
S318080005CA4FF44062C4F20202526822F480525A604FF44092
S318080005DD63C4F202034FF44062C4F20202926842F0407262
S318080005F09A604FF44063C4F202034FF44062C4F20202D2DE
S318080006036822F04072DA604FF000037B604FF00003FB60B6
S318080006164FF000037B617B6803F101037B6007F1040318D8
S318080006294600F039FB4BF23930C0F2040000F02BFBB860BC
S3180800063C4FF000033B6108E04FF6A603C3F6FF63FB603B38
S3180800064F6903F101033B613A694AF21F13C0F207039A42E4
S31808000662EFDD7B696FEA03037B617B69002B07D04FF44023
S3180800067563C4F202034FF400425A61CCE74FF44063C4F2B7
S3180800068802034FF480525A61C4E700BFD00C00080000002E
S3180800069B204404002054040020740400202DE9F041274CEC
S318080006AE2568D5F8484184B00746002C41D066681F2E1C53
S318080006C1DD234810B94FF0FF301FE04FF4C87003910292F7
S318080006D40193AFF300800399029A019B04460028EFD0D575
S318080006E7F84861002060602660C5F84841C4F88801C4F8A4
S318080006FA8C01656847B9A81C013544F82010656000200436
S3180800070DB0BDE8F081D4F88861012004EB850800FA05F0C4
S318080007200643022FC8F88820C4F88861C8F80831E6D1D4AD
S31808000733F88C3143EA0002C4F88C21DFE705F5A674C5F8C1
S318080007464841B8E700BFB40C00080000000008B500210401
S318080007594600F01DF9044B1868C16B01B18847204600F061
S3180800076C5FFA00BFB40C000870B5114B114C181B811018D2
S3180800077FD004EB81044E1E354654F8042D06F001069047DD
S3180800079275B126B154F8043D9847013D08D054F8040D80EA
S318080007A547013D54F8041D8847013DF6D1BDE8704000F028
S318080007B885BA00BF0000000000000000F8B5204F204C3862
S318080007CB1B871017D07A1E2368012502F001069847AF4262
S318080007DE0FD02EB154F8041F02258847AF4208D0606880C6
S318080007F1470235A268261D90470834AF42F6D1134F144C8F
S3180800080400F058FA3B1B9F1018D07D1E216805F001060183
S31808000817258847AF4211D02EB154F8040F02258047AF42DD
S3180800082A0BD0626890470235A368261D98470834AF42F6AA
S3180800083DD1F8BDF8BDF8BDF8BD00BF000000000000000036
S318080008500000000000000000F0B48407034600F08E8054BD
S318080008631E002A00F08880E507CEB211D41A46671E02F804
S31808000876016B1346154692070FD0002C7AD003F8016B9A52
S31808000889073C461D4607D0013CEDE7034603F8016B9A0729
S3180800089C1D46F7D1032C52D9CEB246EA06270F2C47EA0766
S318080008AF432DD9A4F1100217460F2FC2F300162B606B607C
S318080008C2AB60EB6005F1100216D93EB1103F1360536093D1
S318080008D560D36010320F2F0DD9203F02F11006136053607B
S318080008E89360D360136153619361D36120320F2FF1D8A47C
S318080008FBF1100222F00F0204F00F041032032C15441DD9EF
S3180800090E271F3E462A46032E42F8043BC7F380070DD92796
S31808000921B1043E032E42F8043B07D91746083E47F8043B17
S3180800093453603A1D032EF7D8231F23F00302131D04F00317
S3180800094704ED18B4B12B46C9B203F8011B2C19ED4362192E
S3180800095AA34202F001050BD01DB103F8011BA34206D01A0A
S3180800096D4602F8011B5970531CA342F8D1F0BC7047054679
S3180800098014468DE7024B13B1024800F049B9704700000084
S3180800099300750700082DE9F04F9F4B87B01A68049002F53C
S318080009A6A47003920D4605904FF0010A0399DDF81490D16F
S318080009B9F84841002C43D06268B2F1010838D404F1880B53
S318080009CC1F320BEB820308F0010C002D00F08C805BF8229B
S318080009DF60AE4200F087801E1F08F1FF37B8F1000F23D099
S318080009F2BCF1000F0BD0002D00F0A28053F8043CAB420096
S31808000A05F09D80013F043E7B1C14D0B846E5B13768AF42A2
S31808000A1819D008F1FF37A6F10408002D3FD056F8046CAE5A
S31808000A2B423BD0A8F1040607F1FF38002FEBD140F200026C
S31808000A3EC0F20002002A40F0DA8007B0BDE8F08F6168CBC0
S31808000A51EB0602A0184F1E474550F8783C00F092800022C0
S31808000A6440F8782C002BD6D0D4F8881167680AFA08F0088C
S31808000A77423AD0D4F88C21104240F09780049856F8801C7A
S31808000A8A98476368BB428FD1D9F80010A1428BD108F1FF2C
S31808000A9D37A6F10408002DBFD16368CBEB0800591E221867
S31808000AB0B94252F8783C69D0002642F8786C002BB5D0D42B
S31808000AC3F8880166680AFA07F2024236D0D4F88C110A42C7
S31808000AD670D058F8800C98476368B3427FF466AFD9F800EB
S31808000AE900A0429FD060E79847CBE76268CBEB0300561ECC
S31808000AFC2118464551F8782C70D0002041F8780C002A3FA2
S31808000B0FF46AAFD4F8880166680AFA08F1014237D0D4F882
S31808000B228C01014255D153F8801C04980293CDF804C0908B
S31808000B3547029BDDF804C02FE09847CDE76168CBEB0600FB
S31808000B482218481EB84252F8783C4CD0002142F8781C00E9
S31808000B5B2B3FF454AFD4F88801D4F804800AFA07F2024232
S31808000B6E29D19847636843457FF41CAFD9F80000A0423F0A
S31808000B81F442AF15E7C4F804806DE7676096E70293CDF840
S31808000B9404C09047029BDDF804C06268B2427FF406AFD9B0
S31808000BA7F80010A1423FF41BAFFFE656F8800C984768E758
S31808000BBA049858F8801C98478CE7D4F88C110A4212D05653
S31808000BCDF8800C9847CEE753F8800C0293CDF804C0904723
S31808000BE0029BDDF804C0DAE7C4F804808EE76760B3E704E3
S31808000BF39856F8801C9847BAE7616849B9236843B120462F
S31808000C06C9F80030AFF30080D9F80040D3E62368A1461C62
S31808000C1946CFE6B40C00080146002002460346FFF73EBD0E
S31808000C2CFEE700BF002100F004B80F4B5B58435004310E53
S31808000C3F480E4B42189A42FFF4F6AF0D4A00F003B8002300
S31808000C5242F8043B0B4B9A42FFF4F9AF0A48016841F470DB
S31808000C65010160FFF72AFBFFF75EFC704700DFD00C000827
S31808000C780000002044040020540400207404002088ED004E
S31808000C8BE0FFF7FEBF01B40248844601BC604700BF950430
S31808000C9E002001B40248844601BC604700BF75040020434D
S30C08000CB100000018000020F6
S31108000CB8F8B500BFF8BC08BC9E467047A3
S31108000CC4F8B500BFF8BC08BC9E46704797
S31808000CD000000000007A030A000000000000000001020376
S31808000CE3040607080900000000040300206C030020D40341
S31808000CF600200000000000000000000000000000000000BD
S31808000D0900000000000000000000000000000000000000C9
S31808000D1CB00C0008000000000000000000000000000000F2
S31808000D2F00000000000000000000000000000000000000A3
S31808000D420000000000000000000000000000000000000090
S31808000D55000000000000000000000000000000000000007D
S31808000D68000000000000000000000000000000000000006A
S31808000D7B0000000000000000000000000000000000000057
S31808000D8E000001000000000000000E33CDAB34126DE6EC05
S31808000DA1DE05000B00000000000000000000000000000043
S31808000DB4000000000000000000000000000000000000001E
S31808000DC7000000000000000000000000000000000000000B
S31808000DDA00000000000000000000000000000000000000F8
S31808000DED00000000000000000000000000000000000000E5
S30E0800110B00000000001800002095
S30908001114AD01000813
S309080011188901000833
S3090800111C00000000C1
S309080011208509000827
S3180800112480B483B000AF78607B681B6803F101027B681A62
S318080011376007F10C07BD4680BC704700BF80B487B000AF5D
S3180800114A78604FF000037B617A684FF6FF739A4202D94FEF
S3180800115DF0804301E04FF480433B617A693B69D318FB606E
S318080011707A68FB689A4207D37A68FB68D31A7B60FA683BB9
S3180800118369D3187B617B694FEA53037B613B694FEA930359
S318080011963B613B69002BE4D17B69184607F11C07BD468038
S308080011A9BC7047C2
S309080011AC0000000031
S30D080011B0DCFCFF6701000000EA
S7050800052DC0
