S00F00006F75742F6D61696E2E733139B9
S31808000000000002204137000889010008950100089D01006F
S3180800001308A5010008AD0100080000000000000000000060
S31808000026000000000000A10A0008B501000800000000D573
S318080000390B0008250C00089D3700089D3700089D370008C6
S3180800004C9D3700089D3700089D3700089D3700089D37004F
S3180800005F089D3700089D3700089D3700089D3700089D3734
S3180800007200089D3700089D3700089D3700089D3700089D58
S318080000853700089D3700089D3700089D3700089D370008AB
S318080000989D3700089D3700089D3700089D3700089D370003
S318080000AB089D3700089D3700089D3700089D3700089D37E8
S318080000BE00089D3700089D3700089D3700089D3700089D0C
S318080000D13700089D3700089D3700089D3700089D3700085F
S318080000E49D3700089D3700089D3700089D3700089D3700B7
S318080000F7089D3700089D3700089D3700089D3700089D379C
S3180800010A00089D3700089D3700089D3700089D3700089DBF
S3180800011D3700089D3700089D3700089D3700089D37000812
S318080001309D3700089D3700089D3700089D3700089D37006A
S31808000143089D3700089D3700089D3700089D3700089D374F
S3180800015600089D3700089D3700089D3700089D3700089D73
S318080001693700089D3700089D3700089D3700089D370008C6
S3180800017C9D3700089D3700089D37000880B400AFBD468068
S3180800018FBC704700BF80B400AFFEE700BF80B400AFFEE7CE
S318080001A200BF80B400AFFEE700BF80B400AFFEE700BF80EF
S318080001B5B400AFBD4680BC704700BF80B58AB000AF78601B
S318080001C84FF00003FB6101F0DFFF42F6A043C2F201031BBB
S318080001DB68002B33D142F69043C2F2010340F29002C2F231
S318080001EE00021A6042F69043C2F201034FF000025A604274
S31808000201F69843C2F201034FF496325A6042F69843C2F2C7
S3180800021401034FF000021A6040F29003C2F200037B617B37
S31808000227694FF496325A607A6942F69843C2F20103136067
S3180800023A42F6A043C2F201034FF001021A607B68002B12F4
S3180800024DD044F29E23C0F600031B887A68D3187B607B68E2
S3180800026003F00703002B05D07B6823F0070303F108037B06
S31808000273607B68002B74D07A6842F6FF33C0F201039A42DA
S318080002866DD842F69043C2F201033B6242F69043C2F201F2
S31808000299031B687B6204E07B6A3B627B6A1B687B627B6A51
S318080002AC5A687B689A4203D27B6A1B68002BF1D17A6A4260
S318080002BFF69843C2F201039A424CD03B6A1A6844F29E237F
S318080002D2C0F600031B88D318FB617B6A1A683B6A1A607B67
S318080002E56A5A687B68D21A44F29E23C0F600031B884FEA71
S318080002F843039A4225D97A6A7B68D3183B617B6A5A687B55
S3180800030B68D21A3B695A607B6A7A685A603B695B68FB60DC
S3180800031E42F69043C2F20103BB6102E0BB691B68BB61BB7F
S31808000331691B685A68FB689A42F6D3BB691A683B691A6031
S31808000344BB693A691A6040F20003C2F200031A687B6A5BA9
S3180800035768D21A40F20003C2F200031A6001F026FFFB6951
S3180800036A002B01D100F063F8FB69184607F12807BD4680BE
S3180800037DBD00BF80B586B000AF78607B683B617B68002B64
S3180800039035D044F29E23C0F600031B88C3F100033A69D3C7
S318080003A3183B613B69FB6001F0F1FEFB685B68BB6042F62D
S318080003B69043C2F201037B6102E07B691B687B617B691B9B
S318080003C9685A68BB689A42F6D37B691A68FB681A607B69FA
S318080003DCFA681A60FB685A6840F20003C2F200031B68D2BE
S318080003EF1840F20003C2F200031A6001F0DBFE07F118078E
S31808000402BD4680BD00BF80B400AF40F20003C2F200031BF0
S31808000415681846BD4680BC704700BF80B400AFBD4680BC29
S31808000428704700BF80B400AFBD4680BC704700BF80B50070
S3180800043BAF00F0BCFBFEE700BF80B400AF42F6A843C2F2EC
S3180800044E01031B6803F1010242F6A843C2F201031A60BDFD
S318080004614680BC704700BF80B582B000AF7860396000F00B
S31808000474A1FBFEE780B483B000AF78607B6803F108027B9C
S31808000487685A607B684FF0FF329A607B6803F108027B6821
S3180800049ADA607B6803F108027B681A617B684FF000021A8A
S318080004AD6007F10C07BD4680BC704780B483B000AF7860DF
S318080004C07B684FF000021A6107F10C07BD4680BC7047007B
S318080004D3BF80B485B000AF786039607B685B68FB60FB685C
S318080004E65A683B685A607B685A683B689A60FB685B683A34
S318080004F9689A60FB683A685A607B683A685A603B687A68FD
S3180800050C1A617B681B6803F101027B681A6007F11407BDC9
S3180800051F4680BC704780B485B000AF786039603B681B68D3
S31808000532BB60BB68B3F1FF3F03D17B681B69FB600DE07B8A
S318080005456803F10803FB6002E0FB685B68FB60FB685B684A
S318080005581A68BB689A42F6D9FB685A683B685A603B685BB2
S3180800056B683A689A603B68FA689A60FB683A685A603B680A
S3180800057E7A681A617B681B6803F101027B681A6007F11439
S3180800059107BD4680BC704780B485B000AF78607B685B68B6
S318080005A47A6892689A607B689B687A6852685A607B681B26
S318080005B769FB60FB685A687B689A4203D17B689A68FB685F
S318080005CA5A607B684FF000021A61FB681B6803F1FF32FBB1
S318080005DD681A60FB681B68184607F11407BD4680BC7047CE
S318080005F080B500AF4FF46053C4F202034FF46052C4F202A8
S3180800060302126842F001021A604FF46053C4F202034FF0BB
S3180800061600029A604FF46053C4F202034FF46052C4F20269
S3180800062902126822F0847222F480321A604FF46053C4F23E
S3180800063C020343F21002C2F200425A604FF46053C4F202F3
S3180800064F034FF46052C4F20202126822F480221A604FF4E9
S318080006626053C4F202034FF00002DA6000F009F84FF46DED
S3180800067543CEF200034FF000629A6080BD00BF80B483B060
S3180800068800AF4FF000037B604FF000033B604FF46053C4EE
S3180800069BF202034FF46052C4F20202126842F480321A60BC
S318080006AE4FF46053C4F202031B6803F400333B607B68034C
S318080006C1F101037B603B68002B03D17B68B3F5A06FECD14F
S318080006D44FF46053C4F202031B6803F40033002B03D04F5A
S318080006E7F001033B6002E04FF000033B603B68012B40F0A5
S318080006FA82804FF46053C4F202034FF46052C4F20202126B
S3180800070D6C42F080521A644FF4E043C4F200034FF4E04259
S31808000720C4F20002126842F480421A604FF46053C4F20266
S31808000733034FF46052C4F2020292689A604FF46053C4F253
S3180800074602034FF46052C4F20202926842F400429A604F23
S31808000759F46053C4F202034FF46052C4F20202926842F43E
S3180800076CA0529A604FF46053C4F2020345F20842C0F2405C
S3180800077F725A604FF46053C4F202034FF46052C4F20202CD
S31808000792126842F080721A6000BF4FF46053C4F202031BA3
S318080007A56803F00073002BF6D04FF47053C4F2020340F281
S318080007B805621A604FF46053C4F202034FF46052C4F202E1
S318080007CB02926822F003029A604FF46053C4F202034FF40C
S318080007DE6052C4F20202926842F002029A6000BF4FF46002
S318080007F153C4F202039B6803F00C03082BF6D107F10C07CF
S31808000804BD4680BC704700BF80B500AF054803F087F84338
S31808000817F63000C4F202004FF0080103F043F880BD2043CC
S3180800082A000880B500AF4FF44060C4F202004FF001014F96
S3180800083DF000024FF4704303F0BBF880BD00BF80B586B0A5
S3180800085004AF4FF000037B60FFF7D8FFFFF7E6FF4FF000D0
S318080008630300934FF0000301934FF0000302934FF00003EF
S31808000876039340F6D900C0F6000044F2A021C0F600014F09
S31808000889F082024FF0000301F03CF84FF0010300934FF05E
S3180800089C000301934FF0000302934FF00003039340F6F5CA
S318080008AF00C0F6000044F2A821C0F600014FF082024FF0BA
S318080008C2000301F022F801F010FC7B6803F101037B60FA5A
S318080008D5E700BF80B485B000AF78604FF00003FB607B68EC
S318080008E8BB60FB6803F10103FB60FAE780B584B000AF78AD
S318080008FB6001F00CFD0346FB6007F10C0318464FF0FA013F
S3180800090E01F04DF942F6AC43C2F201031B78032B7DD8019B
S31808000921A252F823F000BF3909000875090008B109000865
S31808000934ED0900084FF44060C4F202004FF4805103F036CC
S31808000947F84FF44060C4F202004FF4604103F030F842F6C5
S3180800095AAC43C2F201031B7803F10103DAB242F6AC43C2D5
S3180800096DF201031A705BE04FF44060C4F202004FF400517F
S3180800098003F018F84FF44060C4F202004FF4504103F012DF
S31808000993F842F6AC43C2F201031B7803F10103DAB242F61D
S318080009A6AC43C2F201031A703DE04FF44060C4F202004FF8
S318080009B9F4804102F0FAFF4FF44060C4F202004FF430412E
S318080009CC02F0F4FF42F6AC43C2F201031B7803F10103DAE1
S318080009DFB242F6AC43C2F201031A701FE04FF44060C4F244
S318080009F202004FF4004102F0DCFF4FF44060C4F202004FA7
S31808000A05F4E04102F0D6FF42F6AC43C2F201034FF00002D4
S31808000A181A7007E042F6AC43C2F201034FF000021A706B37
S31808000A2BE76AE700BF80B485B000AFF860B9607A60FB68ED
S31808000A3EA3F10403FB60FB684FF080721A60FB68A3F10498
S31808000A5103FB60BA68FB681A60FB68A3F10403FB60FB686B
S31808000A644FF000021A60FB68A3F11403FB607A68FB681AEE
S31808000A7760FB68A3F10403FB60FB686FF002021A60FB6802
S31808000A8AA3F12003FB60FB68184607F11407BD4680BC70B6
S31808000A9D4700BF054B19680868B0E8F04F80F309884FF0D7
S31808000AB0000080F311887047B42C01207648006800688053
S31808000AC3F3088862B600DF00BF80B500AF4EF62053CEF27E
S31808000AD600034EF62052CEF20002126842F470021A604E9A
S31808000AE9F62053CEF200034EF62052CEF20002126842F09C
S31808000AFC70421A6000F0A2F840F21803C2F200034FF000E0
S31808000B0F021A6000F0B9F84EF63473CEF200034EF6347210
S31808000B22CEF20002126842F040421A60FFF7C5FF4FF0004F
S31808000B3503184680BD00BF80B400AFBD4680BC704700BFAA
S31808000B4880B400AF4EF60453CEF200034FF080521A60BD03
S31808000B5B4680BC704780B500AF00F028F840F21803C2F24B
S31808000B6E00031B6803F1010240F21803C2F200031A6080EB
S31808000B81BD00BF80B500AF40F21803C2F200031B6803F178
S31808000B94FF3240F21803C2F200031A6040F21803C2F20090
S31808000BA7031B68002B03D14FF0000000F00BF880BDEFF357
S31808000BBA11804FF0500181F3118870474FF0000318468015
S31808000BCDF31188704700BFEFF30980114B1A681EF0100F8F
S31808000BE008BF20ED108A20E9F04F10602DE908404FF050E1
S31808000BF30080F3118801F042FD4FF0000080F31188BDE8B5
S31808000C06084019680868B0E8F04F1EF0100F08BFB0EC101D
S31808000C198A80F309887047B42C012080B500AF4EF60453F5
S31808000C2CCEF200034FF080521A60FFF7BFFF01F031FC4F38
S31808000C3FF00000FFF7C3FF80BD80B400AF4EF21403CEF2B5
S31808000C52000340F20402C2F20002116844F6D352C1F262A3
S31808000C6502A2FB01024FEA921202F1FF321A604EF21003FE
S31808000C78CEF200034FF007021A60BD4680BC7047DFF810F9
S31808000C8B00016841F4700101607047000008ED00E088EDD7
S31808000C9E00E080B582B000AF786039607B68002B02D1FFEE
S31808000CB1F782FFFEE7FFF753FF7B681A687B68DB6B79680E
S31808000CC4096C01FB03F3D2187B685A607B684FF000029A63
S31808000CD7637B681A687B689A607B681A687B68DB6B03F1D5
S31808000CEAFF337968096C01FB03F3D2187B68DA607B684F36
S31808000CFDF0FF325A647B684FF0FF329A643B68002B0FD1F8
S31808000D107B681B69002B17D07B6803F11003184601F0CA46
S31808000D23FD0346012B0ED1FFF70DFF0BE07B6803F1100387
S31808000D361846FFF79EFB7B6803F124031846FFF798FBFFCB
S31808000D49F71CFF4FF00103184607F10807BD4680BD00BFD0
S31808000D5C80B588B000AFF860B9601346FB714FF00003FBE7
S31808000D6F61FB68002B2DD04FF05000FFF721FAB861BB699A
S31808000D82002B25D0FB68BA6802FB03F303F101037B61786C
S31808000D9569FFF713FA0246BB691A60BB691B68002B11D038
S31808000DA8BB69FA68DA63BB69BA681A64B8694FF00101FF42
S31808000DBBF771FFBB69FA7983F84D20BB69FB6102E0B869AE
S31808000DCEFFF7D7FAFB69002B02D1FFF7EEFEFEE7FB691898
S31808000DE14607F12007BD4680BD00BF80B584B000AF03462C
S31808000DF4FB714FF05000FFF7E1F9F860FB68002B3CD0FB26
S31808000E07684FF000025A60FB684FF000021A60FB684FF0A7
S31808000E1A00029A60FB684FF00002DA60FB684FF000029A9F
S31808000E2D63FB684FF00102DA63FB684FF000021A64FB68DA
S31808000E404FF0FF325A64FB684FF0FF329A64FB68FA798339
S31808000E53F84D20FB6803F110031846FFF70BFBFB6803F1FE
S31808000E6624031846FFF705FBF8684FF000014FF000024FC0
S31808000E79F0000300F092F8FB68002B02D1FFF797FEFEE71A
S31808000E8CFB68184607F11007BD4680BD90B585B000AF7894
S31808000E9F607B68002B02D1FFF787FEFEE77B685C6802F0F8
S31808000EB214F803469C4216D17B68DB6803F1FF327B68DAFD
S31808000EC5607B68DB68002B08D178684FF000014FF0000221
S31808000ED84FF0000300F062F84FF00103FB6002E04FF000AE
S31808000EEB03FB60FB68184607F11407BD4690BD00BF90B560
S31808000EFE85B000AF786039607B68002B02D1FFF754FEFE57
S31808000F11E77B685C6801F0E1FF03469C4209D17B68DB6839
S31808000F2403F101027B68DA604FF00103FB6011E078684FDA
S31808000F37F000013A684FF0000300F032F9F860FB68012BC2
S31808000F4A05D17B68DB6803F101027B68DA60FB68184607AE
S31808000F5DF11407BD4690BD80B584B000AF786039607868AE
S31808000F704FF000014FF00202FFF7F0FEF860FB68002B0211
S31808000F83D0FB683A689A63FB68002B02D1FFF712FEFEE72F
S31808000F96FB68184607F11007BD4680BD00BF80B588B000FE
S31808000FA9AFF860B9607A603B604FF00003FB61FB68002B66
S31808000FBC02D1FFF7FBFDFEE7BB68002B03D1FB681B6C0062
S31808000FCF2B02D14FF0010301E04FF00003002B03D1FFF7A8
S31808000FE2EAFDFEE700BFFFF7BAFDFB689A6BFB68DB6B9A0B
S31808000FF54218D2F868B9683A6800F07DFAFB685B6A002BD2
S318080010080AD0FB6803F12403184601F051FC0346012B015D
S3180800101BD1FFF794FDFFF7B0FD4FF001035DE07B68002B2B
S3180800102E04D1FFF7A8FD4FF0000355E0FB69002B07D1074C
S31808001041F11403184601F09FFC4FF00103FB61FFF798FD72
S3180800105401F09CF8FFF782FDFB685B6CB3F1FF3F03D1FBA6
S31808001067684FF000025A64FB689B6CB3F1FF3F03D1FB687E
S3180800107A4FF000029A64FFF780FD07F1140207F104031086
S3180800108D46194601F096FC0346002B1ED1F86800F036FB36
S318080010A00346002B12D0FB6803F110027B681046194601D7
S318080010B3F08FFBF86800F0AAFA01F07AF80346002B8FD177
S318080010C6FFF73FFD8CE7F86800F09FFA01F06FF886E7F8BE
S318080010D96800F099FA01F069F84FF00003184607F12007FA
S318080010ECBD4680BD80B586B000AFF860B9607A603B60FBA8
S318080010FF68002B02D1FFF758FDFEE7BB68002B03D1FB68B5
S318080011121B6C002B02D14FF0010301E04FF00003002B02A4
S31808001125D1FFF747FDFEE7FFF744FD3861FB689A6BFB681E
S31808001138DB6B9A4228D2F868B9683A6800F0DAF9FB689B96
S3180800114B6CB3F1FF3F14D1FB685B6A002B16D0FB6803F1C0
S3180800115E2403184601F0A9FB0346002B0DD07B68002B0AED
S31808001171D07B684FF001021A6005E0FB689B6C03F10102A8
S31808001184FB689A644FF001037B6102E04FF000037B613892
S3180800119769FFF718FD7B69184607F11807BD4680BD80B5F5
S318080011AA88B000AFF860B9607A603B604FF00003FB61FBBE
S318080011BD68002B02D1FFF7F9FCFEE7BB68002B03D1FB6856
S318080011D01B6C002B02D14FF0010301E04FF00003002B03E5
S318080011E3D1FFF7E8FCFEE700BFFFF7B8FCFB689B6B002B5E
S318080011F63FD0FB68DB68BB61F868B96800F0DDF93B68001D
S318080012092B1ED1FB689B6B03F1FF32FB689A63FB681B68D6
S3180800121C002B04D101F05CFE0246FB685A60FB681B69001A
S3180800122F2B1DD0FB6803F11003184601F03DFB0346012B20
S3180800124214D1FFF780FC11E0FB68BA69DA60FB685B6A005B
S318080012552B0AD0FB6803F12403184601F02AFB0346002B0D
S3180800126801D0FFF76DFCFFF789FC4FF001036BE07B680049
S3180800127B2B04D1FFF781FC4FF0000363E0FB69002B07D1F3
S3180800128E07F11003184601F078FB4FF00103FB61FFF7716C
S318080012A1FC00F075FFFFF75BFCFB685B6CB3F1FF3F03D19F
S318080012B4FB684FF000025A64FB689B6CB3F1FF3F03D1FB9C
S318080012C7684FF000029A64FFF759FC07F1100207F104030B
S318080012DA1046194601F06FFB0346002B2CD1F86800F0E141
S318080012EDF90346002B20D0FB681B68002B08D1FFF730FC77
S31808001300FB685B68184601F01DFEFFF73BFCFB6803F12494
S31808001313027B681046194601F05BFAF86800F076F900F02A
S3180800132646FF0346002B7FF45DAFFFF70AFC59E7F86800D2
S31808001339F06AF900F03AFF53E7F86800F064F900F034FF0D
S3180800134C4FF00003184607F12007BD4680BD00BF80B58607
S3180800135FB000AFF860B9607A60FB68002B02D1FFF723FC4D
S31808001372FEE7BB68002B03D1FB681B6C002B02D14FF0012B
S318080013850301E04FF00003002B02D1FFF712FCFEE7FFF744
S318080013980FFC3861FB689B6B002B2DD0F868B96800F00A84
S318080013ABF9FB689B6B03F1FF32FB689A63FB685B6CB3F16C
S318080013BEFF3F14D1FB681B69002B16D0FB6803F110031871
S318080013D14601F071FA0346002B0DD07B68002B0AD07B683D
S318080013E44FF001021A6005E0FB685B6C03F10102FB685A69
S318080013F7644FF001037B6102E04FF000037B613869FFF7BB
S3180800140AE0FB7B69184607F11807BD4680BD80B584B000E4
S3180800141DAF78607B68002B02D1FFF7C7FBFEE7FFF798FB20
S318080014307B689B6BFB60FFF7A5FBFB68184607F11007BD34
S318080014434680BD00BF80B584B000AF78607B68002B02D175
S31808001456FFF7AFFBFEE77B689B6BFB60FB68184607F110E3
S3180800146907BD4680BD00BF80B582B000AF78607B68002B60
S3180800147C02D1FFF79BFBFEE7786800F0A5F97B681B68181F
S3180800148F46FEF776FF7868FEF773FF07F10807BD4680BDFE
S318080014A200BF80B483B000AF78607B6893F84C301846072D
S318080014B5F10C07BD4680BC704700BF80B483B000AF78606F
S318080014C80B46FB707B68FA7883F84C2007F10C07BD46807D
S318080014DBBC704700BF80B483B000AF78607B6893F84D30E5
S318080014EE184607F10C07BD4680BC704700BF80B584B00056
S31808001501AFF860B9607A60FB681B6C002B0DD1FB681B68F6
S31808001514002B48D1FB685B68184601F07FFDFB684FF000DF
S31808001527025A603EE07B68002B1AD1FB689A68FB681B6C81
S3180800153A1046B9681A4602F08FFAFB689A68FB681B6CD21D
S3180800154D18FB689A60FB689A68FB685B689A4225D3FB6846
S318080015601A68FB689A6020E0FB68DA68FB681B6C1046B9ED
S31808001573681A4602F074FAFB68DA68FB681B6CC3F10003E9
S31808001586D218FB68DA60FB68DA68FB681B689A4208D2FB81
S31808001599685A68FB681B6CC3F10003D218FB68DA60FB687C
S318080015AC9B6B03F10102FB689A6307F11007BD4680BD0072
S318080015BFBF80B582B000AF786039607B681B68002B19D04B
S318080015D27B68DA687B681B6CD2187B68DA607B68DA687BC2
S318080015E5685B689A4203D37B681A687B68DA607B68DA6861
S318080015F87B681B6C386811461A4602F02EFA07F10807BD33
S3180800160B4680BD00BF80B582B000AF7860FFF7A2FA14E008
S3180800161E7B685B6A002B15D07B6803F12403184601F04363
S31808001631F90346002B01D001F020FA7B689B6C03F1FF3240
S318080016447B689A647B689B6C002BE6DC00E000BF7B684FFC
S31808001657F0FF329A64FFF792FAFFF77EFA14E07B681B6908
S3180800166A002B15D07B6803F11003184601F01FF9034600B5
S3180800167D2B01D001F0FCF97B685B6C03F1FF327B685A64FA
S318080016907B685B6C002BE6DC00E000BF7B684FF0FF325A56
S318080016A364FFF76EFA07F10807BD4680BD80B584B000AF05
S318080016B67860FFF752FA7B689B6B002B14BF00230123DBF0
S318080016C9B2FB60FFF75AFAFB68184607F11007BD4680BD99
S318080016DC80B584B000AF78607B68002B02D1FFF765FAFEC9
S318080016EFE77B689B6B002B14BF00230123DBB2FB60FB687A
S31808001702184607F11007BD4680BD80B584B000AF7860FF2A
S31808001715F724FA7B689A6B7B68DB6B9A4214BF0023012397
S31808001728DBB2FB60FFF72AFAFB68184607F11007BD46804B
S3180800173BBD80B584B000AF78607B68002B02D1FFF735FADA
S3180800174EFEE77B689A6B7B68DB6B9A4214BF00230123DBB3
S31808001761B2FB60FB68184607F11007BD4680BD80B485B0E1
S3180800177400AF786039604FF00003FB601FE042F61863C223
S31808001787F20103FA6853F83230002B12D142F61863C2F2C7
S3180800179A0103FA68396843F8321042F61862C2F20102FB46
S318080017AD684FEAC303D3187A685A6006E0FB6803F10103EC
S318080017C0FB60FB68072BDCD907F11407BD4680BC7047005A
S318080017D3BF80B485B000AF78604FF00003FB6019E042F678
S318080017E61862C2F20102FB684FEAC303D3185A687B689A25
S318080017F94209D142F61863C2F20103FA684FF0000143F86B
S3180800180C321006E0FB6803F10103FB60FB68072BE2D90786
S3180800181FF11407BD4680BC704780B582B000AF786039601F
S31808001832FFF795F97B685B6CB3F1FF3F03D17B684FF0008F
S31808001845025A647B689B6CB3F1FF3F03D17B684FF00002FE
S318080018589A64FFF793F97B689B6B002B06D17B6803F12409
S3180800186B031846396800F0F2FF7868FFF7CBFE07F10807D3
S3180800187EBD4680BD00BF90B585B000AF786042F6B043C25C
S31808001891F201031B68002B08D142F6B043C2F2010342F69E
S318080018A45C62C2F201021A6042F6B043C2F201031B68FBD3
S318080018B760EFF308842346BB6042F6B043C2F201031A6859
S318080018CA7B68D218BB689A4208D902F0B0F803464FF00C22
S318080018DD021A604FF0FF330CE042F6B043C2F201031A68AC
S318080018F07B68D21842F6B043C2F201031A60FB68184607E5
S31808001903F11407BD4690BD00BF80B58AB002AFF860B96017
S318080019163B601346FB80FB68002B02D1FFF749F9FEE7BB08
S318080019296A042B02D9FFF743F9FEE7FB881846396B01F09C
S3180800193C09FAB861BB69002B00F0B380BB691A6BFB8803CD
S3180800194FF1FF334FEA8303D3187B617B6923F007037B61F1
S318080019627B6903F00703002B02D0FFF724F9FEE7FB88000B
S3180800197593B869B968BA6A7B6B01F0C5F87869F9683A68E0
S31808001988FFF752F80246BB691A60FB6A002B02D0FB6ABA97
S3180800199B691A60FFF7DFF842F68C53C2F201031B6803F135
S318080019AE010242F68C53C2F201031A6042F6B443C2F201E8
S318080019C1031B68002B0FD142F6B443C2F20103BA691A60F0
S318080019D442F68C53C2F201031B68012B18D101F0CFF815BE
S318080019E7E042F69C53C2F201031B68002B0ED142F6B44364
S318080019FAC2F201031B68DA6ABB6A9A4205D842F6B443C27E
S31808001A0DF20103BA691A60BB69DA6A42F69453C2F20103E6
S31808001A201B689A4206D9BB69DA6A42F69453C2F201031A0E
S31808001A336042F6B053C2F201031A68BB691A6442F6B053E0
S31808001A46C2F201031B6803F1010242F6B053C2F201031A40
S31808001A5960BB69DA6A42F69853C2F201031B689A4206D98B
S31808001A6CBB69DA6A42F69853C2F201031A60BB69DA6A1321
S31808001A7F464FEA83039B184FEA830342F6B842C2F20102E6
S31808001A929A18BB6903F1040310461946FEF719FD4FF00162
S31808001AA503FB61FFF76CF802E04FF0FF33FB61FB69012B28
S31808001AB811D142F69C53C2F201031B68002B0AD042F6B4D8
S31808001ACB43C2F201031B68DA6ABB6A9A4201D2FFF735F841
S31808001ADEFB69184607F12007BD4680BD00BF80B584B0009E
S31808001AF1AF7860FFF734F842F6B443C2F201031B687A68DF
S31808001B049A4202D14FF000037B607B68002B05D142F6B424
S31808001B1743C2F201031B6800E07B68FB60FB6803F10403B3
S31808001B2A1846FEF734FDFB689B6A002B05D0FB6803F1183F
S31808001B3D031846FEF72AFDFB6803F1040342F66050C2F210
S31808001B5001001946FEF7BEFC42F67453C2F201031B680328
S31808001B63F1010242F67453C2F201031A6042F6B053C2F24D
S31808001B7601031B6803F1010242F6B053C2F201031A60FE65
S31808001B89F7FCFF42F69C53C2F201031B68002B04D07B6805
S31808001B9C002B01D1FEF7D2FF07F11007BD4680BD80B5865B
S31808001BAFB000AF786039604FF000037B617B68002B02D146
S31808001BC2FEF7F9FFFEE73B68002B02D1FEF7F3FFFEE700C3
S31808001BD5F0DCFA7B681A683B68D3183B617B681A6842F6FD
S31808001BE89053C2F201031B689A4210D97B681A683B699A56
S31808001BFB421BD942F69053C2F201031B683A699A4213D9D2
S31808001C0E4FF001037B610FE07B681A683B699A4207D842A1
S31808001C21F69053C2F201031B683A699A4202D94FF00103F1
S31808001C347B617B683A691A607B69002B0CD042F6B443C2D7
S31808001C47F201031B6803F104031846FEF7A1FC386901F086
S31808001C5A34F800F0AAFAF860FB68002B01D1FEF76EFF0788
S31808001C6DF11807BD4680BD80B584B000AF78604FF00003D4
S31808001C80FB607B68002B19D000F082FA42F69053C2F201B5
S31808001C93031A687B68D318BB6042F6B443C2F201031B6858
S31808001CA603F104031846FEF774FCB86801F007F800F07DE2
S31808001CB9FAF860FB68002B01D1FEF741FF07F11007BD4611
S31808001CCC80BD00BF80B584B000AF7860FEF742FF7B6800F2
S31808001CDF2B05D142F6B443C2F201031B6800E07B68FB605B
S31808001CF2FB68DB6ABB60FEF744FFBB68184607F11007BD89
S31808001D054680BD80B586B000AF786039604FF000037B6191
S31808001D183B68042B02D9FEF74BFFFEE73B68042B02D94FDD
S31808001D2BF004033B60FEF716FF42F6B443C2F201031B6891
S31808001D3E7A689A4202D14FF000037B607B68002B05D142B0
S31808001D51F6B443C2F201031B6800E07B683B613B699B6C3F
S31808001D64FB60FA683B689A4263D03A68FB689A4206D97BB4
S31808001D7768002B09D04FF001037B6105E07B68002B02D1FA
S31808001D8A4FF001037B613B69DB6ABB603B699A6C3B69DBEC
S31808001D9D6A9A4202D13B693A68DA623B693A689A643B68A3
S31808001DB0C3F105023B699A613B695969FA6813464FEA83DB
S31808001DC3039B184FEA830342F6B842C2F201029B18994213
S31808001DD629D13B6903F104031846FEF7DAFB3B69DA6A4201
S31808001DE9F69853C2F201031B689A4206D93B69DA6A42F6E2
S31808001DFC9853C2F201031A603B69DA6A13464FEA83039B0E
S31808001E0F184FEA830342F6B842C2F201029A183B6903F1A8
S31808001E22040310461946FEF754FB7B69012B01D1FEF7893F
S31808001E35FEFEF7A5FE07F11807BD4680BD00BF80B584B077
S31808001E4800AF7860FEF788FE42F6B443C2F201031B687A93
S31808001E5B689A4202D14FF000037B607B68002B05D142F616
S31808001E6EB443C2F201031B6800E07B68FB60FB6803F104A8
S31808001E81031846FEF788FBFB689B6A002B05D0FB6803F1A8
S31808001E9418031846FEF77EFBFB6803F1040342F67850C226
S31808001EA7F201001946FEF712FBFEF768FE7B68002B1FD16D
S31808001EBA42F69C53C2F201031B68002B02D0FEF73EFE1562
S31808001ECDE042F67853C2F201031A6842F68C53C2F2010308
S31808001EE01B689A4207D142F6B443C2F201034FF000021A68
S31808001EF36001E000F0C3FB07F11007BD4680BD00BF80B59C
S31808001F0684B000AF78604FF00003FB607B68BB607B680081
S31808001F192B02D1FEF74CFEFEE7BB685A6942F67853C2F2E8
S31808001F2C01039A420ED1BB689A6A42F64C53C2F201039A85
S31808001F3F4206D0BB689B6A002B02D14FF00103FB60FB6842
S31808001F52184607F11007BD4680BD80B584B000AF78607B56
S31808001F6568002B02D1FEF725FEFEE77B68FB60FB68002B2C
S31808001F7847D042F6B443C2F201031B68FA689A423FD0FE7C
S31808001F8BF7E9FDF868FFF7B8FF0346012B35D1FB6803F179
S31808001F9E04031846FEF7F9FAFB68DA6A42F69853C2F20156
S31808001FB1031B689A4206D9FB68DA6A42F69853C2F201034C
S31808001FC41A60FB68DA6A13464FEA83039B184FEA8303420F
S31808001FD7F6B842C2F201029A18FB6803F10403104619467D
S31808001FEAFEF773FAFB68DA6A42F6B443C2F201031B68DB88
S31808001FFD6A9A4201D3FEF7A1FDFEF7BDFD07F11007BD4655
S3180800201080BD00BF80B586B000AF78604FF000037B617B28
S3180800202368002B02D1FEF7C6FDFEE77B683B61FEF7C1FD67
S31808002036F8603869FFF763FF0346012B49D142F6A053C2BC
S31808002049F201031B68002B38D13B69DA6A42F6B443C2F2FE
S3180800205C01031B68DB6A9A4234BF00230123DBB27B613BDD
S3180800206F6903F104031846FEF78FFA3B69DA6A42F6985305
S31808002082C2F201031B689A4206D93B69DA6A42F69853C27A
S31808002095F201031A603B69DA6A13464FEA83039B184FEACE
S318080020A8830342F6B842C2F201029A183B6903F104031047
S318080020BB461946FEF709FA09E03B6903F1180342F64C50F7
S318080020CEC2F201001946FEF7FEF9F868FEF777FD7B69182C
S318080020E14607F11807BD4680BD00BF80B586B004AF4FF025
S318080020F4000300934FF0000301934FF0000302934FF00049
S3180800210703039342F6E920C0F6000044F2B421C0F6000165
S3180800211A4FF082024FF00003FFF7F3FB78607B68012B02D2
S3180800212DD100F0BFFF78607B68012B11D1FEF73DFD42F6E2
S318080021409C53C2F201034FF001021A6042F69053C2F2014B
S31808002153034FF000021A60FEF7B7FC7B68002B02D1FEF72F
S3180800216628FDFEE707F10807BD4680BD00BF80B500AFFE66
S31808002179F71EFD42F69C53C2F201034FF000021A60FEF7A4
S3180800218CD7FC80BD80B400AF42F6A053C2F201031B6803D6
S3180800219FF1010242F6A053C2F201031A60BD4680BC7047D8
S318080021B200BF90B583B000AF4FF000037B6042F6A053C21C
S318080021C5F201031B68002B02D1FEF7F3FCFEE7FEF7C4FC04
S318080021D842F6A053C2F201031B6803F1FF3242F6A053C26E
S318080021EBF201031A6042F6A053C2F201031B68002B40F0A2
S318080021FE848042F68C53C2F201031B68002B7CD04FF000B4
S31808002211033B603BE042F64C53C2F20103DB68DC6804F1E8
S3180800222418031846FEF7B6F904F104031846FEF7B1F9E2A1
S318080022376A42F69853C2F201031B689A4205D9E26A42F680
S3180800224A9853C2F201031A60E26A13464FEA83039B184FF0
S3180800225DEA830342F6B842C2F201029A1804F10403104603
S318080022701946FEF72FF9E26A42F6B443C2F201031B68DB40
S318080022836A9A4202D34FF001033B6042F64C53C2F20103B2
S318080022961B68002BBCD142F6A453C2F201031B68002B183F
S318080022A9D00DE000F0F8F842F6A453C2F201031B6803F119
S318080022BCFF3242F6A453C2F201031A6042F6A453C2F2018B
S318080022CF031B68002BEAD14FF001033B603B68012B06D0FF
S318080022E242F6A853C2F201031B68012B0BD14FF001037BA7
S318080022F56042F6A853C2F201034FF000021A60FEF720FCB1
S31808002308FEF73CFC7B68184607F10C07BD4690BD80B58234
S3180800231BB000AFFEF71FFC42F69053C2F201031B687B6001
S3180800232EFEF729FC7B68184607F10807BD4680BD00BF80AD
S31808002341B582B000AFFEF737FC786042F69053C2F2010312
S318080023541B683B607868FEF737FC3B68184607F10807BD7D
S318080023674680BD00BF80B400AF42F68C53C2F201031B68DE
S3180800237A1846BD4680BC704700BF80B584B000AF7860FF40
S3180800238DF700FF7B684FF000021A70786844F2BC21C0F6E2
S318080023A0000101F093FB42F69453C2F201031B6803F1014D
S318080023B303FB60FB6803F1FF33FB6042F6B842C2F20102DE
S318080023C6F9680B464FEA83035B184FEA8303D3181B6800E5
S318080023D92B11D0FA6813464FEA83039B184FEA830342F6B3
S318080023ECB842C2F201029B18786819464FF0520200F0E0CA
S318080023FFFCFB68002BD7D142F64453C2F201031B681B68FE
S31808002412002B0AD042F64453C2F201031B68786819464F0C
S31808002425F0420200F0CAFC42F64853C2F201031B681B681B
S31808002438002B0AD042F64853C2F201031B68786819464FE2
S3180800244BF0420200F0B7FC42F66053C2F201031B68002B48
S3180800245E08D0786842F66051C2F201014FF0440200F0A7EA
S31808002471FC42F67853C2F201031B68002B08D0786842F6F5
S318080024847851C2F201014FF0530200F097FCFFF78FFE0717
S31808002497F11007BD4680BD00BF80B584B000AF42F6A053DA
S318080024AAC2F201031B68002B40F0CA8042F69053C2F20161
S318080024BD031B6803F1010242F69053C2F201031A6042F6FC
S318080024D09053C2F201031B68002B4BD142F64453C2F20102
S318080024E3031B681B68002B02D0FEF764FBFEE742F64453CA
S318080024F6C2F201031B68FB6042F64853C2F201031A6842E0
S31808002509F64453C2F201031A6042F64853C2F20103FA6805
S3180800251C1A6042F6AC53C2F201031B6803F1010242F6ACD7
S3180800252F53C2F201031A6042F64453C2F201031B681B6879
S31808002542002B07D140F21C03C2F200034FF0FF321A600E75
S31808002555E042F64453C2F201031B68DB68DB68BB60BB68B7
S318080025685A6840F21C03C2F200031A6042F69053C2F2013E
S3180800257B031A6840F21C03C2F200031B689A426CD342F6DC
S3180800258E4453C2F201031B681B68002B07D140F21C03C2C1
S318080025A1F200034FF0FF321A605CE042F64453C2F2010377
S318080025B41B68DB68DB68BB60BB685B687B6042F69053C244
S318080025C7F201031A687B689A4206D240F21C03C2F20003DC
S318080025DA7A681A6042E0BB6803F104031846FDF7D6FFBB62
S318080025ED689B6A002B05D0BB6803F118031846FDF7CCFF11
S31808002600BB68DA6A42F69853C2F201031B689A4206D9BB7E
S3180800261368DA6A42F69853C2F201031A60BB68DA6A1346E5
S318080026264FEA83039B184FEA830342F6B842C2F201029ADF
S3180800263918BB6803F1040310461946FDF746FFA0E742F69D
S3180800264CA453C2F201031B6803F1010242F6A453C2F20160
S3180800265F031A60FDF7E3FE42F6A453C2F201031B68002B73
S3180800267201D1FDF7DAFE07F11007BD4680BD80B582B000F3
S31808002685AF42F6A053C2F201031B68002B07D042F6A853EA
S31808002698C2F201034FF001021A6093E042F6B443C2F20156
S318080026AB031B681A6842F6B443C2F201031B681B6B9A423A
S318080026BE0FD842F6B443C2F201031A6842F6B443C2F201C7
S318080026D1031B6803F1340310461946FDF7C4FE42F6B4439D
S318080026E4C2F201031B681B6B184644F2D421C0F600014F85
S318080026F7F0140201F0A3F90346002B26D042F6B443C2F2E2
S3180800270A01031A6842F6B443C2F201031B6803F134031083
S3180800271D461946FDF7A2FE15E042F69853C2F201031B680F
S31808002730002B02D1FEF740FAFEE742F69853C2F201031B80
S318080027436803F1FF3242F69853C2F201031A6042F6985370
S31808002756C2F20103196842F6B842C2F201020B464FEA8333
S31808002769035B184FEA8303D3181B68002BD6D042F69853B8
S3180800277CC2F201031A6813464FEA83039B184FEA83034236
S3180800278FF6B842C2F201029B187B607B685B685A687B68A9
S318080027A25A607B685A687B6803F108039A4204D17B685BE6
S318080027B5685A687B685A607B685B68DA6842F6B443C2F271
S318080027C801031A6007F10807BD4680BD80B584B000AF789B
S318080027DB6039607B68002B02D1FEF7E8F9FEE742F6B44319
S318080027EEC2F201031B6803F1180378681946FDF792FE427B
S31808002801F6B443C2F201031B6803F104031846FDF7C2FE81
S318080028143B68B3F1FF3F0ED142F6B443C2F201031B6803D2
S31808002827F1040342F67850C2F201001946FDF74EFE0AE05A
S3180800283A42F69053C2F201031A683B68D318FB60F86800DF
S3180800284DF03AFA07F11007BD4680BD80B584B000AF786007
S3180800286039607B68002B02D1FEF7A6F9FEE742F6B443C273
S31808002873F201031B6803F1180378681946FDF728FE42F62B
S31808002886B443C2F201031B6803F104031846FDF780FE42F2
S31808002899F69053C2F201031A683B68D318FB60F86800F0D2
S318080028AC0BFA07F11007BD4680BD00BF80B584B000AF7868
S318080028BF607B68DB68DB68BB60BB68002B02D1FEF773F992
S318080028D2FEE7BB6803F118031846FDF75CFE42F6A053C235
S318080028E5F201031B68002B2AD1BB6803F104031846FDF7C3
S318080028F84FFEBB68DA6A42F69853C2F201031B689A4206CB
S3180800290BD9BB68DA6A42F69853C2F201031A60BB68DA6AAF
S3180800291E13464FEA83039B184FEA830342F6B842C2F20127
S31808002931029A18BB6803F1040310461946FDF7C9FD09E05B
S31808002944BB6803F1180342F64C50C2F201001946FDF7BEA6
S31808002957FDBB68DA6A42F6B443C2F201031B68DB6A9A4270
S3180800296A03D34FF00103FB6002E04FF00003FB60FB6818DE
S3180800297D4607F11007BD4680BD00BF80B582B000AF7860F7
S318080029907B68002B02D1FEF70FF9FEE742F6AC53C2F20177
S318080029A3031A687B681A6042F69053C2F201031A687B68F9
S318080029B65A6007F10807BD4680BD80B584B000AF786039D6
S318080029C9607B68002B02D1FEF7F2F8FEE73B68002B02D147
S318080029DCFEF7ECF8FEE7FEF7BDF83B681B68B3F1FF3F0367
S318080029EFD14FF00003FB6038E07B681A6842F6AC53C2F2F1
S31808002A0201031B689A420CD07B685A6842F69053C2F201FF
S31808002A15031B689A4203D84FF00103FB6022E042F69053A8
S31808002A28C2F201031A687B685B68D21A3B681B689A4213AC
S31808002A3BD23B681A687B68596842F69053C2F201031B6889
S31808002A4ECB1AD2183B681A607868FFF796FF4FF00003FBD3
S31808002A616002E04FF00103FB60FEF78BF8FB68184607F143
S31808002A741007BD4680BD00BF80B400AF42F6A853C2F20160
S31808002A87034FF001021A60BD4680BC704780B485B000AF61
S31808002A9A78607B68002B05D07B68BB60BB685B6CFB60021B
S31808002AADE04FF00003FB60FB68184607F11407BD4680BC78
S31808002AC0704700BF80B485B000AF786039607B68002B04E4
S31808002AD3D07B68FB60FB683A685A6407F11407BD4680BCBF
S31808002AE6704780B582B000AF786000F09AF842F6B843C2B3
S31808002AF9F201031B68012B01D9FEF721F8FDF79DFCF1E7CA
S31808002B0C80B584B000AFF860B9607A603B60FB6803F1341F
S31808002B1F031846B9684FF00A0200F0DDFFFB684FF0000258
S31808002B3283F83D207B68042B02D94FF004037B60FB687ABF
S31808002B4568DA62FB687A689A64FB6803F104031846FDF7D8
S31808002B58AFFCFB6803F118031846FDF7A9FCFB68FA681A69
S31808002B6B617B68C3F10502FB689A61FB68FA685A6207F173
S31808002B7E1007BD4680BD80B582B000AF4FF000037B60129A
S31808002B91E07A6813464FEA83039B184FEA830342F6B842A5
S31808002BA4C2F201029B181846FDF764FC7B6803F101037B9E
S31808002BB7607B68042BE9D942F61C50C2F20100FDF757FC29
S31808002BCA42F63050C2F20100FDF751FC42F64C50C2F201B3
S31808002BDD00FDF74BFC42F66050C2F20100FDF745FC42F692
S31808002BF07850C2F20100FDF73FFC42F64453C2F20103424F
S31808002C03F61C52C2F201021A6042F64853C2F2010342F658
S31808002C163052C2F201021A6007F10807BD4680BD00BF8064
S31808002C29B582B000AF3DE0FFF7AEFA42F66053C2F2010396
S31808002C3C1B68002B14BF00230123DBB27B60FFF7B3FA7B29
S31808002C4F68002B2BD1FDF784FF42F66053C2F20103DB6878
S31808002C62DB683B603B6803F104031846FDF793FC42F68C30
S31808002C7553C2F201031B6803F1FF3242F68C53C2F20103BC
S31808002C881A6042F67453C2F201031B6803F1FF3242F674A6
S31808002C9B53C2F201031A60FDF76FFF386800F008F942F668
S31808002CAE7453C2F201031B68002BBAD107F10807BD4680C3
S31808002CC1BD00BF80B582B000AF786042F6B443C2F20103A1
S31808002CD41B687A685A6042F69053C2F201031B687A689AEE
S31808002CE74210D242F64853C2F201031A6842F6B443C2F2B8
S31808002CFA01031B6803F1040310461946FDF70DFC1DE04246
S31808002D0DF64453C2F201031A6842F6B443C2F201031B6874
S31808002D2003F1040310461946FDF7FCFB40F21C03C2F200F2
S31808002D33031B687A689A4205D240F21C03C2F200037A687A
S31808002D461A6007F10807BD4680BD80B584B000AF03463911
S31808002D5960FB804FF04C00FDF72EFAF860FB68002B23D0FE
S31808002D6C3B68002B07D1FB884FEA83031846FDF721FA03EE
S31808002D7F4600E03B68FA681363FB681B6B002B06D1F86847
S31808002D92FDF7F5FA4FF00003FB600AE0FB681A6BFB884FFC
S31808002DA5EA830310464FF0A5011A4600F060FEFB681846F3
S31808002DB807F11007BD4680BD90B58FB004AFF860B96013F0
S31808002DCB46FB71BB687B627B6A5B685A687B6A5A607B6A47
S31808002DDE5A687B6A03F108039A4204D17B6A5B685A687B98
S31808002DF16A5A607B6A5B68DB683B62BB68FB61FB695B686F
S31808002E045A68FB695A60FB695A68FB6903F108039A420464
S31808002E17D1FB695B685A68FB695A60FB695B68DB68BB613C
S31808002E2ABB691B6B184600F028F80346FB82BB6903F1345D
S31808002E3D0297F90730B969CC6AF88AB969096C0094019015
S31808002E50029142F6B450C2F2010044F2C021C0F60001000F
S31808002E63F00FFEF86842F6B451C2F2010100F02CFEBA69C1
S31808002E763B6A9A42BFD107F12C07BD4690BD90B482B00039
S31808002E89AF78604FF0000406E07B6803F101037B6004F1CD
S31808002E9C01039CB27B681B78A52BF4D04FEA94039CB22378
S31808002EAF46184607F10807BD4690BC704780B582B000AF3B
S31808002EC278607B681B6B1846FDF759FA7868FDF756FA07DE
S31808002ED5F10807BD4680BD80B483B000AF42F6B443C2F2A3
S31808002EE801031B687B607B68184607F10C07BD4680BC706C
S31808002EFB4780B483B000AF42F69C53C2F201031B68002BCC
S31808002F0E03D14FF000037B600DE042F6A053C2F201031BC6
S31808002F2168002B03D14FF001037B6002E04FF002037B6009
S31808002F347B68184607F10C07BD4680BC704700BF80B584C2
S31808002F47B000AF78607B68FB607B68002B5FD0FB68DA6A10
S31808002F5A42F6B443C2F201031B68DB6A9A4255D242F6B4B8
S31808002F6D43C2F201031B68DB6AC3F10502FB689A61FB6804
S31808002F805969FB68DA6A13464FEA83039B184FEA830342FB
S31808002F93F6B842C2F201029B18994232D1FB6803F1040387
S31808002FA61846FDF7F6FA42F6B443C2F201031B68DA6AFB1F
S31808002FB968DA62FB68DA6A42F69853C2F201031B689A4272
S31808002FCC06D9FB68DA6A42F69853C2F201031A60FB68DACC
S31808002FDF6A13464FEA83039B184FEA830342F6B842C2F2F7
S31808002FF201029A18FB6803F1040310461946FDF768FA0799
S31808003005E042F6B443C2F201031B68DA6AFB68DA6207F185
S318080030181007BD4680BD00BF80B584B000AF78607B68FBB3
S3180800302B607B68002B39D0FB68DA6AFB689B6C9A4233D01D
S3180800303EFB6803F104031846FDF7A7FAFB689A6CFB68DA7A
S3180800305162FB68DB6AC3F10502FB689A61FB68DA6A42F65C
S318080030649853C2F201031B689A4206D9FB68DA6A42F698F3
S3180800307753C2F201031A60FB68DA6A13464FEA83039B1841
S3180800308A4FEA830342F6B842C2F201029A18FB6803F10470
S3180800309D0310461946FDF717FA07F11007BD4680BD00BF47
S318080030B080B586B004AF4FF000037B6000F0E0FA42F60CB6
S318080030C363C2F201031B68002B1AD04FF0020300934FF023
S318080030D6000301934FF0000302934FF00003039343F2B5A9
S318080030E920C0F6000044F2E821C0F600014FF482724FF084
S318080030FC0003FEF705FC78607B68002B02D1FDF755FDFEBD
S3180800310FE77B68184607F10807BD4680BD80B586B000AF16
S31808003122F860B9607A603B60BB68002B08D14FF000037BC2
S3180800313561BB68002B21D1FDF73CFDFEE74FF02800FDF76B
S318080031483BF878617B69002B16D000F095FA7B69FA681A86
S3180800315B607B69BA689A617B697A68DA617B693A681A62EF
S3180800316E7B693A6A5A627B6903F104031846FDF79CF97BBB
S3180800318169184607F11807BD4680BD80B588B000AFF8609B
S31808003194B9607A603B604FF00003FB6142F60C63C2F20192
S318080031A7031B68002B3DD0BB683B617B687B61FB68BB614C
S318080031BA3B68002B25D1FFF79CFE0346012B0FD142F60C07
S318080031CD63C2F201031A6807F1100310461946BA6A4FF021
S318080031E00003FDF7DFFEF8611FE042F60C63C2F201031A29
S318080031F36807F11003104619464FF000024FF00003FDF71C
S31808003206CEFEF8610EE042F60C63C2F201031A6807F110AB
S3180800321903104619463A684FF00003FDF764FFF861FB69E4
S3180800322C184607F12007BD4680BD00BF80B586B002AF7871
S3180800323F60396042F60463C2F201031B68DB68DB68FB60BA
S31808003252FB6803F104031846FDF79DF9FB68DB69012B1E24
S31808003265D1FB689A697B68D318F86819463A687B6800F00F
S31808003278BFF80346012B11D14FF000030093F8684FF000B3
S3180800328B017A684FF00003FFF77BFFB860BB68002B02D154
S3180800329EFDF78BFCFEE7FB685B6AF868984707F11007BD7C
S318080032B14680BD80B584B000AF786007F10803184600F038
S318080032C443F8F860BB68F868194600F003F800F0DBF8F1D5
S318080032D7E780B584B000AF78603960FEF755FF07F108031A
S318080032EA184600F058F8F860BB68002B21D13B68002B0AB5
S318080032FDD17A68FB689A4206D8FEF755FF7868F968FFF760
S3180800331093FF17E042F60C63C2F201031A687968FB68CB23
S318080033231A10461946FEF77EFAFEF742FF0346002B05D1CD
S31808003336FDF707FC02E0FEF73AFF00E000BF07F11007BD04
S318080033494680BD80B485B000AF786042F60463C2F2010399
S3180800335C1B681B68002B14BF00230123DBB21A467B681A1B
S3180800336F607B681B68002B08D142F60463C2F201031B6899
S31808003382DB681B68FB6002E04FF00003FB60FB68184607C2
S31808003395F11407BD4680BC704700BF80B584B000AF786066
S318080033A8FEF7B6FFF86042F61063C2F201031B68FA689A20
S318080033BB420CD242F61063C2F201031B68184600F0E5F8C0
S318080033CE7B684FF001021A6003E07B684FF000021A60427C
S318080033E1F61063C2F20103FA681A60FB68184607F11007FE
S318080033F4BD4680BD80B586B000AFF860B9607A603B604F29
S31808003407F000037B61FB68BA685A60FB68FA681A61BA6834
S3180800341A7B689A4217D87A683B68D21AFB689B699A42032C
S3180800342DD34FF001037B6124E042F60863C2F201031A68AB
S31808003440FB6803F1040310461946FDF76BF817E07A683BED
S31808003453689A4207D2BA683B689A4203D34FF001037B61A5
S318080034660BE042F60463C2F201031A68FB6803F104031013
S31808003479461946FDF752F87B69184607F11807BD4680BDB6
S3180800348C80B58AB002AF07F104031846FFF782FFF861646E
S3180800349FE03B69BB61BB69002B09D0BB695B69002B05D05C
S318080034B2BB6903F104031846FDF76DF8BB68032B4FD801AA
S318080034C5A252F823F000BFDD3400086535000833350008FD
S318080034D85D350008FA68BB699B69D218FB68B8691146FAF0
S318080034EB69FFF784FF0346012B38D1BB695B6AB869984777
S318080034FEBB69DB69012B30D1FA68BB699B69D3184FF00064
S31808003511020092B8694FF000011A464FF00003FFF734FEDA
S3180800352478617B69002B1DD1FDF744FBFEE7FA68BB699A78
S3180800353761BB699B69002B02D1FDF73AFBFEE7BB699A69B7
S3180800354AFB69D318B8691946FA69FB69FFF74FFF06E0B8E8
S3180800355D69FCF70FFF02E000BF00E000BF42F60C63C2F248
S3180800357001031A6807F10803104619464FF000024FF0007C
S3180800358303FDF710FE0346002B88D107F12007BD4680BDF6
S3180800359600BF80B58AB002AF78604BE042F60463C2F201DE
S318080035A9031B68DB681B68FB6142F60463C2F201031B687F
S318080035BCDB68DB68BB61BB6903F104031846FCF7E5FFBB3D
S318080035CF695B6AB8699847BB69DB69012B2DD1BB699A69F4
S318080035E2FB69D3187B617A69FB699A4212D9BB697A695A2E
S318080035F560BB69BA691A6142F60463C2F201031A68BB6996
S3180800360803F1040310461946FCF788FF11E04FF000030044
S3180800361B93B8694FF00001FA694FF00003FFF7B0FD3861B9
S3180800362E3B69002B02D1FDF7C0FAFEE742F60463C2F201F2
S31808003641031B681B68002BABD142F60463C2F201031B68DE
S31808003654FB6042F60863C2F201031A6842F60463C2F201C9
S31808003667031A6042F60863C2F20103FA681A6007F120076F
S3180800367ABD4680BD00BF80B500AFFDF76CFA42F60C63C289
S3180800368DF201031B68002B2BD142F6DC50C2F20100FCF770
S318080036A0EBFE42F6F050C2F20100FCF7E5FE42F60463C2BC
S318080036B3F2010342F6DC52C2F201021A6042F60863C2F212
S318080036C6010342F6F052C2F201021A604FF00A004FF00CA0
S318080036D9014FF00002FDF73DFB024642F60C63C2F20103BB
S318080036EC1A60FDF749FA80BD80B584B000AF78607B68FB01
S318080036FF60FDF72EFAFB685B69002B0CBF00230123DBB23D
S31808003712BB60FDF736FABB68184607F11007BD4680BD8007
S31808003725B485B000AF78607B68FB60FB681B6A184607F197
S318080037381407BD4680BC7047002100F004B80F4B5B584342
S3180800374B5004310E480E4B42189A42FFF4F6AF0D4A00F014
S3180800375E03B8002342F8043B0B4B9A42FFF4F9AF0A4801D3
S318080037716841F470010160FCF73AFFFDF766F8704700DFB4
S318080037846D4300080000002090000020900000205C2E0161
S318080037972088ED00E0FFF7FEBF04281CD8DFE800F0030807
S318080037AA0D1217000C4B18688301FBD5704709490A689092
S318080037BD03FBD57047074B18688107FBD5704705490A68C0
S318080037D09207FBD57047044B18688307FBD570470038029E
S318080037E340703802407438024001280AD002D3022812D1C8
S318080037F60DE009490A6802F00303022BF9D170470648010C
S318080038096801F00302012AF9D17047024B18688207FBD172
S3180800381C704700BF08380240042817D8DFE800F003080DA9
S3180800382F0F11000A4B1A6842F080700CE0074B196841F46B
S31808003842803007E0054B02E0054B00E0054B1A6842F00167
S31808003855001860704700BF00380240703802407438024012
S31808003868042817D8DFE800F003080D0F11000A4B1A68223C
S3180800387BF080700CE0074B196821F4803007E0054B02E0AF
S3180800388E054B00E0054B1A6822F001001860704700BF0016
S318080038A138024070380240743802400368194301607047D5
S318080038B4034B1A6822F0030108431860704700BF08380292
S318080038C740034B1A6822F4604141EA40301860704708380F
S318080038DA0240034B1A6822F4E05141EA8020186070470872
S318080038ED380240034B1A6822F0F00141EA00101860704703
S318080039000838024040F4800040EA8111520841EA03635079
S318080039131E43EA0041014B1960704700BF0438024010B589
S3180800392604460220FFF77BFF0220FFF736FF0020FFF7BD84
S31808003939FF0120FFF772FF0120FFF72DFFE07B00B1012076
S3180800394C00F064F8207BFFF7CDFF607BFFF7C0FFA07BFF07
S3180800395FF7B3FF2078227963796188FFF7CBFF0E4B1A680B
S3180800397242F08070186019688901FCD5A06800F040F8028C
S3180800398520FFF795FF0020FFF72EFF606906492369064A40
S31808003998086002201360BDE81040FFF761BF00BF0038020D
S318080039AB40240000202000002081617047090481617047F8
S318080039BE2DE9F0410668C568002443FA04F717F0010F1182
S318080039D1D067004FF0030C0CFA07F86FEA080C0CEA0606DC
S318080039E401FA07F80CEA050502FA07F746EA08063D43010F
S318080039F734102CE5D10660C560BDE8F081034B1A6822F006
S31808003A0A070108431860704700BF003C024020B9064B1999
S31808003A1D6841F4804005E0012804D1024B1A6802F48040C3
S31808003A301860704700700040014B1868704700BF8C0000C8
S31808003A432030B50023934208D0C55C0133CC1814F8014CFB
S31808003A56A542F6D0281B30BD002030BD10B50023934203A5
S31808003A69D0CC5CC4540133F9E710BD82180346934202D0C1
S31808003A7C03F8011BFAE770470EB400B59CB01DAB02900657
S31808003A8F906FF00040049007904FF402710A4853F8042B3A
S31808003AA2ADF814104FF6FF71ADF816100068019302A90013
S31808003AB5F084F8029B00221A701CB05DF804EB03B07047C1
S31808003AC88C00002010B50446224601341378002BFAD1CC38
S31808003ADB5CD4540133002CFAD110BD30B5013903461C4684
S31808003AEE3AB111F8015F03F8015B013A1C46002DF5D199E3
S31808003B01188C4203D0002204F8012BF9E730BD2DE9F84382
S31808003B149368064689461446002B41D1928912F4906F3D86
S31808003B27D0616923692768032502204D43FF1A95FBF0F560
S31808003B3A791C02F48062A94211B2A8BF3D18304679B129CA
S31808003B4D4600F009FB8046A0B13A462169FFF782FFA38959
S31808003B6023F4906040F08002A28113E019462A4600F05066
S31808003B73FB804668B93046216900F0AEFAA0890C2340F02F
S31808003B86400233604FF0FF30A281BDE8F88308EB07016538
S31808003B9961ED1BC4F810802160A560A368002B06DD20682F
S31808003BAC00F8019BA2682060511EA1600020BDE8F883002A
S31808003BBF002DE9F0479CB00D4603938B8903F08001144681
S31808003BD20AB2064662B12B6953B9402100F0C1FA2860285B
S31808003BE56110B90C213160D3E04020686100272021302241
S31808003BF809978DF829108DF82A2023461F4613F8010B2872
S31808003C0BB9B7EB040A16D04FF000090DE02528F3D1F6E726
S31808003C1E304614F809102A46FFF773FF013000F0AC8009BC
S31808003C31F10109D145F2DB099901EB0A0209923B78002B81
S31808003C4400F0A08000244FF0FF3004940794059006948DCE
S31808003C57F853401A9407F101094C464F4F217838460522A3
S31808003C6A00F0C5FA09F10109049B30B1C41B012707FA04FA
S31808003C7DF73B430493EDE7D90602D520218DF853101A0746
S31808003C9002D52B228DF8532020782A2802D0079B27460E1E
S31808003CA3E0039A1768101D002F039001DB079704E07942FC
S31808003CB643F002030791049301340AE03C460137217830E4
S31808003CC939092903D80A2404FB0313F5E7079322782E2AE9
S31808003CDC19D160782A2809D103980368021D0234002B0350
S31808003CEF92B8BF4FF0FF330BE0671C00233C460137217856
S31808003D023039092903D80A2404FB0313F5E70593244F21DF
S31808003D15783846032200F06DFA38B1049BC71B402101FA55
S31808003D2807F10B430493013414F8011B1C488DF828100619
S31808003D3B2200F05CFA88B11A4A32B9039FFB1D23F00700A3
S31808003D4E0830039014E003A90091304604A92A46144BAFB7
S31808003D61F3008007E003A8009004A930462A460F4B00F0CF
S31808003D748FF8B0F1FF3F804604D0099A02EB080109913CBF
S31808003D87E7AB8903F0400002B20AB9099801E04FF0FF3066
S31808003D9A1CB0BDE8F0873A43000840430008444300080081
S31808003DAD000000113B00082DE9F047154699468A680B69B4
S31808003DC0DDF820A09A42A8BF13462B60804691F843000C88
S31808003DD34608B1591C29602668B20602D52A68931C2B60E9
S31808003DE6206810F0060618D094F8437020683E1C18BF0147
S31808003DF92683061AD5A119302281F8432094F845300236EA
S31808003E0C81F8443010E04046617E4A46D047013006D001A4
S31808003E1F36E1682A688B1A9E42F3DBE0E74FF0FF30BDE844
S31808003E32F0870027B74209DAE119404691F843104A46D039
S31808003E45470130F0D00137F3E721682868E668236901F02E
S31808003E580602042A08BFC0EB0605A6680CBF25EAE5750054
S31808003E6B259E42C4BFC3EB0603ED180026AE4207DA404675
S31808003E7EA17E4A46D0470130D1D00136F5E70020BDE8F0C3
S31808003E918700002DE9F0430C4685B0257E0C996E2D904600
S31808003EA40746994604F1430200F0AA8012D8632D24D00906
S31808003EB7D8002D00F0BB80582D40F0CB8084F84550824DDA
S31808003ECA57E0642D20D0692D40F0C2801CE0732D00F0AFDC
S31808003EDD8009D86F2D2FD0702D40F0B880256845F02006DB
S31808003EF026603FE0752D25D0782D40F0AE8039E0086802E7
S31808003F031D0A60016804F1420684F84210A7E020680B6820
S31808003F1610F0800F02D01E1D0E6008E003F1040510F0405B
S31808003F290F0D6002D0B3F9001000E0196800293CDA2D2080
S31808003F3C494284F8430037E025680E6815F0800F02D03367
S31808003F4F1D0B6007E006F1040015F0400F086001D03188A1
S31808003F6200E03168267E5A4D6F2E14BF0A2308231BE0783F
S31808003F7520584D84F8450020680B6810F0800F03F104061D
S31808003F880E6003D1410601D5198800E01968C60744BF40A7
S31808003F9BF02000206019B9206820F0200323601023002012
S31808003FAE84F8430001E0474D0A236668002EA66003DB2091
S31808003FC16820F00400206001B96EB104F14200B1FBF3FE36
S31808003FD403FB1E110646695C00F8011971460029F4D100D7
S31808003FE7E01646921B082B22613CD12368D80739D56068CD
S31808003FFA904236DC511C616033E026680B6816F0800F05E6
S3180800400DD01E1D0E601968606908600CE003F1040016F07D
S31808004020400F086003D018686369038002E061691E6831C3
S318080040336000232361164617E00E68321D0A6036683046CF
S3180800404600F019F963682061984288BF2361206960600518
S31808004059E004F1420684F8425001232361002184F8431083
S3180800406CCDF800903846214603AA4346FFF79CFE01300200
S3180800407FD14FF0FF3022E000252269954207DA3846715D2B
S318080040924246C8470130F2D00135F4E72168890705D4E0A0
S318080040A56803998842B8BF08460DE00025E068039BC21A93
S318080040B89542F3DA3846617E4246C8470130DBD00135F24B
S318080040CBE705B0BDE8F08300BF4B4300085C43000830B53F
S318080040DE00293CD051F8042C0B1F1D49002AB8BF9B180A25
S318080040F16812B95A600B6030BD93420ED2196858189042F1
S3180800410403D15A5889184268196014485A60036030BD9951
S318080041174203D80A4651680029F9D1146815199D420AD10A
S3180800412A18682318D0188842136012D108681B1813604B50
S3180800413D680CE002D90C23036030BD18681C188C4203D15D
S318080041500C684968001918605960536030BD00BF142E013D
S318080041632070B5CD1C25F0030508350C2D38BF0C25002D25
S3180800417606462DDB8D422BD31D4B1B681C469CB122685093
S318080041891B0DD40B2802D92060241817E0A34203D16068D7
S3180800419C154A10601DE0616859601AE023466468EAE7298B
S318080041AF46304600F053F8431C01460CD0CC1C24F0030473
S318080041C28C4201D1256009E03046611A00F045F80130F788
S318080041D5D10C203060002070BD04F10B01231D21F0070096
S318080041E8C31A02D05A42E25070BD70BD142E012010B5C9EE
S318080041FBB2034682189342184604D0047801338C42F8D1C0
S3180800420E00E0002010BDF8B5064615460C4621B91146BD2E
S31808004221E8F840FFF79EBF1AB9FFF757FF2C4612E000F096
S318080042342BF8A8420ED230462946FFF791FF074638B121BA
S31808004247462A46FFF70AFC30462146FFF743FF3C462046A7
S3180800425AF8BD38B5064C0023054608462360FDF70CFB43D2
S3180800426D1C02D1216801B1296038BD582E0120034613F88D
S31808004280012B002AFBD1181A0138704751F8040C00280256
S31808004293DA04390B58C018043870471000546573743100E4
S318080042A600004C45445F426C696E6B00000049444C4500B5
S318080042B90000000D0A000025730909256309257509257555
S318080042CC0925750D0A000000A5A5A5A5A5A5A5A5A5A5A500
S318080042DFA5A5A5A5A5A5A5A5A5546D72205376630008006A
S318080042F26000020200000306000000050401001BB7000062
S31808004305366E010800F000020500000306000000050401E0
S3180800431880C3C901008793030800500102070000050600ED
S3180800432B000005040080DE800200BD01054300232D302BD7
S3180800433E2000686C4C0065666745464700303132333435EB
S31808004351363738394142434445460030313233343536373C
S30E080043643839616263646566007C
S3180800436D002C0100007A030A000000000000000001020375
S318080043800406070809AAAAAAAAFFFFFFFF0024F40000241A
S31808004393F400000000000000000000000000000000000015
S318080043A60000000000000000000000000000003843000873
S318080043B900000000000000000000000000000000000000E3
S318080043CC00000000000000000000000000000000000000D0
S318080043DF00000000000000000000000000000000000000BD
S310080043F200000000000000280000206A
S7050800084D9D
