S00F00006F75742F6D61696E2E733139B9
S31808000000000002206D0600084D0200085902000861020025
S3180800001308690200087102000800000000000000000000D6
S318080000260000000000007902000885020008000000009116
S318080000390200089D020008C9060008C9060008C906000870
S3180800004CC9060008C9060008C9060008C9060008C9060068
S3180800005F08C9060008C9060008C9060008C9060008C9064D
S318080000720008C9060008C9060008C9060008C9060008C940
S31808000085060008C9060008C9060008C9060008C9060008F0
S31808000098C9060008C9060008C9060008C9060008C906001C
S318080000AB08C9060008C9060008C9060008C9060008C90601
S318080000BE0008C9060008C9060008C9060008C9060008C9F4
S318080000D1060008C9060008C9060008C9060008C9060008A4
S318080000E4C9060008C9060008C9060008C9060008C90600D0
S318080000F708C9060008C9060008C9060008C9060008C906B5
S3180800010A0008C9060008C9060008C9060008C9060008C9A7
S3180800011D060008C9060008C9060008C9060008C906000857
S31808000130C9060008C9060008C9060008C9060008C9060083
S3180800014308C9060008C9060008C9060008C9060008C90668
S318080001560008C9060008C9060008C9060008C9060008C95B
S31808000169060008C9060008C9060008C9060008C90600080B
S3180800017CC9060008C9060008C906000810B5054C237833F9
S3180800018FB9044810B10448AFF300800121217010BD8C000F
S318080001A20020000000009011000808B5064B1BB106480645
S318080001B549AFF300800648016811B1054A02B1904708BDA7
S318080001C80000000090110008900000208800002000000015
S318080001DB00154B002B08BF134B9D46A3F5803A00218B462C
S318080001EE0F461348144A121A00F02FFA0F4B002B00D098B0
S31808000201470E4B002B00D098470020002104460D46002064
S318080002140C490022002300F0C1F900F0F5F92046294600D2
S31808000227F059F900F0C3F900BF0000080000000000000001
S3180800023A0000000000008C000020B8000020E105000880B1
S3180800024DB400AFBD4680BC704700BF80B400AFFEE700BFF1
S3180800026080B400AFFEE700BF80B400AFFEE700BF80B4003B
S31808000273AFFEE700BF80B400AFBD4680BC704700BF80B44B
S3180800028600AFBD4680BC704700BF80B400AFBD4680BC7061
S318080002994700BF80B400AF40F2B003C2F200031B6803F148
S318080002AC010240F2B003C2F200031A60BD4680BC70470022
S318080002BFBF80B500AF4FF46053C4F202034FF46052C4F21F
S318080002D20202126842F001021A604FF46053C4F202034FDE
S318080002E5F000029A604FF46053C4F202034FF46052C4F2B0
S318080002F80202126822F0847222F480321A604FF46053C463
S3180800030BF2020343F21002C2F200425A604FF46053C4F237
S3180800031E02034FF46052C4F20202126822F480221A604F0F
S31808000331F46053C4F202034FF00002DA6000F009F84FF49A
S318080003446D43CEF200034FF000629A6080BD00BF80B483D7
S31808000357B000AF4FF000037B604FF000033B604FF4605336
S3180800036AC4F202034FF46052C4F20202126842F480321A8C
S3180800037D604FF46053C4F202031B6803F400333B607B6823
S3180800039003F101037B603B68002B03D17B68B3F5A06FEC51
S318080003A3D14FF46053C4F202031B6803F40033002B03D00C
S318080003B64FF001033B6002E04FF000033B603B68012B407A
S318080003C9F082804FF46053C4F202034FF46052C4F20202C1
S318080003DC126C42F080521A644FF4E043C4F200034FF4E0BE
S318080003EF42C4F20002126842F480421A604FF46053C4F25B
S3180800040202034FF46052C4F2020292689A604FF46053C477
S31808000415F202034FF46052C4F20202926842F400429A60B4
S318080004284FF46053C4F202034FF46052C4F2020292684217
S3180800043BF4A0529A604FF46053C4F2020345F20842C0F2DC
S3180800044E40725A604FF46053C4F202034FF46052C4F202C3
S3180800046102126842F080721A6000BF4FF46053C4F20203F0
S318080004741B6803F00073002BF6D04FF47053C4F20203408C
S31808000487F205621A604FF46053C4F202034FF46052C4F225
S3180800049A0202926822F003029A604FF46053C4F202034F32
S318080004ADF46052C4F20202926842F002029A6000BF4FF4A2
S318080004C06053C4F202039B6803F00C03082BF6D107F10CAA
S318080004D307BD4680BC704700BF80B59AB000AF4FF00003DC
S318080004E67B663B46184641F22411C0F6000100F010F97BA2
S318080004F96E03F101037B66FAE700BF90B585B000AF7860FA
S3180800050C40F2A803C2F200031B68002B08D140F2A803C214
S3180800051FF2000340F2B802C2F200021A6040F2A803C2F219
S3180800053200031B68FB60EFF308842346BB6040F2A803C236
S31808000545F200031A687B68D218BB689A4208D900F0BAF8CF
S3180800055803464FF00C021A604FF0FF330CE040F2A803C276
S3180800056BF200031A687B68D21840F2A803C2F200031A601D
S3180800057EFB68184607F11407BD4690BD00BF9C11000800C4
S31808000591000020800000208C000020B800002010B5034CF1
S318080005A414B1AFF3008010BD204610BD0000000008B5088A
S318080005B74B04461BB10021AFF3008001E000F00CF804485E
S318080005CA0068816A01B18847204600F048F8000000004066
S318080005DD11000870B5084B084CE01A841003EB84060025ED
S318080005F0043D1CB172599047013CF9E7BDE8704000F0C018
S31808000603BD000000000000000038B50E4D0E4BE81A8510E1
S318080006160024AC4205D00B4951F8242090470134F7E70011
S31808000629F0A6FD0849094A541AA5100024AC4205D0054B1F
S3180800063C53F8240080470134F7E738BD000000000000005F
S3180800064F00000000000000000082180346934202D003F805
S31808000662011BFAE77047FEE700BF002100F004B80F4B5B9D
S3180800067558435004310E480E4B42189A42FFF4F6AF0D4A70
S3180800068800F003B8002342F8043B0B4B9A42FFF4F9AF0A33
S3180800069B48016841F470010160FFF70CFEFFF718FF7047C2
S318080006AE00DF9C11000800000020800000208C000020B873
S318080006C100002088ED00E0FFF7FEBF014B1868704700BFAE
S318080006D47C0000200CB410B59CB01EAB029106916FF00046
S318080006E74153F8042B049107914FF6FF71ADF816104FF447
S318080006FA027402A90193ADF8144000F000F9029B00221A6F
S3180800070D701CB0BDE8104002B070470EB400B59CB01DABA6
S31808000720029006906FF00040049007904FF402710A48536B
S31808000733F8042BADF814104FF6FF71ADF816100068019339
S3180800074602A900F0DEF8029B00221A701CB05DF804EB03C5
S31808000759B070477C0000202DE9F8439368064689461446BB
S3180800076C002B41D1928912F4906F3DD0616923692768031A
S3180800077F2502204D43FF1A95FBF0F5791C02F48062A9429C
S3180800079211B2A8BF3D18304679B1294600F085FB8046A0E2
S318080007A5B13A46216900F0D7FBA38923F4906040F08002D1
S318080007B8A28113E019462A4600F0EFFB804668B9304621E3
S318080007CB6900F02AFBA0890C2340F0400233604FF0FF30C4
S318080007DEA281BDE8F88308EB07016561ED1BC4F810802181
S318080007F160A560A368002B06DD206800F8019BA2682060C3
S31808000804511EA1600020BDE8F8832DE9F74F07469068D2B0
S31808000817F800800C46154608B950606FE04FF0000B5E46ED
S3180800082A36B9D8F800B0D8F8046008F10808F7E7A3689E7A
S3180800083D424CD3A28912F4906F46D02368606921694FF0D6
S31808000850030AC1EB03090AFB00F3022093FBF0FA02F480BA
S318080008636209F10103981913B2824538BF8246384683B166
S31808000876514600F018FBA8B1216901904A4600F06AFBA0CE
S318080008898920F4906242F08001A181019914E0524600F0D4
S3180800089C82FB014678B93846216900F0BDFAA3890C20003F
S318080008AF2143F040023860A2814FF0FF30A960696020E097
S318080008C201EB0903C9EB0A0023602161C4F814A03346A0D1
S318080008D5609E4200D233461A4659462068019300F043FB2E
S318080008E8A26801992368501A5A18A968A0608E1B2260AEFA
S318080008FB60002E95D16E603046BDE8FE8F2DE9F0479CB0D9
S3180800090E0D4603938B8903F0800114460AB2064662B12BB7
S318080009216953B9402100F0C1FA2860286110B90C2131609C
S31808000934D3E04020686100272021302209978DF829108D21
S31808000947F82A2023461F4613F8010B28B9B7EB040A16D0F1
S3180800095A4FF000090DE02528F3D1F6E7304614F809102A94
S3180800096D46FFF7F7FE013000F0AC8009F10109D145F2DB04
S31808000980099901EB0A0209923B78002B00F0A08000244FC0
S31808000993F0FF3004940794059006948DF853401A9407F104
S318080009A601094C464F4F21783846052200F0C5FA09F1010E
S318080009B909049B30B1C41B012707FA04F73B430493EDE7A8
S318080009CCD90602D520218DF853101A0702D52B228DF8530E
S318080009DF2020782A2802D0079B27460EE0039A1768101DD5
S318080009F2002F039001DB079704E0794243F0020307910435
S31808000A059301340AE03C46013721783039092903D80A2427
S31808000A1804FB0313F5E7079322782E2A19D160782A280923
S31808000A2BD103980368021D0234002B0392B8BF4FF0FF33D6
S31808000A3E0BE0671C00233C46013721783039092903D80A33
S31808000A512404FB0313F5E70593244F21783846032200F038
S31808000A646DFA38B1049BC71B402101FA07F10B4304930166
S31808000A773414F8011B1C488DF82810062200F05CFA88B13A
S31808000A8A1A4A32B9039FFB1D23F007000830039014E00366
S31808000A9DA90091304604A92A46144BAFF3008007E003A858
S31808000AB0009004A930462A460F4B00F08FF8B0F1FF3F80D2
S31808000AC34604D0099A02EB080109913CE7AB8903F040003B
S31808000AD602B20AB9099801E04FF0FF301CB0BDE8F087446C
S31808000AE91100084A1100084E110008000000006107000899
S31808000AFC2DE9F047154699468A680B69DDF820A09A42A8D3
S31808000B0FBF13462B60804691F843000C4608B1591C296087
S31808000B222668B20602D52A68931C2B60206810F00606181D
S31808000B35D094F8437020683E1C18BF012683061AD5A1197E
S31808000B48302281F8432094F84530023681F8443010E04008
S31808000B5B46617E4A46D047013006D00136E1682A688B1AEF
S31808000B6E9E42F3DBE0E74FF0FF30BDE8F0870027B742093E
S31808000B81DAE119404691F843104A46D0470130F0D001374D
S31808000B94F3E721682868E668236901F00602042A08BFC0C5
S31808000BA7EB0605A6680CBF25EAE57500259E42C4BFC3EBBF
S31808000BBA0603ED180026AE4207DA4046A17E4A46D04701C8
S31808000BCD30D1D00136F5E70020BDE8F08700002DE9F0439E
S31808000BE00C4685B0257E0C996E2D90460746994604F14350
S31808000BF30200F0AA8012D8632D24D009D8002D00F0BB801E
S31808000C06582D40F0CB8084F84550824D57E0642D20D069CC
S31808000C192D40F0C2801CE0732D00F0AF8009D86F2D2FD0E4
S31808000C2C702D40F0B880256845F0200626603FE0752D254E
S31808000C3FD0782D40F0AE8039E00868021D0A60016804F151
S31808000C52420684F84210A7E020680B6810F0800F02D01E6A
S31808000C651D0E6008E003F1040510F0400F0D6002D0B3F9C4
S31808000C78001000E0196800293CDA2D20494284F8430037DD
S31808000C8BE025680E6815F0800F02D0331D0B6007E006F166
S31808000C9E040015F0400F086001D0318800E03168267E5A74
S31808000CB14D6F2E14BF0A2308231BE07820584D84F8450014
S31808000CC420680B6810F0800F03F104060E6003D1410601FD
S31808000CD7D5198800E01968C60744BF40F02000206019B9B3
S31808000CEA206820F0200323601023002084F8430001E04771
S31808000CFD4D0A236668002EA66003DB206820F00400206060
S31808000D1001B96EB104F14200B1FBF3FE03FB1E1106466933
S31808000D235C00F8011971460029F4D100E01646921B082B80
S31808000D3622613CD12368D80739D56068904236DC511C611A
S31808000D496033E026680B6816F0800F05D01E1D0E60196881
S31808000D5C606908600CE003F1040016F0400F086003D018B9
S31808000D6F686369038002E061691E683160002323611646E6
S31808000D8217E00E68321D0A603668304600F03DF963682005
S31808000D9561984288BF23612069606005E004F1420684F850
S31808000DA8425001232361002184F84310CDF800903846210C
S31808000DBB4603AA4346FFF79CFE013002D14FF0FF3022E097
S31808000DCE00252269954207DA3846715D4246C8470130F296
S31808000DE1D00135F4E72168890705D4E06803998842B8BFF9
S31808000DF408460DE00025E068039BC21A9542F3DA38466139
S31808000E077E4246C8470130DBD00135F2E705B0BDE8F083FD
S31808000E1A00BF551100086611000830B500293CD051F804A4
S31808000E2D2C0B1F1D49002AB8BF9B180A6812B95A600B6032
S31808000E4030BD93420ED219685818904203D15A58891842C3
S31808000E5368196014485A60036030BD994203D80A46516878
S31808000E660029F9D1146815199D420AD118682318D01888E9
S31808000E7942136012D108681B1813604B680CE002D90C2301
S31808000E8C036030BD18681C188C4203D10C68496800191849
S31808000E9F605960536030BD00BFAC00002070B5CD1C25F0CB
S31808000EB2030508350C2D38BF0C25002D06462DDB8D422BFE
S31808000EC5D31D4B1B681C469CB12268501B0DD40B2802D9BB
S31808000ED82060241817E0A34203D16068154A10601DE06198
S31808000EEB6859601AE023466468EAE72946304600F077F881
S31808000EFE431C01460CD0CC1C24F003048C4201D125600920
S31808000F11E03046611A00F069F80130F7D10C2030600020C8
S31808000F2470BD04F10B01231D21F00700C31A02D05A42E2F9
S31808000F375070BD70BDAC00002010B5C9B20346821893422B
S31808000F4A184604D0047801338C42F8D100E0002010BD1030
S31808000F5DB50023934203D0CC5CC4540133F9E710BD81420F
S31808000F7070B50ED28C18A0420BD28518134613F1FF3305C7
S31808000F83D3514266186918F65CCE54F6E770BD0023934272
S31808000F9603D0CC5CC4540133F9E770BDF8B5064615460C86
S31808000FA94621B91146BDE8F840FFF77BBF1AB9FFF734FFA7
S31808000FBC2C4612E000F02CF8A8420ED230462946FFF76E89
S31808000FCFFF074638B121462A46FFF7C0FF30462146FFF76D
S31808000FE220FF3C462046F8BD000038B5064C00230546087D
S31808000FF5462360FFF784FA431C02D1216801B1296038BDB3
S31808001008B4000020034613F8012B002AFBD1181A013870A2
S3180800101B4751F8040C002802DA04390B58C01804387047A5
S3180800102E38B50C460968054609B1FFF7F9FF28462146BD6C
S31808001041E83840FFF7EEBE294B70B50446186884424BD048
S31808001054616AD1B1CA6892B10025636AD868415929B10E05
S31808001067682046FFF7DBFE3146F8E70435802DF2D1616A01
S3180800107A2046C968FFF7D1FE626A116811B12046FFF7CBCB
S3180800108DFE616911B12046FFF7C6FE616A11B12046FFF7AF
S318080010A0C1FEA16B11B12046FFF7BCFEE16B11B12046FF19
S318080010B3F7B7FE216C11B12046FFF7B2FEA16C11B12046E0
S318080010C6FFF7ADFE616B11B12046FFF7A8FEA3694BB1A12F
S318080010D96A20468847E16C21B12046BDE87040FFF7A1BF27
S318080010EC70BD00BF7C00002070B5044608B9094B1C68A6AD
S318080010FF6C0EB1356800E03546013D04D406EB8500426877
S318080011129047F8E7A16A09B12046884770BD7C00002057EC
S31808001125656C636F6D6520746F20456D62656464656420E7
S31808001138430A00004300000018000020232D302B2000689B
S3180800114B6C4C0065666745464700303132333435363738F3
S3180800115E3941424344454600303132333435363738396134
S30B0800117162636465660076
S31108001178F8B500BFF8BC08BC9E467047DE
S31108001184F8B500BFF8BC08BC9E467047D2
S30908001190000000004D
S30D0800119448F0FF7F010000008E
S3180800119C00000000007A030A0000000000000000010203A5
S318080011AF04060708090000000000000000000000000000FD
S318080011C20000000000000000000000000000000000003CD0
S318080011D511000800000000000000000000000000000000E0
S318080011E800000000000000000000000000000000000000E6
S318080011FB00000000000000000000000000000000000000D3
S3130800120E00000000000000000000180000208C
S3090800121CAD0100080A
S30908001220890100082A
S3090800122400000000B8
S705080004DD11
