S00F00006F75742F6D61696E2E733139B9
S318080000000000022089010008C5010008C5010008C50100C9
S3180800001308C5010008C50100080000000000000000000028
S31808000026000000000000C5010008C501000800000000C558
S31808000039010008C5010008C5010008C5010008C501000865
S3180800004CC5010008C5010008C5010008C5010008C5010095
S3180800005F08C5010008C5010008C5010008C5010008C5017A
S318080000720008C5010008C5010008C5010008C5010008C568
S31808000085010008C5010008C5010008C5010008C501000819
S31808000098C5010008C5010008C5010008C5010008C5010049
S318080000AB08C5010008C5010008C5010008C5010008C5012E
S318080000BE0008C5010008C5010008C5010008C5010008C51C
S318080000D1010008C5010008C5010008C5010008C5010008CD
S318080000E4C5010008C5010008C5010008C5010008C50100FD
S318080000F708C5010008C5010008C5010008C5010008C501E2
S3180800010A0008C5010008C5010008C5010008C5010008C5CF
S3180800011D010008C5010008C5010008C5010008C501000880
S31808000130C5010008C5010008C5010008C5010008C50100B0
S3180800014308C5010008C5010008C5010008C5010008C50195
S318080001560008C5010008C5010008C5010008C5010008C583
S31808000169010008C5010008C5010008C5010008C501000834
S3180800017CC5010008C5010008C501000880B483B000AF4F93
S3180800018FF000037B604FF000033B607B6803F101037B60EE
S318080001A240F20003C2F200031B683B60F4E7C80100080086
S318080001B5000020040000200400002004000020FFF7FEBFEA
S309080001C834120000DF
S7050800018968
